{
  "contracts/Track.sol": {
    "TrackMedicine": {
      "abi": [
        {
          "inputs": [],
          "stateMutability": "nonpayable",
          "type": "constructor"
        },
        {
          "anonymous": false,
          "inputs": [
            {
              "indexed": false,
              "internalType": "uint256",
              "name": "batchId",
              "type": "uint256"
            },
            {
              "indexed": false,
              "internalType": "enum TrackMedicine.Status",
              "name": "status",
              "type": "uint8"
            }
          ],
          "name": "StatusUpdated",
          "type": "event"
        },
        {
          "inputs": [
            {
              "internalType": "uint256",
              "name": "_batchId",
              "type": "uint256"
            },
            {
              "internalType": "string",
              "name": "_dDate",
              "type": "string"
            },
            {
              "internalType": "address",
              "name": "_retailer",
              "type": "address"
            }
          ],
          "name": "deliverMedicine",
          "outputs": [],
          "stateMutability": "nonpayable",
          "type": "function"
        },
        {
          "inputs": [
            {
              "internalType": "string",
              "name": "_name",
              "type": "string"
            }
          ],
          "name": "getMedicineDetailsByName",
          "outputs": [
            {
              "components": [
                {
                  "internalType": "string",
                  "name": "name",
                  "type": "string"
                },
                {
                  "internalType": "uint256",
                  "name": "quantity",
                  "type": "uint256"
                },
                {
                  "internalType": "address",
                  "name": "manufacturer",
                  "type": "address"
                },
                {
                  "internalType": "address",
                  "name": "distributor",
                  "type": "address"
                },
                {
                  "internalType": "address",
                  "name": "retailer",
                  "type": "address"
                },
                {
                  "internalType": "enum TrackMedicine.Status",
                  "name": "status",
                  "type": "uint8"
                },
                {
                  "internalType": "int8",
                  "name": "temp",
                  "type": "int8"
                },
                {
                  "components": [
                    {
                      "internalType": "string",
                      "name": "m_Date",
                      "type": "string"
                    },
                    {
                      "internalType": "string",
                      "name": "p_Date",
                      "type": "string"
                    },
                    {
                      "internalType": "string",
                      "name": "s_Date",
                      "type": "string"
                    },
                    {
                      "internalType": "string",
                      "name": "picDate",
                      "type": "string"
                    },
                    {
                      "internalType": "string",
                      "name": "d_Date",
                      "type": "string"
                    },
                    {
                      "internalType": "string",
                      "name": "storeDate",
                      "type": "string"
                    }
                  ],
                  "internalType": "struct TrackMedicine.Dates",
                  "name": "dates",
                  "type": "tuple"
                },
                {
                  "components": [
                    {
                      "internalType": "string",
                      "name": "storageLocation",
                      "type": "string"
                    }
                  ],
                  "internalType": "struct TrackMedicine.Location",
                  "name": "location",
                  "type": "tuple"
                }
              ],
              "internalType": "struct TrackMedicine.Medicine",
              "name": "",
              "type": "tuple"
            }
          ],
          "stateMutability": "view",
          "type": "function"
        },
        {
          "inputs": [
            {
              "internalType": "uint256",
              "name": "_batchId",
              "type": "uint256"
            },
            {
              "internalType": "string",
              "name": "_name",
              "type": "string"
            },
            {
              "internalType": "uint256",
              "name": "_quantity",
              "type": "uint256"
            },
            {
              "internalType": "string",
              "name": "_mDate",
              "type": "string"
            },
            {
              "internalType": "int8",
              "name": "_temp",
              "type": "int8"
            }
          ],
          "name": "manufactureMedicine",
          "outputs": [],
          "stateMutability": "nonpayable",
          "type": "function"
        },
        {
          "inputs": [],
          "name": "manufacturer",
          "outputs": [
            {
              "internalType": "address",
              "name": "",
              "type": "address"
            }
          ],
          "stateMutability": "view",
          "type": "function"
        },
        {
          "inputs": [
            {
              "internalType": "uint256",
              "name": "",
              "type": "uint256"
            }
          ],
          "name": "medicines",
          "outputs": [
            {
              "internalType": "string",
              "name": "name",
              "type": "string"
            },
            {
              "internalType": "uint256",
              "name": "quantity",
              "type": "uint256"
            },
            {
              "internalType": "address",
              "name": "manufacturer",
              "type": "address"
            },
            {
              "internalType": "address",
              "name": "distributor",
              "type": "address"
            },
            {
              "internalType": "address",
              "name": "retailer",
              "type": "address"
            },
            {
              "internalType": "enum TrackMedicine.Status",
              "name": "status",
              "type": "uint8"
            },
            {
              "internalType": "int8",
              "name": "temp",
              "type": "int8"
            },
            {
              "components": [
                {
                  "internalType": "string",
                  "name": "m_Date",
                  "type": "string"
                },
                {
                  "internalType": "string",
                  "name": "p_Date",
                  "type": "string"
                },
                {
                  "internalType": "string",
                  "name": "s_Date",
                  "type": "string"
                },
                {
                  "internalType": "string",
                  "name": "picDate",
                  "type": "string"
                },
                {
                  "internalType": "string",
                  "name": "d_Date",
                  "type": "string"
                },
                {
                  "internalType": "string",
                  "name": "storeDate",
                  "type": "string"
                }
              ],
              "internalType": "struct TrackMedicine.Dates",
              "name": "dates",
              "type": "tuple"
            },
            {
              "components": [
                {
                  "internalType": "string",
                  "name": "storageLocation",
                  "type": "string"
                }
              ],
              "internalType": "struct TrackMedicine.Location",
              "name": "location",
              "type": "tuple"
            }
          ],
          "stateMutability": "view",
          "type": "function"
        },
        {
          "inputs": [
            {
              "internalType": "string",
              "name": "",
              "type": "string"
            }
          ],
          "name": "nameToBatchId",
          "outputs": [
            {
              "internalType": "uint256",
              "name": "",
              "type": "uint256"
            }
          ],
          "stateMutability": "view",
          "type": "function"
        },
        {
          "inputs": [
            {
              "internalType": "uint256",
              "name": "_batchId",
              "type": "uint256"
            },
            {
              "internalType": "string",
              "name": "_pDate",
              "type": "string"
            }
          ],
          "name": "packMedicine",
          "outputs": [],
          "stateMutability": "nonpayable",
          "type": "function"
        },
        {
          "inputs": [
            {
              "internalType": "uint256",
              "name": "_batchId",
              "type": "uint256"
            },
            {
              "internalType": "string",
              "name": "_picDate",
              "type": "string"
            }
          ],
          "name": "pickMedicine",
          "outputs": [],
          "stateMutability": "nonpayable",
          "type": "function"
        },
        {
          "inputs": [
            {
              "internalType": "uint256",
              "name": "_batchId",
              "type": "uint256"
            },
            {
              "internalType": "string",
              "name": "_sDate",
              "type": "string"
            },
            {
              "internalType": "address",
              "name": "_distributor",
              "type": "address"
            }
          ],
          "name": "shipMedicine",
          "outputs": [],
          "stateMutability": "nonpayable",
          "type": "function"
        },
        {
          "inputs": [
            {
              "internalType": "uint256",
              "name": "_batchId",
              "type": "uint256"
            },
            {
              "internalType": "string",
              "name": "_storageLocation",
              "type": "string"
            },
            {
              "internalType": "string",
              "name": "_storeDate",
              "type": "string"
            }
          ],
          "name": "storeMedicine",
          "outputs": [],
          "stateMutability": "nonpayable",
          "type": "function"
        }
      ],
      "evm": {
        "bytecode": {
          "linkReferences": {},
          "object": "6080604052348015600f57600080fd5b5033600260006101000a81548173ffffffffffffffffffffffffffffffffffffffff021916908373ffffffffffffffffffffffffffffffffffffffff16021790555061319c806100606000396000f3fe608060405234801561001057600080fd5b506004361061009e5760003560e01c8063747542821161006657806374754282146101575780637ead0dd7146101755780638a381fd814610191578063c85e766d146101ad578063d804ace8146101e55761009e565b8063090e46e3146100a35780631055f23c146100bf57806312eb7ffd146100db57806365de676b1461010b57806370b184da1461013b575b600080fd5b6100bd60048036038101906100b89190612287565b610201565b005b6100d960048036038101906100d49190612398565b6106b5565b005b6100f560048036038101906100f09190612407565b61099f565b604051610102919061245f565b60405180910390f35b61012560048036038101906101209190612407565b6109cd565b6040516101329190612746565b60405180910390f35b61015560048036038101906101509190612768565b61107d565b005b61015f6112a3565b60405161016c91906127d3565b60405180910390f35b61018f600480360381019061018a9190612768565b6112c9565b005b6101ab60048036038101906101a691906127ee565b611504565b005b6101c760048036038101906101c29190612879565b611766565b6040516101dc999897969594939291906129e4565b60405180910390f35b6101ff60048036038101906101fa9190612398565b611cc8565b005b600260009054906101000a900473ffffffffffffffffffffffffffffffffffffffff1673ffffffffffffffffffffffffffffffffffffffff163373ffffffffffffffffffffffffffffffffffffffff1614610291576040517f08c379a000000000000000000000000000000000000000000000000000000000815260040161028890612ad2565b60405180910390fd5b60006001856040516102a39190612b2e565b908152602001604051809103902054146102f2576040517f08c379a00000000000000000000000000000000000000000000000000000000081526004016102e990612b91565b60405180910390fd5b604051806101200160405280858152602001848152602001600260009054906101000a900473ffffffffffffffffffffffffffffffffffffffff1673ffffffffffffffffffffffffffffffffffffffff168152602001600073ffffffffffffffffffffffffffffffffffffffff168152602001600073ffffffffffffffffffffffffffffffffffffffff1681526020016000600581111561039657610395612517565b5b81526020018260000b81526020016040518060c0016040528085815260200160405180602001604052806000815250815260200160405180602001604052806000815250815260200160405180602001604052806000815250815260200160405180602001604052806000815250815260200160405180602001604052806000815250815250815260200160405180602001604052806040518060200160405280600081525081525081525060008087815260200190815260200160002060008201518160000190816104699190612dbd565b506020820151816001015560408201518160020160006101000a81548173ffffffffffffffffffffffffffffffffffffffff021916908373ffffffffffffffffffffffffffffffffffffffff16021790555060608201518160030160006101000a81548173ffffffffffffffffffffffffffffffffffffffff021916908373ffffffffffffffffffffffffffffffffffffffff16021790555060808201518160040160006101000a81548173ffffffffffffffffffffffffffffffffffffffff021916908373ffffffffffffffffffffffffffffffffffffffff16021790555060a08201518160040160146101000a81548160ff0219169083600581111561057457610573612517565b5b021790555060c08201518160040160156101000a81548160ff021916908360000b60ff16021790555060e08201518160050160008201518160000190816105bb9190612dbd565b5060208201518160010190816105d19190612dbd565b5060408201518160020190816105e79190612dbd565b5060608201518160030190816105fd9190612dbd565b5060808201518160040190816106139190612dbd565b5060a08201518160050190816106299190612dbd565b50505061010082015181600b01600082015181600001908161064b9190612dbd565b505050905050846001856040516106629190612b2e565b9081526020016040518091039020819055507f2da7b23ca63c1eb969eee5fae4acb98186abecf5358b0354a82a5183ebca6b2a8560006040516106a6929190612e8f565b60405180910390a15050505050565b600260009054906101000a900473ffffffffffffffffffffffffffffffffffffffff1673ffffffffffffffffffffffffffffffffffffffff163373ffffffffffffffffffffffffffffffffffffffff1614610745576040517f08c379a000000000000000000000000000000000000000000000000000000000815260040161073c90612ad2565b60405180910390fd5b82600180600581111561075b5761075a612517565b5b60008084815260200190815260200160002060040160149054906101000a900460ff1660058111156107905761078f612517565b5b146107d0576040517f08c379a00000000000000000000000000000000000000000000000000000000081526004016107c790612f04565b60405180910390fd5b600080600087815260200190815260200160002060050160000180546107f590612be0565b905011610837576040517f08c379a000000000000000000000000000000000000000000000000000000000815260040161082e90612f70565b60405180910390fd5b600073ffffffffffffffffffffffffffffffffffffffff168373ffffffffffffffffffffffffffffffffffffffff16036108a6576040517f08c379a000000000000000000000000000000000000000000000000000000000815260040161089d90613002565b60405180910390fd5b8260008087815260200190815260200160002060030160006101000a81548173ffffffffffffffffffffffffffffffffffffffff021916908373ffffffffffffffffffffffffffffffffffffffff16021790555083600080878152602001908152602001600020600501600201908161091f9190612dbd565b50600260008087815260200190815260200160002060040160146101000a81548160ff0219169083600581111561095957610958612517565b5b02179055507f2da7b23ca63c1eb969eee5fae4acb98186abecf5358b0354a82a5183ebca6b2a856002604051610990929190612e8f565b60405180910390a15050505050565b6001818051602081018201805184825260208301602085012081835280955050505050506000915090505481565b6109d5611fc7565b60006001836040516109e79190612b2e565b908152602001604051809103902054905060008103610a3b576040517f08c379a0000000000000000000000000000000000000000000000000000000008152600401610a329061306e565b60405180910390fd5b60008082815260200190815260200160002060405180610120016040529081600082018054610a6990612be0565b80601f0160208091040260200160405190810160405280929190818152602001828054610a9590612be0565b8015610ae25780601f10610ab757610100808354040283529160200191610ae2565b820191906000526020600020905b815481529060010190602001808311610ac557829003601f168201915b50505050508152602001600182015481526020016002820160009054906101000a900473ffffffffffffffffffffffffffffffffffffffff1673ffffffffffffffffffffffffffffffffffffffff1673ffffffffffffffffffffffffffffffffffffffff1681526020016003820160009054906101000a900473ffffffffffffffffffffffffffffffffffffffff1673ffffffffffffffffffffffffffffffffffffffff1673ffffffffffffffffffffffffffffffffffffffff1681526020016004820160009054906101000a900473ffffffffffffffffffffffffffffffffffffffff1673ffffffffffffffffffffffffffffffffffffffff1673ffffffffffffffffffffffffffffffffffffffff1681526020016004820160149054906101000a900460ff166005811115610c1c57610c1b612517565b5b6005811115610c2e57610c2d612517565b5b81526020016004820160159054906101000a900460000b60000b60000b8152602001600582016040518060c0016040529081600082018054610c6f90612be0565b80601f0160208091040260200160405190810160405280929190818152602001828054610c9b90612be0565b8015610ce85780601f10610cbd57610100808354040283529160200191610ce8565b820191906000526020600020905b815481529060010190602001808311610ccb57829003601f168201915b50505050508152602001600182018054610d0190612be0565b80601f0160208091040260200160405190810160405280929190818152602001828054610d2d90612be0565b8015610d7a5780601f10610d4f57610100808354040283529160200191610d7a565b820191906000526020600020905b815481529060010190602001808311610d5d57829003601f168201915b50505050508152602001600282018054610d9390612be0565b80601f0160208091040260200160405190810160405280929190818152602001828054610dbf90612be0565b8015610e0c5780601f10610de157610100808354040283529160200191610e0c565b820191906000526020600020905b815481529060010190602001808311610def57829003601f168201915b50505050508152602001600382018054610e2590612be0565b80601f0160208091040260200160405190810160405280929190818152602001828054610e5190612be0565b8015610e9e5780601f10610e7357610100808354040283529160200191610e9e565b820191906000526020600020905b815481529060010190602001808311610e8157829003601f168201915b50505050508152602001600482018054610eb790612be0565b80601f0160208091040260200160405190810160405280929190818152602001828054610ee390612be0565b8015610f305780601f10610f0557610100808354040283529160200191610f30565b820191906000526020600020905b815481529060010190602001808311610f1357829003601f168201915b50505050508152602001600582018054610f4990612be0565b80601f0160208091040260200160405190810160405280929190818152602001828054610f7590612be0565b8015610fc25780601f10610f9757610100808354040283529160200191610fc2565b820191906000526020600020905b815481529060010190602001808311610fa557829003601f168201915b5050505050815250508152602001600b8201604051806020016040529081600082018054610fef90612be0565b80601f016020809104026020016040519081016040528092919081815260200182805461101b90612be0565b80156110685780601f1061103d57610100808354040283529160200191611068565b820191906000526020600020905b81548152906001019060200180831161104b57829003601f168201915b50505050508152505081525050915050919050565b600260009054906101000a900473ffffffffffffffffffffffffffffffffffffffff1673ffffffffffffffffffffffffffffffffffffffff163373ffffffffffffffffffffffffffffffffffffffff161461110d576040517f08c379a000000000000000000000000000000000000000000000000000000000815260040161110490612ad2565b60405180910390fd5b81600080600581111561112357611122612517565b5b60008084815260200190815260200160002060040160149054906101000a900460ff16600581111561115857611157612517565b5b14611198576040517f08c379a000000000000000000000000000000000000000000000000000000000815260040161118f90612f04565b60405180910390fd5b600080600086815260200190815260200160002060050160000180546111bd90612be0565b9050116111ff576040517f08c379a00000000000000000000000000000000000000000000000000000000081526004016111f690612f70565b60405180910390fd5b8260008086815260200190815260200160002060050160010190816112249190612dbd565b50600160008086815260200190815260200160002060040160146101000a81548160ff0219169083600581111561125e5761125d612517565b5b02179055507f2da7b23ca63c1eb969eee5fae4acb98186abecf5358b0354a82a5183ebca6b2a846001604051611295929190612e8f565b60405180910390a150505050565b600260009054906101000a900473ffffffffffffffffffffffffffffffffffffffff1681565b8160008082815260200190815260200160002060030160009054906101000a900473ffffffffffffffffffffffffffffffffffffffff1673ffffffffffffffffffffffffffffffffffffffff163373ffffffffffffffffffffffffffffffffffffffff161461136d576040517f08c379a0000000000000000000000000000000000000000000000000000000008152600401611364906130da565b60405180910390fd5b82600280600581111561138357611382612517565b5b60008084815260200190815260200160002060040160149054906101000a900460ff1660058111156113b8576113b7612517565b5b146113f8576040517f08c379a00000000000000000000000000000000000000000000000000000000081526004016113ef90612f04565b60405180910390fd5b6000806000878152602001908152602001600020600501600001805461141d90612be0565b90501161145f576040517f08c379a000000000000000000000000000000000000000000000000000000000815260040161145690612f70565b60405180910390fd5b8360008087815260200190815260200160002060050160030190816114849190612dbd565b50600360008087815260200190815260200160002060040160146101000a81548160ff021916908360058111156114be576114bd612517565b5b02179055507f2da7b23ca63c1eb969eee5fae4acb98186abecf5358b0354a82a5183ebca6b2a8560036040516114f5929190612e8f565b60405180910390a15050505050565b8260008082815260200190815260200160002060030160009054906101000a900473ffffffffffffffffffffffffffffffffffffffff1673ffffffffffffffffffffffffffffffffffffffff163373ffffffffffffffffffffffffffffffffffffffff16146115a8576040517f08c379a000000000000000000000000000000000000000000000000000000000815260040161159f906130da565b60405180910390fd5b8360038060058111156115be576115bd612517565b5b60008084815260200190815260200160002060040160149054906101000a900460ff1660058111156115f3576115f2612517565b5b14611633576040517f08c379a000000000000000000000000000000000000000000000000000000000815260040161162a90612f04565b60405180910390fd5b6000806000888152602001908152602001600020600501600001805461165890612be0565b90501161169a576040517f08c379a000000000000000000000000000000000000000000000000000000000815260040161169190612f70565b60405180910390fd5b84600080888152602001908152602001600020600b0160000190816116bf9190612dbd565b508360008088815260200190815260200160002060050160050190816116e59190612dbd565b50600460008088815260200190815260200160002060040160146101000a81548160ff0219169083600581111561171f5761171e612517565b5b02179055507f2da7b23ca63c1eb969eee5fae4acb98186abecf5358b0354a82a5183ebca6b2a866004604051611756929190612e8f565b60405180910390a1505050505050565b600060205280600052604060002060009150905080600001805461178990612be0565b80601f01602080910402602001604051908101604052809291908181526020018280546117b590612be0565b80156118025780601f106117d757610100808354040283529160200191611802565b820191906000526020600020905b8154815290600101906020018083116117e557829003601f168201915b5050505050908060010154908060020160009054906101000a900473ffffffffffffffffffffffffffffffffffffffff16908060030160009054906101000a900473ffffffffffffffffffffffffffffffffffffffff16908060040160009054906101000a900473ffffffffffffffffffffffffffffffffffffffff16908060040160149054906101000a900460ff16908060040160159054906101000a900460000b90806005016040518060c00160405290816000820180546118c590612be0565b80601f01602080910402602001604051908101604052809291908181526020018280546118f190612be0565b801561193e5780601f106119135761010080835404028352916020019161193e565b820191906000526020600020905b81548152906001019060200180831161192157829003601f168201915b5050505050815260200160018201805461195790612be0565b80601f016020809104026020016040519081016040528092919081815260200182805461198390612be0565b80156119d05780601f106119a5576101008083540402835291602001916119d0565b820191906000526020600020905b8154815290600101906020018083116119b357829003601f168201915b505050505081526020016002820180546119e990612be0565b80601f0160208091040260200160405190810160405280929190818152602001828054611a1590612be0565b8015611a625780601f10611a3757610100808354040283529160200191611a62565b820191906000526020600020905b815481529060010190602001808311611a4557829003601f168201915b50505050508152602001600382018054611a7b90612be0565b80601f0160208091040260200160405190810160405280929190818152602001828054611aa790612be0565b8015611af45780601f10611ac957610100808354040283529160200191611af4565b820191906000526020600020905b815481529060010190602001808311611ad757829003601f168201915b50505050508152602001600482018054611b0d90612be0565b80601f0160208091040260200160405190810160405280929190818152602001828054611b3990612be0565b8015611b865780601f10611b5b57610100808354040283529160200191611b86565b820191906000526020600020905b815481529060010190602001808311611b6957829003601f168201915b50505050508152602001600582018054611b9f90612be0565b80601f0160208091040260200160405190810160405280929190818152602001828054611bcb90612be0565b8015611c185780601f10611bed57610100808354040283529160200191611c18565b820191906000526020600020905b815481529060010190602001808311611bfb57829003601f168201915b5050505050815250509080600b01604051806020016040529081600082018054611c4190612be0565b80601f0160208091040260200160405190810160405280929190818152602001828054611c6d90612be0565b8015611cba5780601f10611c8f57610100808354040283529160200191611cba565b820191906000526020600020905b815481529060010190602001808311611c9d57829003601f168201915b505050505081525050905089565b8260008082815260200190815260200160002060030160009054906101000a900473ffffffffffffffffffffffffffffffffffffffff1673ffffffffffffffffffffffffffffffffffffffff163373ffffffffffffffffffffffffffffffffffffffff1614611d6c576040517f08c379a0000000000000000000000000000000000000000000000000000000008152600401611d63906130da565b60405180910390fd5b836004806005811115611d8257611d81612517565b5b60008084815260200190815260200160002060040160149054906101000a900460ff166005811115611db757611db6612517565b5b14611df7576040517f08c379a0000000000000000000000000000000000000000000000000000000008152600401611dee90612f04565b60405180910390fd5b60008060008881526020019081526020016000206005016000018054611e1c90612be0565b905011611e5e576040517f08c379a0000000000000000000000000000000000000000000000000000000008152600401611e5590612f70565b60405180910390fd5b600073ffffffffffffffffffffffffffffffffffffffff168473ffffffffffffffffffffffffffffffffffffffff1603611ecd576040517f08c379a0000000000000000000000000000000000000000000000000000000008152600401611ec490613146565b60405180910390fd5b8360008088815260200190815260200160002060040160006101000a81548173ffffffffffffffffffffffffffffffffffffffff021916908373ffffffffffffffffffffffffffffffffffffffff160217905550846000808881526020019081526020016000206005016004019081611f469190612dbd565b50600560008088815260200190815260200160002060040160146101000a81548160ff02191690836005811115611f8057611f7f612517565b5b02179055507f2da7b23ca63c1eb969eee5fae4acb98186abecf5358b0354a82a5183ebca6b2a866005604051611fb7929190612e8f565b60405180910390a1505050505050565b6040518061012001604052806060815260200160008152602001600073ffffffffffffffffffffffffffffffffffffffff168152602001600073ffffffffffffffffffffffffffffffffffffffff168152602001600073ffffffffffffffffffffffffffffffffffffffff1681526020016000600581111561204c5761204b612517565b5b81526020016000800b8152602001612062612075565b815260200161206f6120ab565b81525090565b6040518060c001604052806060815260200160608152602001606081526020016060815260200160608152602001606081525090565b6040518060200160405280606081525090565b6000604051905090565b600080fd5b600080fd5b6000819050919050565b6120e5816120d2565b81146120f057600080fd5b50565b600081359050612102816120dc565b92915050565b600080fd5b600080fd5b6000601f19601f8301169050919050565b7f4e487b7100000000000000000000000000000000000000000000000000000000600052604160045260246000fd5b61215b82612112565b810181811067ffffffffffffffff8211171561217a57612179612123565b5b80604052505050565b600061218d6120be565b90506121998282612152565b919050565b600067ffffffffffffffff8211156121b9576121b8612123565b5b6121c282612112565b9050602081019050919050565b82818337600083830152505050565b60006121f16121ec8461219e565b612183565b90508281526020810184848401111561220d5761220c61210d565b5b6122188482856121cf565b509392505050565b600082601f83011261223557612234612108565b5b81356122458482602086016121de565b91505092915050565b60008160000b9050919050565b6122648161224e565b811461226f57600080fd5b50565b6000813590506122818161225b565b92915050565b600080600080600060a086880312156122a3576122a26120c8565b5b60006122b1888289016120f3565b955050602086013567ffffffffffffffff8111156122d2576122d16120cd565b5b6122de88828901612220565b94505060406122ef888289016120f3565b935050606086013567ffffffffffffffff8111156123105761230f6120cd565b5b61231c88828901612220565b925050608061232d88828901612272565b9150509295509295909350565b600073ffffffffffffffffffffffffffffffffffffffff82169050919050565b60006123658261233a565b9050919050565b6123758161235a565b811461238057600080fd5b50565b6000813590506123928161236c565b92915050565b6000806000606084860312156123b1576123b06120c8565b5b60006123bf868287016120f3565b935050602084013567ffffffffffffffff8111156123e0576123df6120cd565b5b6123ec86828701612220565b92505060406123fd86828701612383565b9150509250925092565b60006020828403121561241d5761241c6120c8565b5b600082013567ffffffffffffffff81111561243b5761243a6120cd565b5b61244784828501612220565b91505092915050565b612459816120d2565b82525050565b60006020820190506124746000830184612450565b92915050565b600081519050919050565b600082825260208201905092915050565b60005b838110156124b4578082015181840152602081019050612499565b60008484015250505050565b60006124cb8261247a565b6124d58185612485565b93506124e5818560208601612496565b6124ee81612112565b840191505092915050565b612502816120d2565b82525050565b6125118161235a565b82525050565b7f4e487b7100000000000000000000000000000000000000000000000000000000600052602160045260246000fd5b6006811061255757612556612517565b5b50565b600081905061256882612546565b919050565b60006125788261255a565b9050919050565b6125888161256d565b82525050565b6125978161224e565b82525050565b600060c08301600083015184820360008601526125ba82826124c0565b915050602083015184820360208601526125d482826124c0565b915050604083015184820360408601526125ee82826124c0565b9150506060830151848203606086015261260882826124c0565b9150506080830151848203608086015261262282826124c0565b91505060a083015184820360a086015261263c82826124c0565b9150508091505092915050565b6000602083016000830151848203600086015261266682826124c0565b9150508091505092915050565b600061012083016000830151848203600086015261269182826124c0565b91505060208301516126a660208601826124f9565b5060408301516126b96040860182612508565b5060608301516126cc6060860182612508565b5060808301516126df6080860182612508565b5060a08301516126f260a086018261257f565b5060c083015161270560c086018261258e565b5060e083015184820360e086015261271d828261259d565b9150506101008301518482036101008601526127398282612649565b9150508091505092915050565b600060208201905081810360008301526127608184612673565b905092915050565b6000806040838503121561277f5761277e6120c8565b5b600061278d858286016120f3565b925050602083013567ffffffffffffffff8111156127ae576127ad6120cd565b5b6127ba85828601612220565b9150509250929050565b6127cd8161235a565b82525050565b60006020820190506127e860008301846127c4565b92915050565b600080600060608486031215612807576128066120c8565b5b6000612815868287016120f3565b935050602084013567ffffffffffffffff811115612836576128356120cd565b5b61284286828701612220565b925050604084013567ffffffffffffffff811115612863576128626120cd565b5b61286f86828701612220565b9150509250925092565b60006020828403121561288f5761288e6120c8565b5b600061289d848285016120f3565b91505092915050565b600082825260208201905092915050565b60006128c28261247a565b6128cc81856128a6565b93506128dc818560208601612496565b6128e581612112565b840191505092915050565b6128f98161256d565b82525050565b6129088161224e565b82525050565b600060c083016000830151848203600086015261292b82826124c0565b9150506020830151848203602086015261294582826124c0565b9150506040830151848203604086015261295f82826124c0565b9150506060830151848203606086015261297982826124c0565b9150506080830151848203608086015261299382826124c0565b91505060a083015184820360a08601526129ad82826124c0565b9150508091505092915050565b600060208301600083015184820360008601526129d782826124c0565b9150508091505092915050565b60006101208201905081810360008301526129ff818c6128b7565b9050612a0e602083018b612450565b612a1b604083018a6127c4565b612a2860608301896127c4565b612a3560808301886127c4565b612a4260a08301876128f0565b612a4f60c08301866128ff565b81810360e0830152612a61818561290e565b9050818103610100830152612a7681846129ba565b90509a9950505050505050505050565b7f4e6f7420746865206d616e756661637475726572000000000000000000000000600082015250565b6000612abc6014836128a6565b9150612ac782612a86565b602082019050919050565b60006020820190508181036000830152612aeb81612aaf565b9050919050565b600081905092915050565b6000612b088261247a565b612b128185612af2565b9350612b22818560208601612496565b80840191505092915050565b6000612b3a8284612afd565b915081905092915050565b7f4d65646963696e65206e616d6520616c72656164792065786973747300000000600082015250565b6000612b7b601c836128a6565b9150612b8682612b45565b602082019050919050565b60006020820190508181036000830152612baa81612b6e565b9050919050565b7f4e487b7100000000000000000000000000000000000000000000000000000000600052602260045260246000fd5b60006002820490506001821680612bf857607f821691505b602082108103612c0b57612c0a612bb1565b5b50919050565b60008190508160005260206000209050919050565b60006020601f8301049050919050565b600082821b905092915050565b600060088302612c737fffffffffffffffffffffffffffffffffffffffffffffffffffffffffffffffff82612c36565b612c7d8683612c36565b95508019841693508086168417925050509392505050565b6000819050919050565b6000612cba612cb5612cb0846120d2565b612c95565b6120d2565b9050919050565b6000819050919050565b612cd483612c9f565b612ce8612ce082612cc1565b848454612c43565b825550505050565b600090565b612cfd612cf0565b612d08818484612ccb565b505050565b5b81811015612d2c57612d21600082612cf5565b600181019050612d0e565b5050565b601f821115612d7157612d4281612c11565b612d4b84612c26565b81016020851015612d5a578190505b612d6e612d6685612c26565b830182612d0d565b50505b505050565b600082821c905092915050565b6000612d9460001984600802612d76565b1980831691505092915050565b6000612dad8383612d83565b9150826002028217905092915050565b612dc68261247a565b67ffffffffffffffff811115612ddf57612dde612123565b5b612de98254612be0565b612df4828285612d30565b600060209050601f831160018114612e275760008415612e15578287015190505b612e1f8582612da1565b865550612e87565b601f198416612e3586612c11565b60005b82811015612e5d57848901518255600182019150602085019450602081019050612e38565b86831015612e7a5784890151612e76601f891682612d83565b8355505b6001600288020188555050505b505050505050565b6000604082019050612ea46000830185612450565b612eb160208301846128f0565b9392505050565b7f496e76616c6964207374617465207472616e736974696f6e0000000000000000600082015250565b6000612eee6018836128a6565b9150612ef982612eb8565b602082019050919050565b60006020820190508181036000830152612f1d81612ee1565b9050919050565b7f426174636820494420646f6573206e6f74206578697374000000000000000000600082015250565b6000612f5a6017836128a6565b9150612f6582612f24565b602082019050919050565b60006020820190508181036000830152612f8981612f4d565b9050919050565b7f4469737472696275746f7220616464726573732063616e6e6f74206265207a6560008201527f726f000000000000000000000000000000000000000000000000000000000000602082015250565b6000612fec6022836128a6565b9150612ff782612f90565b604082019050919050565b6000602082019050818103600083015261301b81612fdf565b9050919050565b7f4d65646963696e65206e6f7420666f756e640000000000000000000000000000600082015250565b60006130586012836128a6565b915061306382613022565b602082019050919050565b600060208201905081810360008301526130878161304b565b9050919050565b7f4e6f7420746865206469737472696275746f7200000000000000000000000000600082015250565b60006130c46013836128a6565b91506130cf8261308e565b602082019050919050565b600060208201905081810360008301526130f3816130b7565b9050919050565b7f52657461696c657220616464726573732063616e6e6f74206265207a65726f00600082015250565b6000613130601f836128a6565b915061313b826130fa565b602082019050919050565b6000602082019050818103600083015261315f81613123565b905091905056fea264697066735822122082bba0555a4b5b3779f18de04ecc285aadc7021b691189cdec6073b27f9c516164736f6c634300081c0033",
          "opcodes": "PUSH1 0x80 PUSH1 0x40 MSTORE CALLVALUE DUP1 ISZERO PUSH1 0xF JUMPI PUSH1 0x0 DUP1 REVERT JUMPDEST POP CALLER PUSH1 0x2 PUSH1 0x0 PUSH2 0x100 EXP DUP2 SLOAD DUP2 PUSH20 0xFFFFFFFFFFFFFFFFFFFFFFFFFFFFFFFFFFFFFFFF MUL NOT AND SWAP1 DUP4 PUSH20 0xFFFFFFFFFFFFFFFFFFFFFFFFFFFFFFFFFFFFFFFF AND MUL OR SWAP1 SSTORE POP PUSH2 0x319C DUP1 PUSH2 0x60 PUSH1 0x0 CODECOPY PUSH1 0x0 RETURN INVALID PUSH1 0x80 PUSH1 0x40 MSTORE CALLVALUE DUP1 ISZERO PUSH2 0x10 JUMPI PUSH1 0x0 DUP1 REVERT JUMPDEST POP PUSH1 0x4 CALLDATASIZE LT PUSH2 0x9E JUMPI PUSH1 0x0 CALLDATALOAD PUSH1 0xE0 SHR DUP1 PUSH4 0x74754282 GT PUSH2 0x66 JUMPI DUP1 PUSH4 0x74754282 EQ PUSH2 0x157 JUMPI DUP1 PUSH4 0x7EAD0DD7 EQ PUSH2 0x175 JUMPI DUP1 PUSH4 0x8A381FD8 EQ PUSH2 0x191 JUMPI DUP1 PUSH4 0xC85E766D EQ PUSH2 0x1AD JUMPI DUP1 PUSH4 0xD804ACE8 EQ PUSH2 0x1E5 JUMPI PUSH2 0x9E JUMP JUMPDEST DUP1 PUSH4 0x90E46E3 EQ PUSH2 0xA3 JUMPI DUP1 PUSH4 0x1055F23C EQ PUSH2 0xBF JUMPI DUP1 PUSH4 0x12EB7FFD EQ PUSH2 0xDB JUMPI DUP1 PUSH4 0x65DE676B EQ PUSH2 0x10B JUMPI DUP1 PUSH4 0x70B184DA EQ PUSH2 0x13B JUMPI JUMPDEST PUSH1 0x0 DUP1 REVERT JUMPDEST PUSH2 0xBD PUSH1 0x4 DUP1 CALLDATASIZE SUB DUP2 ADD SWAP1 PUSH2 0xB8 SWAP2 SWAP1 PUSH2 0x2287 JUMP JUMPDEST PUSH2 0x201 JUMP JUMPDEST STOP JUMPDEST PUSH2 0xD9 PUSH1 0x4 DUP1 CALLDATASIZE SUB DUP2 ADD SWAP1 PUSH2 0xD4 SWAP2 SWAP1 PUSH2 0x2398 JUMP JUMPDEST PUSH2 0x6B5 JUMP JUMPDEST STOP JUMPDEST PUSH2 0xF5 PUSH1 0x4 DUP1 CALLDATASIZE SUB DUP2 ADD SWAP1 PUSH2 0xF0 SWAP2 SWAP1 PUSH2 0x2407 JUMP JUMPDEST PUSH2 0x99F JUMP JUMPDEST PUSH1 0x40 MLOAD PUSH2 0x102 SWAP2 SWAP1 PUSH2 0x245F JUMP JUMPDEST PUSH1 0x40 MLOAD DUP1 SWAP2 SUB SWAP1 RETURN JUMPDEST PUSH2 0x125 PUSH1 0x4 DUP1 CALLDATASIZE SUB DUP2 ADD SWAP1 PUSH2 0x120 SWAP2 SWAP1 PUSH2 0x2407 JUMP JUMPDEST PUSH2 0x9CD JUMP JUMPDEST PUSH1 0x40 MLOAD PUSH2 0x132 SWAP2 SWAP1 PUSH2 0x2746 JUMP JUMPDEST PUSH1 0x40 MLOAD DUP1 SWAP2 SUB SWAP1 RETURN JUMPDEST PUSH2 0x155 PUSH1 0x4 DUP1 CALLDATASIZE SUB DUP2 ADD SWAP1 PUSH2 0x150 SWAP2 SWAP1 PUSH2 0x2768 JUMP JUMPDEST PUSH2 0x107D JUMP JUMPDEST STOP JUMPDEST PUSH2 0x15F PUSH2 0x12A3 JUMP JUMPDEST PUSH1 0x40 MLOAD PUSH2 0x16C SWAP2 SWAP1 PUSH2 0x27D3 JUMP JUMPDEST PUSH1 0x40 MLOAD DUP1 SWAP2 SUB SWAP1 RETURN JUMPDEST PUSH2 0x18F PUSH1 0x4 DUP1 CALLDATASIZE SUB DUP2 ADD SWAP1 PUSH2 0x18A SWAP2 SWAP1 PUSH2 0x2768 JUMP JUMPDEST PUSH2 0x12C9 JUMP JUMPDEST STOP JUMPDEST PUSH2 0x1AB PUSH1 0x4 DUP1 CALLDATASIZE SUB DUP2 ADD SWAP1 PUSH2 0x1A6 SWAP2 SWAP1 PUSH2 0x27EE JUMP JUMPDEST PUSH2 0x1504 JUMP JUMPDEST STOP JUMPDEST PUSH2 0x1C7 PUSH1 0x4 DUP1 CALLDATASIZE SUB DUP2 ADD SWAP1 PUSH2 0x1C2 SWAP2 SWAP1 PUSH2 0x2879 JUMP JUMPDEST PUSH2 0x1766 JUMP JUMPDEST PUSH1 0x40 MLOAD PUSH2 0x1DC SWAP10 SWAP9 SWAP8 SWAP7 SWAP6 SWAP5 SWAP4 SWAP3 SWAP2 SWAP1 PUSH2 0x29E4 JUMP JUMPDEST PUSH1 0x40 MLOAD DUP1 SWAP2 SUB SWAP1 RETURN JUMPDEST PUSH2 0x1FF PUSH1 0x4 DUP1 CALLDATASIZE SUB DUP2 ADD SWAP1 PUSH2 0x1FA SWAP2 SWAP1 PUSH2 0x2398 JUMP JUMPDEST PUSH2 0x1CC8 JUMP JUMPDEST STOP JUMPDEST PUSH1 0x2 PUSH1 0x0 SWAP1 SLOAD SWAP1 PUSH2 0x100 EXP SWAP1 DIV PUSH20 0xFFFFFFFFFFFFFFFFFFFFFFFFFFFFFFFFFFFFFFFF AND PUSH20 0xFFFFFFFFFFFFFFFFFFFFFFFFFFFFFFFFFFFFFFFF AND CALLER PUSH20 0xFFFFFFFFFFFFFFFFFFFFFFFFFFFFFFFFFFFFFFFF AND EQ PUSH2 0x291 JUMPI PUSH1 0x40 MLOAD PUSH32 0x8C379A000000000000000000000000000000000000000000000000000000000 DUP2 MSTORE PUSH1 0x4 ADD PUSH2 0x288 SWAP1 PUSH2 0x2AD2 JUMP JUMPDEST PUSH1 0x40 MLOAD DUP1 SWAP2 SUB SWAP1 REVERT JUMPDEST PUSH1 0x0 PUSH1 0x1 DUP6 PUSH1 0x40 MLOAD PUSH2 0x2A3 SWAP2 SWAP1 PUSH2 0x2B2E JUMP JUMPDEST SWAP1 DUP2 MSTORE PUSH1 0x20 ADD PUSH1 0x40 MLOAD DUP1 SWAP2 SUB SWAP1 KECCAK256 SLOAD EQ PUSH2 0x2F2 JUMPI PUSH1 0x40 MLOAD PUSH32 0x8C379A000000000000000000000000000000000000000000000000000000000 DUP2 MSTORE PUSH1 0x4 ADD PUSH2 0x2E9 SWAP1 PUSH2 0x2B91 JUMP JUMPDEST PUSH1 0x40 MLOAD DUP1 SWAP2 SUB SWAP1 REVERT JUMPDEST PUSH1 0x40 MLOAD DUP1 PUSH2 0x120 ADD PUSH1 0x40 MSTORE DUP1 DUP6 DUP2 MSTORE PUSH1 0x20 ADD DUP5 DUP2 MSTORE PUSH1 0x20 ADD PUSH1 0x2 PUSH1 0x0 SWAP1 SLOAD SWAP1 PUSH2 0x100 EXP SWAP1 DIV PUSH20 0xFFFFFFFFFFFFFFFFFFFFFFFFFFFFFFFFFFFFFFFF AND PUSH20 0xFFFFFFFFFFFFFFFFFFFFFFFFFFFFFFFFFFFFFFFF AND DUP2 MSTORE PUSH1 0x20 ADD PUSH1 0x0 PUSH20 0xFFFFFFFFFFFFFFFFFFFFFFFFFFFFFFFFFFFFFFFF AND DUP2 MSTORE PUSH1 0x20 ADD PUSH1 0x0 PUSH20 0xFFFFFFFFFFFFFFFFFFFFFFFFFFFFFFFFFFFFFFFF AND DUP2 MSTORE PUSH1 0x20 ADD PUSH1 0x0 PUSH1 0x5 DUP2 GT ISZERO PUSH2 0x396 JUMPI PUSH2 0x395 PUSH2 0x2517 JUMP JUMPDEST JUMPDEST DUP2 MSTORE PUSH1 0x20 ADD DUP3 PUSH1 0x0 SIGNEXTEND DUP2 MSTORE PUSH1 0x20 ADD PUSH1 0x40 MLOAD DUP1 PUSH1 0xC0 ADD PUSH1 0x40 MSTORE DUP1 DUP6 DUP2 MSTORE PUSH1 0x20 ADD PUSH1 0x40 MLOAD DUP1 PUSH1 0x20 ADD PUSH1 0x40 MSTORE DUP1 PUSH1 0x0 DUP2 MSTORE POP DUP2 MSTORE PUSH1 0x20 ADD PUSH1 0x40 MLOAD DUP1 PUSH1 0x20 ADD PUSH1 0x40 MSTORE DUP1 PUSH1 0x0 DUP2 MSTORE POP DUP2 MSTORE PUSH1 0x20 ADD PUSH1 0x40 MLOAD DUP1 PUSH1 0x20 ADD PUSH1 0x40 MSTORE DUP1 PUSH1 0x0 DUP2 MSTORE POP DUP2 MSTORE PUSH1 0x20 ADD PUSH1 0x40 MLOAD DUP1 PUSH1 0x20 ADD PUSH1 0x40 MSTORE DUP1 PUSH1 0x0 DUP2 MSTORE POP DUP2 MSTORE PUSH1 0x20 ADD PUSH1 0x40 MLOAD DUP1 PUSH1 0x20 ADD PUSH1 0x40 MSTORE DUP1 PUSH1 0x0 DUP2 MSTORE POP DUP2 MSTORE POP DUP2 MSTORE PUSH1 0x20 ADD PUSH1 0x40 MLOAD DUP1 PUSH1 0x20 ADD PUSH1 0x40 MSTORE DUP1 PUSH1 0x40 MLOAD DUP1 PUSH1 0x20 ADD PUSH1 0x40 MSTORE DUP1 PUSH1 0x0 DUP2 MSTORE POP DUP2 MSTORE POP DUP2 MSTORE POP PUSH1 0x0 DUP1 DUP8 DUP2 MSTORE PUSH1 0x20 ADD SWAP1 DUP2 MSTORE PUSH1 0x20 ADD PUSH1 0x0 KECCAK256 PUSH1 0x0 DUP3 ADD MLOAD DUP2 PUSH1 0x0 ADD SWAP1 DUP2 PUSH2 0x469 SWAP2 SWAP1 PUSH2 0x2DBD JUMP JUMPDEST POP PUSH1 0x20 DUP3 ADD MLOAD DUP2 PUSH1 0x1 ADD SSTORE PUSH1 0x40 DUP3 ADD MLOAD DUP2 PUSH1 0x2 ADD PUSH1 0x0 PUSH2 0x100 EXP DUP2 SLOAD DUP2 PUSH20 0xFFFFFFFFFFFFFFFFFFFFFFFFFFFFFFFFFFFFFFFF MUL NOT AND SWAP1 DUP4 PUSH20 0xFFFFFFFFFFFFFFFFFFFFFFFFFFFFFFFFFFFFFFFF AND MUL OR SWAP1 SSTORE POP PUSH1 0x60 DUP3 ADD MLOAD DUP2 PUSH1 0x3 ADD PUSH1 0x0 PUSH2 0x100 EXP DUP2 SLOAD DUP2 PUSH20 0xFFFFFFFFFFFFFFFFFFFFFFFFFFFFFFFFFFFFFFFF MUL NOT AND SWAP1 DUP4 PUSH20 0xFFFFFFFFFFFFFFFFFFFFFFFFFFFFFFFFFFFFFFFF AND MUL OR SWAP1 SSTORE POP PUSH1 0x80 DUP3 ADD MLOAD DUP2 PUSH1 0x4 ADD PUSH1 0x0 PUSH2 0x100 EXP DUP2 SLOAD DUP2 PUSH20 0xFFFFFFFFFFFFFFFFFFFFFFFFFFFFFFFFFFFFFFFF MUL NOT AND SWAP1 DUP4 PUSH20 0xFFFFFFFFFFFFFFFFFFFFFFFFFFFFFFFFFFFFFFFF AND MUL OR SWAP1 SSTORE POP PUSH1 0xA0 DUP3 ADD MLOAD DUP2 PUSH1 0x4 ADD PUSH1 0x14 PUSH2 0x100 EXP DUP2 SLOAD DUP2 PUSH1 0xFF MUL NOT AND SWAP1 DUP4 PUSH1 0x5 DUP2 GT ISZERO PUSH2 0x574 JUMPI PUSH2 0x573 PUSH2 0x2517 JUMP JUMPDEST JUMPDEST MUL OR SWAP1 SSTORE POP PUSH1 0xC0 DUP3 ADD MLOAD DUP2 PUSH1 0x4 ADD PUSH1 0x15 PUSH2 0x100 EXP DUP2 SLOAD DUP2 PUSH1 0xFF MUL NOT AND SWAP1 DUP4 PUSH1 0x0 SIGNEXTEND PUSH1 0xFF AND MUL OR SWAP1 SSTORE POP PUSH1 0xE0 DUP3 ADD MLOAD DUP2 PUSH1 0x5 ADD PUSH1 0x0 DUP3 ADD MLOAD DUP2 PUSH1 0x0 ADD SWAP1 DUP2 PUSH2 0x5BB SWAP2 SWAP1 PUSH2 0x2DBD JUMP JUMPDEST POP PUSH1 0x20 DUP3 ADD MLOAD DUP2 PUSH1 0x1 ADD SWAP1 DUP2 PUSH2 0x5D1 SWAP2 SWAP1 PUSH2 0x2DBD JUMP JUMPDEST POP PUSH1 0x40 DUP3 ADD MLOAD DUP2 PUSH1 0x2 ADD SWAP1 DUP2 PUSH2 0x5E7 SWAP2 SWAP1 PUSH2 0x2DBD JUMP JUMPDEST POP PUSH1 0x60 DUP3 ADD MLOAD DUP2 PUSH1 0x3 ADD SWAP1 DUP2 PUSH2 0x5FD SWAP2 SWAP1 PUSH2 0x2DBD JUMP JUMPDEST POP PUSH1 0x80 DUP3 ADD MLOAD DUP2 PUSH1 0x4 ADD SWAP1 DUP2 PUSH2 0x613 SWAP2 SWAP1 PUSH2 0x2DBD JUMP JUMPDEST POP PUSH1 0xA0 DUP3 ADD MLOAD DUP2 PUSH1 0x5 ADD SWAP1 DUP2 PUSH2 0x629 SWAP2 SWAP1 PUSH2 0x2DBD JUMP JUMPDEST POP POP POP PUSH2 0x100 DUP3 ADD MLOAD DUP2 PUSH1 0xB ADD PUSH1 0x0 DUP3 ADD MLOAD DUP2 PUSH1 0x0 ADD SWAP1 DUP2 PUSH2 0x64B SWAP2 SWAP1 PUSH2 0x2DBD JUMP JUMPDEST POP POP POP SWAP1 POP POP DUP5 PUSH1 0x1 DUP6 PUSH1 0x40 MLOAD PUSH2 0x662 SWAP2 SWAP1 PUSH2 0x2B2E JUMP JUMPDEST SWAP1 DUP2 MSTORE PUSH1 0x20 ADD PUSH1 0x40 MLOAD DUP1 SWAP2 SUB SWAP1 KECCAK256 DUP2 SWAP1 SSTORE POP PUSH32 0x2DA7B23CA63C1EB969EEE5FAE4ACB98186ABECF5358B0354A82A5183EBCA6B2A DUP6 PUSH1 0x0 PUSH1 0x40 MLOAD PUSH2 0x6A6 SWAP3 SWAP2 SWAP1 PUSH2 0x2E8F JUMP JUMPDEST PUSH1 0x40 MLOAD DUP1 SWAP2 SUB SWAP1 LOG1 POP POP POP POP POP JUMP JUMPDEST PUSH1 0x2 PUSH1 0x0 SWAP1 SLOAD SWAP1 PUSH2 0x100 EXP SWAP1 DIV PUSH20 0xFFFFFFFFFFFFFFFFFFFFFFFFFFFFFFFFFFFFFFFF AND PUSH20 0xFFFFFFFFFFFFFFFFFFFFFFFFFFFFFFFFFFFFFFFF AND CALLER PUSH20 0xFFFFFFFFFFFFFFFFFFFFFFFFFFFFFFFFFFFFFFFF AND EQ PUSH2 0x745 JUMPI PUSH1 0x40 MLOAD PUSH32 0x8C379A000000000000000000000000000000000000000000000000000000000 DUP2 MSTORE PUSH1 0x4 ADD PUSH2 0x73C SWAP1 PUSH2 0x2AD2 JUMP JUMPDEST PUSH1 0x40 MLOAD DUP1 SWAP2 SUB SWAP1 REVERT JUMPDEST DUP3 PUSH1 0x1 DUP1 PUSH1 0x5 DUP2 GT ISZERO PUSH2 0x75B JUMPI PUSH2 0x75A PUSH2 0x2517 JUMP JUMPDEST JUMPDEST PUSH1 0x0 DUP1 DUP5 DUP2 MSTORE PUSH1 0x20 ADD SWAP1 DUP2 MSTORE PUSH1 0x20 ADD PUSH1 0x0 KECCAK256 PUSH1 0x4 ADD PUSH1 0x14 SWAP1 SLOAD SWAP1 PUSH2 0x100 EXP SWAP1 DIV PUSH1 0xFF AND PUSH1 0x5 DUP2 GT ISZERO PUSH2 0x790 JUMPI PUSH2 0x78F PUSH2 0x2517 JUMP JUMPDEST JUMPDEST EQ PUSH2 0x7D0 JUMPI PUSH1 0x40 MLOAD PUSH32 0x8C379A000000000000000000000000000000000000000000000000000000000 DUP2 MSTORE PUSH1 0x4 ADD PUSH2 0x7C7 SWAP1 PUSH2 0x2F04 JUMP JUMPDEST PUSH1 0x40 MLOAD DUP1 SWAP2 SUB SWAP1 REVERT JUMPDEST PUSH1 0x0 DUP1 PUSH1 0x0 DUP8 DUP2 MSTORE PUSH1 0x20 ADD SWAP1 DUP2 MSTORE PUSH1 0x20 ADD PUSH1 0x0 KECCAK256 PUSH1 0x5 ADD PUSH1 0x0 ADD DUP1 SLOAD PUSH2 0x7F5 SWAP1 PUSH2 0x2BE0 JUMP JUMPDEST SWAP1 POP GT PUSH2 0x837 JUMPI PUSH1 0x40 MLOAD PUSH32 0x8C379A000000000000000000000000000000000000000000000000000000000 DUP2 MSTORE PUSH1 0x4 ADD PUSH2 0x82E SWAP1 PUSH2 0x2F70 JUMP JUMPDEST PUSH1 0x40 MLOAD DUP1 SWAP2 SUB SWAP1 REVERT JUMPDEST PUSH1 0x0 PUSH20 0xFFFFFFFFFFFFFFFFFFFFFFFFFFFFFFFFFFFFFFFF AND DUP4 PUSH20 0xFFFFFFFFFFFFFFFFFFFFFFFFFFFFFFFFFFFFFFFF AND SUB PUSH2 0x8A6 JUMPI PUSH1 0x40 MLOAD PUSH32 0x8C379A000000000000000000000000000000000000000000000000000000000 DUP2 MSTORE PUSH1 0x4 ADD PUSH2 0x89D SWAP1 PUSH2 0x3002 JUMP JUMPDEST PUSH1 0x40 MLOAD DUP1 SWAP2 SUB SWAP1 REVERT JUMPDEST DUP3 PUSH1 0x0 DUP1 DUP8 DUP2 MSTORE PUSH1 0x20 ADD SWAP1 DUP2 MSTORE PUSH1 0x20 ADD PUSH1 0x0 KECCAK256 PUSH1 0x3 ADD PUSH1 0x0 PUSH2 0x100 EXP DUP2 SLOAD DUP2 PUSH20 0xFFFFFFFFFFFFFFFFFFFFFFFFFFFFFFFFFFFFFFFF MUL NOT AND SWAP1 DUP4 PUSH20 0xFFFFFFFFFFFFFFFFFFFFFFFFFFFFFFFFFFFFFFFF AND MUL OR SWAP1 SSTORE POP DUP4 PUSH1 0x0 DUP1 DUP8 DUP2 MSTORE PUSH1 0x20 ADD SWAP1 DUP2 MSTORE PUSH1 0x20 ADD PUSH1 0x0 KECCAK256 PUSH1 0x5 ADD PUSH1 0x2 ADD SWAP1 DUP2 PUSH2 0x91F SWAP2 SWAP1 PUSH2 0x2DBD JUMP JUMPDEST POP PUSH1 0x2 PUSH1 0x0 DUP1 DUP8 DUP2 MSTORE PUSH1 0x20 ADD SWAP1 DUP2 MSTORE PUSH1 0x20 ADD PUSH1 0x0 KECCAK256 PUSH1 0x4 ADD PUSH1 0x14 PUSH2 0x100 EXP DUP2 SLOAD DUP2 PUSH1 0xFF MUL NOT AND SWAP1 DUP4 PUSH1 0x5 DUP2 GT ISZERO PUSH2 0x959 JUMPI PUSH2 0x958 PUSH2 0x2517 JUMP JUMPDEST JUMPDEST MUL OR SWAP1 SSTORE POP PUSH32 0x2DA7B23CA63C1EB969EEE5FAE4ACB98186ABECF5358B0354A82A5183EBCA6B2A DUP6 PUSH1 0x2 PUSH1 0x40 MLOAD PUSH2 0x990 SWAP3 SWAP2 SWAP1 PUSH2 0x2E8F JUMP JUMPDEST PUSH1 0x40 MLOAD DUP1 SWAP2 SUB SWAP1 LOG1 POP POP POP POP POP JUMP JUMPDEST PUSH1 0x1 DUP2 DUP1 MLOAD PUSH1 0x20 DUP2 ADD DUP3 ADD DUP1 MLOAD DUP5 DUP3 MSTORE PUSH1 0x20 DUP4 ADD PUSH1 0x20 DUP6 ADD KECCAK256 DUP2 DUP4 MSTORE DUP1 SWAP6 POP POP POP POP POP POP PUSH1 0x0 SWAP2 POP SWAP1 POP SLOAD DUP2 JUMP JUMPDEST PUSH2 0x9D5 PUSH2 0x1FC7 JUMP JUMPDEST PUSH1 0x0 PUSH1 0x1 DUP4 PUSH1 0x40 MLOAD PUSH2 0x9E7 SWAP2 SWAP1 PUSH2 0x2B2E JUMP JUMPDEST SWAP1 DUP2 MSTORE PUSH1 0x20 ADD PUSH1 0x40 MLOAD DUP1 SWAP2 SUB SWAP1 KECCAK256 SLOAD SWAP1 POP PUSH1 0x0 DUP2 SUB PUSH2 0xA3B JUMPI PUSH1 0x40 MLOAD PUSH32 0x8C379A000000000000000000000000000000000000000000000000000000000 DUP2 MSTORE PUSH1 0x4 ADD PUSH2 0xA32 SWAP1 PUSH2 0x306E JUMP JUMPDEST PUSH1 0x40 MLOAD DUP1 SWAP2 SUB SWAP1 REVERT JUMPDEST PUSH1 0x0 DUP1 DUP3 DUP2 MSTORE PUSH1 0x20 ADD SWAP1 DUP2 MSTORE PUSH1 0x20 ADD PUSH1 0x0 KECCAK256 PUSH1 0x40 MLOAD DUP1 PUSH2 0x120 ADD PUSH1 0x40 MSTORE SWAP1 DUP2 PUSH1 0x0 DUP3 ADD DUP1 SLOAD PUSH2 0xA69 SWAP1 PUSH2 0x2BE0 JUMP JUMPDEST DUP1 PUSH1 0x1F ADD PUSH1 0x20 DUP1 SWAP2 DIV MUL PUSH1 0x20 ADD PUSH1 0x40 MLOAD SWAP1 DUP2 ADD PUSH1 0x40 MSTORE DUP1 SWAP3 SWAP2 SWAP1 DUP2 DUP2 MSTORE PUSH1 0x20 ADD DUP3 DUP1 SLOAD PUSH2 0xA95 SWAP1 PUSH2 0x2BE0 JUMP JUMPDEST DUP1 ISZERO PUSH2 0xAE2 JUMPI DUP1 PUSH1 0x1F LT PUSH2 0xAB7 JUMPI PUSH2 0x100 DUP1 DUP4 SLOAD DIV MUL DUP4 MSTORE SWAP2 PUSH1 0x20 ADD SWAP2 PUSH2 0xAE2 JUMP JUMPDEST DUP3 ADD SWAP2 SWAP1 PUSH1 0x0 MSTORE PUSH1 0x20 PUSH1 0x0 KECCAK256 SWAP1 JUMPDEST DUP2 SLOAD DUP2 MSTORE SWAP1 PUSH1 0x1 ADD SWAP1 PUSH1 0x20 ADD DUP1 DUP4 GT PUSH2 0xAC5 JUMPI DUP3 SWAP1 SUB PUSH1 0x1F AND DUP3 ADD SWAP2 JUMPDEST POP POP POP POP POP DUP2 MSTORE PUSH1 0x20 ADD PUSH1 0x1 DUP3 ADD SLOAD DUP2 MSTORE PUSH1 0x20 ADD PUSH1 0x2 DUP3 ADD PUSH1 0x0 SWAP1 SLOAD SWAP1 PUSH2 0x100 EXP SWAP1 DIV PUSH20 0xFFFFFFFFFFFFFFFFFFFFFFFFFFFFFFFFFFFFFFFF AND PUSH20 0xFFFFFFFFFFFFFFFFFFFFFFFFFFFFFFFFFFFFFFFF AND PUSH20 0xFFFFFFFFFFFFFFFFFFFFFFFFFFFFFFFFFFFFFFFF AND DUP2 MSTORE PUSH1 0x20 ADD PUSH1 0x3 DUP3 ADD PUSH1 0x0 SWAP1 SLOAD SWAP1 PUSH2 0x100 EXP SWAP1 DIV PUSH20 0xFFFFFFFFFFFFFFFFFFFFFFFFFFFFFFFFFFFFFFFF AND PUSH20 0xFFFFFFFFFFFFFFFFFFFFFFFFFFFFFFFFFFFFFFFF AND PUSH20 0xFFFFFFFFFFFFFFFFFFFFFFFFFFFFFFFFFFFFFFFF AND DUP2 MSTORE PUSH1 0x20 ADD PUSH1 0x4 DUP3 ADD PUSH1 0x0 SWAP1 SLOAD SWAP1 PUSH2 0x100 EXP SWAP1 DIV PUSH20 0xFFFFFFFFFFFFFFFFFFFFFFFFFFFFFFFFFFFFFFFF AND PUSH20 0xFFFFFFFFFFFFFFFFFFFFFFFFFFFFFFFFFFFFFFFF AND PUSH20 0xFFFFFFFFFFFFFFFFFFFFFFFFFFFFFFFFFFFFFFFF AND DUP2 MSTORE PUSH1 0x20 ADD PUSH1 0x4 DUP3 ADD PUSH1 0x14 SWAP1 SLOAD SWAP1 PUSH2 0x100 EXP SWAP1 DIV PUSH1 0xFF AND PUSH1 0x5 DUP2 GT ISZERO PUSH2 0xC1C JUMPI PUSH2 0xC1B PUSH2 0x2517 JUMP JUMPDEST JUMPDEST PUSH1 0x5 DUP2 GT ISZERO PUSH2 0xC2E JUMPI PUSH2 0xC2D PUSH2 0x2517 JUMP JUMPDEST JUMPDEST DUP2 MSTORE PUSH1 0x20 ADD PUSH1 0x4 DUP3 ADD PUSH1 0x15 SWAP1 SLOAD SWAP1 PUSH2 0x100 EXP SWAP1 DIV PUSH1 0x0 SIGNEXTEND PUSH1 0x0 SIGNEXTEND PUSH1 0x0 SIGNEXTEND DUP2 MSTORE PUSH1 0x20 ADD PUSH1 0x5 DUP3 ADD PUSH1 0x40 MLOAD DUP1 PUSH1 0xC0 ADD PUSH1 0x40 MSTORE SWAP1 DUP2 PUSH1 0x0 DUP3 ADD DUP1 SLOAD PUSH2 0xC6F SWAP1 PUSH2 0x2BE0 JUMP JUMPDEST DUP1 PUSH1 0x1F ADD PUSH1 0x20 DUP1 SWAP2 DIV MUL PUSH1 0x20 ADD PUSH1 0x40 MLOAD SWAP1 DUP2 ADD PUSH1 0x40 MSTORE DUP1 SWAP3 SWAP2 SWAP1 DUP2 DUP2 MSTORE PUSH1 0x20 ADD DUP3 DUP1 SLOAD PUSH2 0xC9B SWAP1 PUSH2 0x2BE0 JUMP JUMPDEST DUP1 ISZERO PUSH2 0xCE8 JUMPI DUP1 PUSH1 0x1F LT PUSH2 0xCBD JUMPI PUSH2 0x100 DUP1 DUP4 SLOAD DIV MUL DUP4 MSTORE SWAP2 PUSH1 0x20 ADD SWAP2 PUSH2 0xCE8 JUMP JUMPDEST DUP3 ADD SWAP2 SWAP1 PUSH1 0x0 MSTORE PUSH1 0x20 PUSH1 0x0 KECCAK256 SWAP1 JUMPDEST DUP2 SLOAD DUP2 MSTORE SWAP1 PUSH1 0x1 ADD SWAP1 PUSH1 0x20 ADD DUP1 DUP4 GT PUSH2 0xCCB JUMPI DUP3 SWAP1 SUB PUSH1 0x1F AND DUP3 ADD SWAP2 JUMPDEST POP POP POP POP POP DUP2 MSTORE PUSH1 0x20 ADD PUSH1 0x1 DUP3 ADD DUP1 SLOAD PUSH2 0xD01 SWAP1 PUSH2 0x2BE0 JUMP JUMPDEST DUP1 PUSH1 0x1F ADD PUSH1 0x20 DUP1 SWAP2 DIV MUL PUSH1 0x20 ADD PUSH1 0x40 MLOAD SWAP1 DUP2 ADD PUSH1 0x40 MSTORE DUP1 SWAP3 SWAP2 SWAP1 DUP2 DUP2 MSTORE PUSH1 0x20 ADD DUP3 DUP1 SLOAD PUSH2 0xD2D SWAP1 PUSH2 0x2BE0 JUMP JUMPDEST DUP1 ISZERO PUSH2 0xD7A JUMPI DUP1 PUSH1 0x1F LT PUSH2 0xD4F JUMPI PUSH2 0x100 DUP1 DUP4 SLOAD DIV MUL DUP4 MSTORE SWAP2 PUSH1 0x20 ADD SWAP2 PUSH2 0xD7A JUMP JUMPDEST DUP3 ADD SWAP2 SWAP1 PUSH1 0x0 MSTORE PUSH1 0x20 PUSH1 0x0 KECCAK256 SWAP1 JUMPDEST DUP2 SLOAD DUP2 MSTORE SWAP1 PUSH1 0x1 ADD SWAP1 PUSH1 0x20 ADD DUP1 DUP4 GT PUSH2 0xD5D JUMPI DUP3 SWAP1 SUB PUSH1 0x1F AND DUP3 ADD SWAP2 JUMPDEST POP POP POP POP POP DUP2 MSTORE PUSH1 0x20 ADD PUSH1 0x2 DUP3 ADD DUP1 SLOAD PUSH2 0xD93 SWAP1 PUSH2 0x2BE0 JUMP JUMPDEST DUP1 PUSH1 0x1F ADD PUSH1 0x20 DUP1 SWAP2 DIV MUL PUSH1 0x20 ADD PUSH1 0x40 MLOAD SWAP1 DUP2 ADD PUSH1 0x40 MSTORE DUP1 SWAP3 SWAP2 SWAP1 DUP2 DUP2 MSTORE PUSH1 0x20 ADD DUP3 DUP1 SLOAD PUSH2 0xDBF SWAP1 PUSH2 0x2BE0 JUMP JUMPDEST DUP1 ISZERO PUSH2 0xE0C JUMPI DUP1 PUSH1 0x1F LT PUSH2 0xDE1 JUMPI PUSH2 0x100 DUP1 DUP4 SLOAD DIV MUL DUP4 MSTORE SWAP2 PUSH1 0x20 ADD SWAP2 PUSH2 0xE0C JUMP JUMPDEST DUP3 ADD SWAP2 SWAP1 PUSH1 0x0 MSTORE PUSH1 0x20 PUSH1 0x0 KECCAK256 SWAP1 JUMPDEST DUP2 SLOAD DUP2 MSTORE SWAP1 PUSH1 0x1 ADD SWAP1 PUSH1 0x20 ADD DUP1 DUP4 GT PUSH2 0xDEF JUMPI DUP3 SWAP1 SUB PUSH1 0x1F AND DUP3 ADD SWAP2 JUMPDEST POP POP POP POP POP DUP2 MSTORE PUSH1 0x20 ADD PUSH1 0x3 DUP3 ADD DUP1 SLOAD PUSH2 0xE25 SWAP1 PUSH2 0x2BE0 JUMP JUMPDEST DUP1 PUSH1 0x1F ADD PUSH1 0x20 DUP1 SWAP2 DIV MUL PUSH1 0x20 ADD PUSH1 0x40 MLOAD SWAP1 DUP2 ADD PUSH1 0x40 MSTORE DUP1 SWAP3 SWAP2 SWAP1 DUP2 DUP2 MSTORE PUSH1 0x20 ADD DUP3 DUP1 SLOAD PUSH2 0xE51 SWAP1 PUSH2 0x2BE0 JUMP JUMPDEST DUP1 ISZERO PUSH2 0xE9E JUMPI DUP1 PUSH1 0x1F LT PUSH2 0xE73 JUMPI PUSH2 0x100 DUP1 DUP4 SLOAD DIV MUL DUP4 MSTORE SWAP2 PUSH1 0x20 ADD SWAP2 PUSH2 0xE9E JUMP JUMPDEST DUP3 ADD SWAP2 SWAP1 PUSH1 0x0 MSTORE PUSH1 0x20 PUSH1 0x0 KECCAK256 SWAP1 JUMPDEST DUP2 SLOAD DUP2 MSTORE SWAP1 PUSH1 0x1 ADD SWAP1 PUSH1 0x20 ADD DUP1 DUP4 GT PUSH2 0xE81 JUMPI DUP3 SWAP1 SUB PUSH1 0x1F AND DUP3 ADD SWAP2 JUMPDEST POP POP POP POP POP DUP2 MSTORE PUSH1 0x20 ADD PUSH1 0x4 DUP3 ADD DUP1 SLOAD PUSH2 0xEB7 SWAP1 PUSH2 0x2BE0 JUMP JUMPDEST DUP1 PUSH1 0x1F ADD PUSH1 0x20 DUP1 SWAP2 DIV MUL PUSH1 0x20 ADD PUSH1 0x40 MLOAD SWAP1 DUP2 ADD PUSH1 0x40 MSTORE DUP1 SWAP3 SWAP2 SWAP1 DUP2 DUP2 MSTORE PUSH1 0x20 ADD DUP3 DUP1 SLOAD PUSH2 0xEE3 SWAP1 PUSH2 0x2BE0 JUMP JUMPDEST DUP1 ISZERO PUSH2 0xF30 JUMPI DUP1 PUSH1 0x1F LT PUSH2 0xF05 JUMPI PUSH2 0x100 DUP1 DUP4 SLOAD DIV MUL DUP4 MSTORE SWAP2 PUSH1 0x20 ADD SWAP2 PUSH2 0xF30 JUMP JUMPDEST DUP3 ADD SWAP2 SWAP1 PUSH1 0x0 MSTORE PUSH1 0x20 PUSH1 0x0 KECCAK256 SWAP1 JUMPDEST DUP2 SLOAD DUP2 MSTORE SWAP1 PUSH1 0x1 ADD SWAP1 PUSH1 0x20 ADD DUP1 DUP4 GT PUSH2 0xF13 JUMPI DUP3 SWAP1 SUB PUSH1 0x1F AND DUP3 ADD SWAP2 JUMPDEST POP POP POP POP POP DUP2 MSTORE PUSH1 0x20 ADD PUSH1 0x5 DUP3 ADD DUP1 SLOAD PUSH2 0xF49 SWAP1 PUSH2 0x2BE0 JUMP JUMPDEST DUP1 PUSH1 0x1F ADD PUSH1 0x20 DUP1 SWAP2 DIV MUL PUSH1 0x20 ADD PUSH1 0x40 MLOAD SWAP1 DUP2 ADD PUSH1 0x40 MSTORE DUP1 SWAP3 SWAP2 SWAP1 DUP2 DUP2 MSTORE PUSH1 0x20 ADD DUP3 DUP1 SLOAD PUSH2 0xF75 SWAP1 PUSH2 0x2BE0 JUMP JUMPDEST DUP1 ISZERO PUSH2 0xFC2 JUMPI DUP1 PUSH1 0x1F LT PUSH2 0xF97 JUMPI PUSH2 0x100 DUP1 DUP4 SLOAD DIV MUL DUP4 MSTORE SWAP2 PUSH1 0x20 ADD SWAP2 PUSH2 0xFC2 JUMP JUMPDEST DUP3 ADD SWAP2 SWAP1 PUSH1 0x0 MSTORE PUSH1 0x20 PUSH1 0x0 KECCAK256 SWAP1 JUMPDEST DUP2 SLOAD DUP2 MSTORE SWAP1 PUSH1 0x1 ADD SWAP1 PUSH1 0x20 ADD DUP1 DUP4 GT PUSH2 0xFA5 JUMPI DUP3 SWAP1 SUB PUSH1 0x1F AND DUP3 ADD SWAP2 JUMPDEST POP POP POP POP POP DUP2 MSTORE POP POP DUP2 MSTORE PUSH1 0x20 ADD PUSH1 0xB DUP3 ADD PUSH1 0x40 MLOAD DUP1 PUSH1 0x20 ADD PUSH1 0x40 MSTORE SWAP1 DUP2 PUSH1 0x0 DUP3 ADD DUP1 SLOAD PUSH2 0xFEF SWAP1 PUSH2 0x2BE0 JUMP JUMPDEST DUP1 PUSH1 0x1F ADD PUSH1 0x20 DUP1 SWAP2 DIV MUL PUSH1 0x20 ADD PUSH1 0x40 MLOAD SWAP1 DUP2 ADD PUSH1 0x40 MSTORE DUP1 SWAP3 SWAP2 SWAP1 DUP2 DUP2 MSTORE PUSH1 0x20 ADD DUP3 DUP1 SLOAD PUSH2 0x101B SWAP1 PUSH2 0x2BE0 JUMP JUMPDEST DUP1 ISZERO PUSH2 0x1068 JUMPI DUP1 PUSH1 0x1F LT PUSH2 0x103D JUMPI PUSH2 0x100 DUP1 DUP4 SLOAD DIV MUL DUP4 MSTORE SWAP2 PUSH1 0x20 ADD SWAP2 PUSH2 0x1068 JUMP JUMPDEST DUP3 ADD SWAP2 SWAP1 PUSH1 0x0 MSTORE PUSH1 0x20 PUSH1 0x0 KECCAK256 SWAP1 JUMPDEST DUP2 SLOAD DUP2 MSTORE SWAP1 PUSH1 0x1 ADD SWAP1 PUSH1 0x20 ADD DUP1 DUP4 GT PUSH2 0x104B JUMPI DUP3 SWAP1 SUB PUSH1 0x1F AND DUP3 ADD SWAP2 JUMPDEST POP POP POP POP POP DUP2 MSTORE POP POP DUP2 MSTORE POP POP SWAP2 POP POP SWAP2 SWAP1 POP JUMP JUMPDEST PUSH1 0x2 PUSH1 0x0 SWAP1 SLOAD SWAP1 PUSH2 0x100 EXP SWAP1 DIV PUSH20 0xFFFFFFFFFFFFFFFFFFFFFFFFFFFFFFFFFFFFFFFF AND PUSH20 0xFFFFFFFFFFFFFFFFFFFFFFFFFFFFFFFFFFFFFFFF AND CALLER PUSH20 0xFFFFFFFFFFFFFFFFFFFFFFFFFFFFFFFFFFFFFFFF AND EQ PUSH2 0x110D JUMPI PUSH1 0x40 MLOAD PUSH32 0x8C379A000000000000000000000000000000000000000000000000000000000 DUP2 MSTORE PUSH1 0x4 ADD PUSH2 0x1104 SWAP1 PUSH2 0x2AD2 JUMP JUMPDEST PUSH1 0x40 MLOAD DUP1 SWAP2 SUB SWAP1 REVERT JUMPDEST DUP2 PUSH1 0x0 DUP1 PUSH1 0x5 DUP2 GT ISZERO PUSH2 0x1123 JUMPI PUSH2 0x1122 PUSH2 0x2517 JUMP JUMPDEST JUMPDEST PUSH1 0x0 DUP1 DUP5 DUP2 MSTORE PUSH1 0x20 ADD SWAP1 DUP2 MSTORE PUSH1 0x20 ADD PUSH1 0x0 KECCAK256 PUSH1 0x4 ADD PUSH1 0x14 SWAP1 SLOAD SWAP1 PUSH2 0x100 EXP SWAP1 DIV PUSH1 0xFF AND PUSH1 0x5 DUP2 GT ISZERO PUSH2 0x1158 JUMPI PUSH2 0x1157 PUSH2 0x2517 JUMP JUMPDEST JUMPDEST EQ PUSH2 0x1198 JUMPI PUSH1 0x40 MLOAD PUSH32 0x8C379A000000000000000000000000000000000000000000000000000000000 DUP2 MSTORE PUSH1 0x4 ADD PUSH2 0x118F SWAP1 PUSH2 0x2F04 JUMP JUMPDEST PUSH1 0x40 MLOAD DUP1 SWAP2 SUB SWAP1 REVERT JUMPDEST PUSH1 0x0 DUP1 PUSH1 0x0 DUP7 DUP2 MSTORE PUSH1 0x20 ADD SWAP1 DUP2 MSTORE PUSH1 0x20 ADD PUSH1 0x0 KECCAK256 PUSH1 0x5 ADD PUSH1 0x0 ADD DUP1 SLOAD PUSH2 0x11BD SWAP1 PUSH2 0x2BE0 JUMP JUMPDEST SWAP1 POP GT PUSH2 0x11FF JUMPI PUSH1 0x40 MLOAD PUSH32 0x8C379A000000000000000000000000000000000000000000000000000000000 DUP2 MSTORE PUSH1 0x4 ADD PUSH2 0x11F6 SWAP1 PUSH2 0x2F70 JUMP JUMPDEST PUSH1 0x40 MLOAD DUP1 SWAP2 SUB SWAP1 REVERT JUMPDEST DUP3 PUSH1 0x0 DUP1 DUP7 DUP2 MSTORE PUSH1 0x20 ADD SWAP1 DUP2 MSTORE PUSH1 0x20 ADD PUSH1 0x0 KECCAK256 PUSH1 0x5 ADD PUSH1 0x1 ADD SWAP1 DUP2 PUSH2 0x1224 SWAP2 SWAP1 PUSH2 0x2DBD JUMP JUMPDEST POP PUSH1 0x1 PUSH1 0x0 DUP1 DUP7 DUP2 MSTORE PUSH1 0x20 ADD SWAP1 DUP2 MSTORE PUSH1 0x20 ADD PUSH1 0x0 KECCAK256 PUSH1 0x4 ADD PUSH1 0x14 PUSH2 0x100 EXP DUP2 SLOAD DUP2 PUSH1 0xFF MUL NOT AND SWAP1 DUP4 PUSH1 0x5 DUP2 GT ISZERO PUSH2 0x125E JUMPI PUSH2 0x125D PUSH2 0x2517 JUMP JUMPDEST JUMPDEST MUL OR SWAP1 SSTORE POP PUSH32 0x2DA7B23CA63C1EB969EEE5FAE4ACB98186ABECF5358B0354A82A5183EBCA6B2A DUP5 PUSH1 0x1 PUSH1 0x40 MLOAD PUSH2 0x1295 SWAP3 SWAP2 SWAP1 PUSH2 0x2E8F JUMP JUMPDEST PUSH1 0x40 MLOAD DUP1 SWAP2 SUB SWAP1 LOG1 POP POP POP POP JUMP JUMPDEST PUSH1 0x2 PUSH1 0x0 SWAP1 SLOAD SWAP1 PUSH2 0x100 EXP SWAP1 DIV PUSH20 0xFFFFFFFFFFFFFFFFFFFFFFFFFFFFFFFFFFFFFFFF AND DUP2 JUMP JUMPDEST DUP2 PUSH1 0x0 DUP1 DUP3 DUP2 MSTORE PUSH1 0x20 ADD SWAP1 DUP2 MSTORE PUSH1 0x20 ADD PUSH1 0x0 KECCAK256 PUSH1 0x3 ADD PUSH1 0x0 SWAP1 SLOAD SWAP1 PUSH2 0x100 EXP SWAP1 DIV PUSH20 0xFFFFFFFFFFFFFFFFFFFFFFFFFFFFFFFFFFFFFFFF AND PUSH20 0xFFFFFFFFFFFFFFFFFFFFFFFFFFFFFFFFFFFFFFFF AND CALLER PUSH20 0xFFFFFFFFFFFFFFFFFFFFFFFFFFFFFFFFFFFFFFFF AND EQ PUSH2 0x136D JUMPI PUSH1 0x40 MLOAD PUSH32 0x8C379A000000000000000000000000000000000000000000000000000000000 DUP2 MSTORE PUSH1 0x4 ADD PUSH2 0x1364 SWAP1 PUSH2 0x30DA JUMP JUMPDEST PUSH1 0x40 MLOAD DUP1 SWAP2 SUB SWAP1 REVERT JUMPDEST DUP3 PUSH1 0x2 DUP1 PUSH1 0x5 DUP2 GT ISZERO PUSH2 0x1383 JUMPI PUSH2 0x1382 PUSH2 0x2517 JUMP JUMPDEST JUMPDEST PUSH1 0x0 DUP1 DUP5 DUP2 MSTORE PUSH1 0x20 ADD SWAP1 DUP2 MSTORE PUSH1 0x20 ADD PUSH1 0x0 KECCAK256 PUSH1 0x4 ADD PUSH1 0x14 SWAP1 SLOAD SWAP1 PUSH2 0x100 EXP SWAP1 DIV PUSH1 0xFF AND PUSH1 0x5 DUP2 GT ISZERO PUSH2 0x13B8 JUMPI PUSH2 0x13B7 PUSH2 0x2517 JUMP JUMPDEST JUMPDEST EQ PUSH2 0x13F8 JUMPI PUSH1 0x40 MLOAD PUSH32 0x8C379A000000000000000000000000000000000000000000000000000000000 DUP2 MSTORE PUSH1 0x4 ADD PUSH2 0x13EF SWAP1 PUSH2 0x2F04 JUMP JUMPDEST PUSH1 0x40 MLOAD DUP1 SWAP2 SUB SWAP1 REVERT JUMPDEST PUSH1 0x0 DUP1 PUSH1 0x0 DUP8 DUP2 MSTORE PUSH1 0x20 ADD SWAP1 DUP2 MSTORE PUSH1 0x20 ADD PUSH1 0x0 KECCAK256 PUSH1 0x5 ADD PUSH1 0x0 ADD DUP1 SLOAD PUSH2 0x141D SWAP1 PUSH2 0x2BE0 JUMP JUMPDEST SWAP1 POP GT PUSH2 0x145F JUMPI PUSH1 0x40 MLOAD PUSH32 0x8C379A000000000000000000000000000000000000000000000000000000000 DUP2 MSTORE PUSH1 0x4 ADD PUSH2 0x1456 SWAP1 PUSH2 0x2F70 JUMP JUMPDEST PUSH1 0x40 MLOAD DUP1 SWAP2 SUB SWAP1 REVERT JUMPDEST DUP4 PUSH1 0x0 DUP1 DUP8 DUP2 MSTORE PUSH1 0x20 ADD SWAP1 DUP2 MSTORE PUSH1 0x20 ADD PUSH1 0x0 KECCAK256 PUSH1 0x5 ADD PUSH1 0x3 ADD SWAP1 DUP2 PUSH2 0x1484 SWAP2 SWAP1 PUSH2 0x2DBD JUMP JUMPDEST POP PUSH1 0x3 PUSH1 0x0 DUP1 DUP8 DUP2 MSTORE PUSH1 0x20 ADD SWAP1 DUP2 MSTORE PUSH1 0x20 ADD PUSH1 0x0 KECCAK256 PUSH1 0x4 ADD PUSH1 0x14 PUSH2 0x100 EXP DUP2 SLOAD DUP2 PUSH1 0xFF MUL NOT AND SWAP1 DUP4 PUSH1 0x5 DUP2 GT ISZERO PUSH2 0x14BE JUMPI PUSH2 0x14BD PUSH2 0x2517 JUMP JUMPDEST JUMPDEST MUL OR SWAP1 SSTORE POP PUSH32 0x2DA7B23CA63C1EB969EEE5FAE4ACB98186ABECF5358B0354A82A5183EBCA6B2A DUP6 PUSH1 0x3 PUSH1 0x40 MLOAD PUSH2 0x14F5 SWAP3 SWAP2 SWAP1 PUSH2 0x2E8F JUMP JUMPDEST PUSH1 0x40 MLOAD DUP1 SWAP2 SUB SWAP1 LOG1 POP POP POP POP POP JUMP JUMPDEST DUP3 PUSH1 0x0 DUP1 DUP3 DUP2 MSTORE PUSH1 0x20 ADD SWAP1 DUP2 MSTORE PUSH1 0x20 ADD PUSH1 0x0 KECCAK256 PUSH1 0x3 ADD PUSH1 0x0 SWAP1 SLOAD SWAP1 PUSH2 0x100 EXP SWAP1 DIV PUSH20 0xFFFFFFFFFFFFFFFFFFFFFFFFFFFFFFFFFFFFFFFF AND PUSH20 0xFFFFFFFFFFFFFFFFFFFFFFFFFFFFFFFFFFFFFFFF AND CALLER PUSH20 0xFFFFFFFFFFFFFFFFFFFFFFFFFFFFFFFFFFFFFFFF AND EQ PUSH2 0x15A8 JUMPI PUSH1 0x40 MLOAD PUSH32 0x8C379A000000000000000000000000000000000000000000000000000000000 DUP2 MSTORE PUSH1 0x4 ADD PUSH2 0x159F SWAP1 PUSH2 0x30DA JUMP JUMPDEST PUSH1 0x40 MLOAD DUP1 SWAP2 SUB SWAP1 REVERT JUMPDEST DUP4 PUSH1 0x3 DUP1 PUSH1 0x5 DUP2 GT ISZERO PUSH2 0x15BE JUMPI PUSH2 0x15BD PUSH2 0x2517 JUMP JUMPDEST JUMPDEST PUSH1 0x0 DUP1 DUP5 DUP2 MSTORE PUSH1 0x20 ADD SWAP1 DUP2 MSTORE PUSH1 0x20 ADD PUSH1 0x0 KECCAK256 PUSH1 0x4 ADD PUSH1 0x14 SWAP1 SLOAD SWAP1 PUSH2 0x100 EXP SWAP1 DIV PUSH1 0xFF AND PUSH1 0x5 DUP2 GT ISZERO PUSH2 0x15F3 JUMPI PUSH2 0x15F2 PUSH2 0x2517 JUMP JUMPDEST JUMPDEST EQ PUSH2 0x1633 JUMPI PUSH1 0x40 MLOAD PUSH32 0x8C379A000000000000000000000000000000000000000000000000000000000 DUP2 MSTORE PUSH1 0x4 ADD PUSH2 0x162A SWAP1 PUSH2 0x2F04 JUMP JUMPDEST PUSH1 0x40 MLOAD DUP1 SWAP2 SUB SWAP1 REVERT JUMPDEST PUSH1 0x0 DUP1 PUSH1 0x0 DUP9 DUP2 MSTORE PUSH1 0x20 ADD SWAP1 DUP2 MSTORE PUSH1 0x20 ADD PUSH1 0x0 KECCAK256 PUSH1 0x5 ADD PUSH1 0x0 ADD DUP1 SLOAD PUSH2 0x1658 SWAP1 PUSH2 0x2BE0 JUMP JUMPDEST SWAP1 POP GT PUSH2 0x169A JUMPI PUSH1 0x40 MLOAD PUSH32 0x8C379A000000000000000000000000000000000000000000000000000000000 DUP2 MSTORE PUSH1 0x4 ADD PUSH2 0x1691 SWAP1 PUSH2 0x2F70 JUMP JUMPDEST PUSH1 0x40 MLOAD DUP1 SWAP2 SUB SWAP1 REVERT JUMPDEST DUP5 PUSH1 0x0 DUP1 DUP9 DUP2 MSTORE PUSH1 0x20 ADD SWAP1 DUP2 MSTORE PUSH1 0x20 ADD PUSH1 0x0 KECCAK256 PUSH1 0xB ADD PUSH1 0x0 ADD SWAP1 DUP2 PUSH2 0x16BF SWAP2 SWAP1 PUSH2 0x2DBD JUMP JUMPDEST POP DUP4 PUSH1 0x0 DUP1 DUP9 DUP2 MSTORE PUSH1 0x20 ADD SWAP1 DUP2 MSTORE PUSH1 0x20 ADD PUSH1 0x0 KECCAK256 PUSH1 0x5 ADD PUSH1 0x5 ADD SWAP1 DUP2 PUSH2 0x16E5 SWAP2 SWAP1 PUSH2 0x2DBD JUMP JUMPDEST POP PUSH1 0x4 PUSH1 0x0 DUP1 DUP9 DUP2 MSTORE PUSH1 0x20 ADD SWAP1 DUP2 MSTORE PUSH1 0x20 ADD PUSH1 0x0 KECCAK256 PUSH1 0x4 ADD PUSH1 0x14 PUSH2 0x100 EXP DUP2 SLOAD DUP2 PUSH1 0xFF MUL NOT AND SWAP1 DUP4 PUSH1 0x5 DUP2 GT ISZERO PUSH2 0x171F JUMPI PUSH2 0x171E PUSH2 0x2517 JUMP JUMPDEST JUMPDEST MUL OR SWAP1 SSTORE POP PUSH32 0x2DA7B23CA63C1EB969EEE5FAE4ACB98186ABECF5358B0354A82A5183EBCA6B2A DUP7 PUSH1 0x4 PUSH1 0x40 MLOAD PUSH2 0x1756 SWAP3 SWAP2 SWAP1 PUSH2 0x2E8F JUMP JUMPDEST PUSH1 0x40 MLOAD DUP1 SWAP2 SUB SWAP1 LOG1 POP POP POP POP POP POP JUMP JUMPDEST PUSH1 0x0 PUSH1 0x20 MSTORE DUP1 PUSH1 0x0 MSTORE PUSH1 0x40 PUSH1 0x0 KECCAK256 PUSH1 0x0 SWAP2 POP SWAP1 POP DUP1 PUSH1 0x0 ADD DUP1 SLOAD PUSH2 0x1789 SWAP1 PUSH2 0x2BE0 JUMP JUMPDEST DUP1 PUSH1 0x1F ADD PUSH1 0x20 DUP1 SWAP2 DIV MUL PUSH1 0x20 ADD PUSH1 0x40 MLOAD SWAP1 DUP2 ADD PUSH1 0x40 MSTORE DUP1 SWAP3 SWAP2 SWAP1 DUP2 DUP2 MSTORE PUSH1 0x20 ADD DUP3 DUP1 SLOAD PUSH2 0x17B5 SWAP1 PUSH2 0x2BE0 JUMP JUMPDEST DUP1 ISZERO PUSH2 0x1802 JUMPI DUP1 PUSH1 0x1F LT PUSH2 0x17D7 JUMPI PUSH2 0x100 DUP1 DUP4 SLOAD DIV MUL DUP4 MSTORE SWAP2 PUSH1 0x20 ADD SWAP2 PUSH2 0x1802 JUMP JUMPDEST DUP3 ADD SWAP2 SWAP1 PUSH1 0x0 MSTORE PUSH1 0x20 PUSH1 0x0 KECCAK256 SWAP1 JUMPDEST DUP2 SLOAD DUP2 MSTORE SWAP1 PUSH1 0x1 ADD SWAP1 PUSH1 0x20 ADD DUP1 DUP4 GT PUSH2 0x17E5 JUMPI DUP3 SWAP1 SUB PUSH1 0x1F AND DUP3 ADD SWAP2 JUMPDEST POP POP POP POP POP SWAP1 DUP1 PUSH1 0x1 ADD SLOAD SWAP1 DUP1 PUSH1 0x2 ADD PUSH1 0x0 SWAP1 SLOAD SWAP1 PUSH2 0x100 EXP SWAP1 DIV PUSH20 0xFFFFFFFFFFFFFFFFFFFFFFFFFFFFFFFFFFFFFFFF AND SWAP1 DUP1 PUSH1 0x3 ADD PUSH1 0x0 SWAP1 SLOAD SWAP1 PUSH2 0x100 EXP SWAP1 DIV PUSH20 0xFFFFFFFFFFFFFFFFFFFFFFFFFFFFFFFFFFFFFFFF AND SWAP1 DUP1 PUSH1 0x4 ADD PUSH1 0x0 SWAP1 SLOAD SWAP1 PUSH2 0x100 EXP SWAP1 DIV PUSH20 0xFFFFFFFFFFFFFFFFFFFFFFFFFFFFFFFFFFFFFFFF AND SWAP1 DUP1 PUSH1 0x4 ADD PUSH1 0x14 SWAP1 SLOAD SWAP1 PUSH2 0x100 EXP SWAP1 DIV PUSH1 0xFF AND SWAP1 DUP1 PUSH1 0x4 ADD PUSH1 0x15 SWAP1 SLOAD SWAP1 PUSH2 0x100 EXP SWAP1 DIV PUSH1 0x0 SIGNEXTEND SWAP1 DUP1 PUSH1 0x5 ADD PUSH1 0x40 MLOAD DUP1 PUSH1 0xC0 ADD PUSH1 0x40 MSTORE SWAP1 DUP2 PUSH1 0x0 DUP3 ADD DUP1 SLOAD PUSH2 0x18C5 SWAP1 PUSH2 0x2BE0 JUMP JUMPDEST DUP1 PUSH1 0x1F ADD PUSH1 0x20 DUP1 SWAP2 DIV MUL PUSH1 0x20 ADD PUSH1 0x40 MLOAD SWAP1 DUP2 ADD PUSH1 0x40 MSTORE DUP1 SWAP3 SWAP2 SWAP1 DUP2 DUP2 MSTORE PUSH1 0x20 ADD DUP3 DUP1 SLOAD PUSH2 0x18F1 SWAP1 PUSH2 0x2BE0 JUMP JUMPDEST DUP1 ISZERO PUSH2 0x193E JUMPI DUP1 PUSH1 0x1F LT PUSH2 0x1913 JUMPI PUSH2 0x100 DUP1 DUP4 SLOAD DIV MUL DUP4 MSTORE SWAP2 PUSH1 0x20 ADD SWAP2 PUSH2 0x193E JUMP JUMPDEST DUP3 ADD SWAP2 SWAP1 PUSH1 0x0 MSTORE PUSH1 0x20 PUSH1 0x0 KECCAK256 SWAP1 JUMPDEST DUP2 SLOAD DUP2 MSTORE SWAP1 PUSH1 0x1 ADD SWAP1 PUSH1 0x20 ADD DUP1 DUP4 GT PUSH2 0x1921 JUMPI DUP3 SWAP1 SUB PUSH1 0x1F AND DUP3 ADD SWAP2 JUMPDEST POP POP POP POP POP DUP2 MSTORE PUSH1 0x20 ADD PUSH1 0x1 DUP3 ADD DUP1 SLOAD PUSH2 0x1957 SWAP1 PUSH2 0x2BE0 JUMP JUMPDEST DUP1 PUSH1 0x1F ADD PUSH1 0x20 DUP1 SWAP2 DIV MUL PUSH1 0x20 ADD PUSH1 0x40 MLOAD SWAP1 DUP2 ADD PUSH1 0x40 MSTORE DUP1 SWAP3 SWAP2 SWAP1 DUP2 DUP2 MSTORE PUSH1 0x20 ADD DUP3 DUP1 SLOAD PUSH2 0x1983 SWAP1 PUSH2 0x2BE0 JUMP JUMPDEST DUP1 ISZERO PUSH2 0x19D0 JUMPI DUP1 PUSH1 0x1F LT PUSH2 0x19A5 JUMPI PUSH2 0x100 DUP1 DUP4 SLOAD DIV MUL DUP4 MSTORE SWAP2 PUSH1 0x20 ADD SWAP2 PUSH2 0x19D0 JUMP JUMPDEST DUP3 ADD SWAP2 SWAP1 PUSH1 0x0 MSTORE PUSH1 0x20 PUSH1 0x0 KECCAK256 SWAP1 JUMPDEST DUP2 SLOAD DUP2 MSTORE SWAP1 PUSH1 0x1 ADD SWAP1 PUSH1 0x20 ADD DUP1 DUP4 GT PUSH2 0x19B3 JUMPI DUP3 SWAP1 SUB PUSH1 0x1F AND DUP3 ADD SWAP2 JUMPDEST POP POP POP POP POP DUP2 MSTORE PUSH1 0x20 ADD PUSH1 0x2 DUP3 ADD DUP1 SLOAD PUSH2 0x19E9 SWAP1 PUSH2 0x2BE0 JUMP JUMPDEST DUP1 PUSH1 0x1F ADD PUSH1 0x20 DUP1 SWAP2 DIV MUL PUSH1 0x20 ADD PUSH1 0x40 MLOAD SWAP1 DUP2 ADD PUSH1 0x40 MSTORE DUP1 SWAP3 SWAP2 SWAP1 DUP2 DUP2 MSTORE PUSH1 0x20 ADD DUP3 DUP1 SLOAD PUSH2 0x1A15 SWAP1 PUSH2 0x2BE0 JUMP JUMPDEST DUP1 ISZERO PUSH2 0x1A62 JUMPI DUP1 PUSH1 0x1F LT PUSH2 0x1A37 JUMPI PUSH2 0x100 DUP1 DUP4 SLOAD DIV MUL DUP4 MSTORE SWAP2 PUSH1 0x20 ADD SWAP2 PUSH2 0x1A62 JUMP JUMPDEST DUP3 ADD SWAP2 SWAP1 PUSH1 0x0 MSTORE PUSH1 0x20 PUSH1 0x0 KECCAK256 SWAP1 JUMPDEST DUP2 SLOAD DUP2 MSTORE SWAP1 PUSH1 0x1 ADD SWAP1 PUSH1 0x20 ADD DUP1 DUP4 GT PUSH2 0x1A45 JUMPI DUP3 SWAP1 SUB PUSH1 0x1F AND DUP3 ADD SWAP2 JUMPDEST POP POP POP POP POP DUP2 MSTORE PUSH1 0x20 ADD PUSH1 0x3 DUP3 ADD DUP1 SLOAD PUSH2 0x1A7B SWAP1 PUSH2 0x2BE0 JUMP JUMPDEST DUP1 PUSH1 0x1F ADD PUSH1 0x20 DUP1 SWAP2 DIV MUL PUSH1 0x20 ADD PUSH1 0x40 MLOAD SWAP1 DUP2 ADD PUSH1 0x40 MSTORE DUP1 SWAP3 SWAP2 SWAP1 DUP2 DUP2 MSTORE PUSH1 0x20 ADD DUP3 DUP1 SLOAD PUSH2 0x1AA7 SWAP1 PUSH2 0x2BE0 JUMP JUMPDEST DUP1 ISZERO PUSH2 0x1AF4 JUMPI DUP1 PUSH1 0x1F LT PUSH2 0x1AC9 JUMPI PUSH2 0x100 DUP1 DUP4 SLOAD DIV MUL DUP4 MSTORE SWAP2 PUSH1 0x20 ADD SWAP2 PUSH2 0x1AF4 JUMP JUMPDEST DUP3 ADD SWAP2 SWAP1 PUSH1 0x0 MSTORE PUSH1 0x20 PUSH1 0x0 KECCAK256 SWAP1 JUMPDEST DUP2 SLOAD DUP2 MSTORE SWAP1 PUSH1 0x1 ADD SWAP1 PUSH1 0x20 ADD DUP1 DUP4 GT PUSH2 0x1AD7 JUMPI DUP3 SWAP1 SUB PUSH1 0x1F AND DUP3 ADD SWAP2 JUMPDEST POP POP POP POP POP DUP2 MSTORE PUSH1 0x20 ADD PUSH1 0x4 DUP3 ADD DUP1 SLOAD PUSH2 0x1B0D SWAP1 PUSH2 0x2BE0 JUMP JUMPDEST DUP1 PUSH1 0x1F ADD PUSH1 0x20 DUP1 SWAP2 DIV MUL PUSH1 0x20 ADD PUSH1 0x40 MLOAD SWAP1 DUP2 ADD PUSH1 0x40 MSTORE DUP1 SWAP3 SWAP2 SWAP1 DUP2 DUP2 MSTORE PUSH1 0x20 ADD DUP3 DUP1 SLOAD PUSH2 0x1B39 SWAP1 PUSH2 0x2BE0 JUMP JUMPDEST DUP1 ISZERO PUSH2 0x1B86 JUMPI DUP1 PUSH1 0x1F LT PUSH2 0x1B5B JUMPI PUSH2 0x100 DUP1 DUP4 SLOAD DIV MUL DUP4 MSTORE SWAP2 PUSH1 0x20 ADD SWAP2 PUSH2 0x1B86 JUMP JUMPDEST DUP3 ADD SWAP2 SWAP1 PUSH1 0x0 MSTORE PUSH1 0x20 PUSH1 0x0 KECCAK256 SWAP1 JUMPDEST DUP2 SLOAD DUP2 MSTORE SWAP1 PUSH1 0x1 ADD SWAP1 PUSH1 0x20 ADD DUP1 DUP4 GT PUSH2 0x1B69 JUMPI DUP3 SWAP1 SUB PUSH1 0x1F AND DUP3 ADD SWAP2 JUMPDEST POP POP POP POP POP DUP2 MSTORE PUSH1 0x20 ADD PUSH1 0x5 DUP3 ADD DUP1 SLOAD PUSH2 0x1B9F SWAP1 PUSH2 0x2BE0 JUMP JUMPDEST DUP1 PUSH1 0x1F ADD PUSH1 0x20 DUP1 SWAP2 DIV MUL PUSH1 0x20 ADD PUSH1 0x40 MLOAD SWAP1 DUP2 ADD PUSH1 0x40 MSTORE DUP1 SWAP3 SWAP2 SWAP1 DUP2 DUP2 MSTORE PUSH1 0x20 ADD DUP3 DUP1 SLOAD PUSH2 0x1BCB SWAP1 PUSH2 0x2BE0 JUMP JUMPDEST DUP1 ISZERO PUSH2 0x1C18 JUMPI DUP1 PUSH1 0x1F LT PUSH2 0x1BED JUMPI PUSH2 0x100 DUP1 DUP4 SLOAD DIV MUL DUP4 MSTORE SWAP2 PUSH1 0x20 ADD SWAP2 PUSH2 0x1C18 JUMP JUMPDEST DUP3 ADD SWAP2 SWAP1 PUSH1 0x0 MSTORE PUSH1 0x20 PUSH1 0x0 KECCAK256 SWAP1 JUMPDEST DUP2 SLOAD DUP2 MSTORE SWAP1 PUSH1 0x1 ADD SWAP1 PUSH1 0x20 ADD DUP1 DUP4 GT PUSH2 0x1BFB JUMPI DUP3 SWAP1 SUB PUSH1 0x1F AND DUP3 ADD SWAP2 JUMPDEST POP POP POP POP POP DUP2 MSTORE POP POP SWAP1 DUP1 PUSH1 0xB ADD PUSH1 0x40 MLOAD DUP1 PUSH1 0x20 ADD PUSH1 0x40 MSTORE SWAP1 DUP2 PUSH1 0x0 DUP3 ADD DUP1 SLOAD PUSH2 0x1C41 SWAP1 PUSH2 0x2BE0 JUMP JUMPDEST DUP1 PUSH1 0x1F ADD PUSH1 0x20 DUP1 SWAP2 DIV MUL PUSH1 0x20 ADD PUSH1 0x40 MLOAD SWAP1 DUP2 ADD PUSH1 0x40 MSTORE DUP1 SWAP3 SWAP2 SWAP1 DUP2 DUP2 MSTORE PUSH1 0x20 ADD DUP3 DUP1 SLOAD PUSH2 0x1C6D SWAP1 PUSH2 0x2BE0 JUMP JUMPDEST DUP1 ISZERO PUSH2 0x1CBA JUMPI DUP1 PUSH1 0x1F LT PUSH2 0x1C8F JUMPI PUSH2 0x100 DUP1 DUP4 SLOAD DIV MUL DUP4 MSTORE SWAP2 PUSH1 0x20 ADD SWAP2 PUSH2 0x1CBA JUMP JUMPDEST DUP3 ADD SWAP2 SWAP1 PUSH1 0x0 MSTORE PUSH1 0x20 PUSH1 0x0 KECCAK256 SWAP1 JUMPDEST DUP2 SLOAD DUP2 MSTORE SWAP1 PUSH1 0x1 ADD SWAP1 PUSH1 0x20 ADD DUP1 DUP4 GT PUSH2 0x1C9D JUMPI DUP3 SWAP1 SUB PUSH1 0x1F AND DUP3 ADD SWAP2 JUMPDEST POP POP POP POP POP DUP2 MSTORE POP POP SWAP1 POP DUP10 JUMP JUMPDEST DUP3 PUSH1 0x0 DUP1 DUP3 DUP2 MSTORE PUSH1 0x20 ADD SWAP1 DUP2 MSTORE PUSH1 0x20 ADD PUSH1 0x0 KECCAK256 PUSH1 0x3 ADD PUSH1 0x0 SWAP1 SLOAD SWAP1 PUSH2 0x100 EXP SWAP1 DIV PUSH20 0xFFFFFFFFFFFFFFFFFFFFFFFFFFFFFFFFFFFFFFFF AND PUSH20 0xFFFFFFFFFFFFFFFFFFFFFFFFFFFFFFFFFFFFFFFF AND CALLER PUSH20 0xFFFFFFFFFFFFFFFFFFFFFFFFFFFFFFFFFFFFFFFF AND EQ PUSH2 0x1D6C JUMPI PUSH1 0x40 MLOAD PUSH32 0x8C379A000000000000000000000000000000000000000000000000000000000 DUP2 MSTORE PUSH1 0x4 ADD PUSH2 0x1D63 SWAP1 PUSH2 0x30DA JUMP JUMPDEST PUSH1 0x40 MLOAD DUP1 SWAP2 SUB SWAP1 REVERT JUMPDEST DUP4 PUSH1 0x4 DUP1 PUSH1 0x5 DUP2 GT ISZERO PUSH2 0x1D82 JUMPI PUSH2 0x1D81 PUSH2 0x2517 JUMP JUMPDEST JUMPDEST PUSH1 0x0 DUP1 DUP5 DUP2 MSTORE PUSH1 0x20 ADD SWAP1 DUP2 MSTORE PUSH1 0x20 ADD PUSH1 0x0 KECCAK256 PUSH1 0x4 ADD PUSH1 0x14 SWAP1 SLOAD SWAP1 PUSH2 0x100 EXP SWAP1 DIV PUSH1 0xFF AND PUSH1 0x5 DUP2 GT ISZERO PUSH2 0x1DB7 JUMPI PUSH2 0x1DB6 PUSH2 0x2517 JUMP JUMPDEST JUMPDEST EQ PUSH2 0x1DF7 JUMPI PUSH1 0x40 MLOAD PUSH32 0x8C379A000000000000000000000000000000000000000000000000000000000 DUP2 MSTORE PUSH1 0x4 ADD PUSH2 0x1DEE SWAP1 PUSH2 0x2F04 JUMP JUMPDEST PUSH1 0x40 MLOAD DUP1 SWAP2 SUB SWAP1 REVERT JUMPDEST PUSH1 0x0 DUP1 PUSH1 0x0 DUP9 DUP2 MSTORE PUSH1 0x20 ADD SWAP1 DUP2 MSTORE PUSH1 0x20 ADD PUSH1 0x0 KECCAK256 PUSH1 0x5 ADD PUSH1 0x0 ADD DUP1 SLOAD PUSH2 0x1E1C SWAP1 PUSH2 0x2BE0 JUMP JUMPDEST SWAP1 POP GT PUSH2 0x1E5E JUMPI PUSH1 0x40 MLOAD PUSH32 0x8C379A000000000000000000000000000000000000000000000000000000000 DUP2 MSTORE PUSH1 0x4 ADD PUSH2 0x1E55 SWAP1 PUSH2 0x2F70 JUMP JUMPDEST PUSH1 0x40 MLOAD DUP1 SWAP2 SUB SWAP1 REVERT JUMPDEST PUSH1 0x0 PUSH20 0xFFFFFFFFFFFFFFFFFFFFFFFFFFFFFFFFFFFFFFFF AND DUP5 PUSH20 0xFFFFFFFFFFFFFFFFFFFFFFFFFFFFFFFFFFFFFFFF AND SUB PUSH2 0x1ECD JUMPI PUSH1 0x40 MLOAD PUSH32 0x8C379A000000000000000000000000000000000000000000000000000000000 DUP2 MSTORE PUSH1 0x4 ADD PUSH2 0x1EC4 SWAP1 PUSH2 0x3146 JUMP JUMPDEST PUSH1 0x40 MLOAD DUP1 SWAP2 SUB SWAP1 REVERT JUMPDEST DUP4 PUSH1 0x0 DUP1 DUP9 DUP2 MSTORE PUSH1 0x20 ADD SWAP1 DUP2 MSTORE PUSH1 0x20 ADD PUSH1 0x0 KECCAK256 PUSH1 0x4 ADD PUSH1 0x0 PUSH2 0x100 EXP DUP2 SLOAD DUP2 PUSH20 0xFFFFFFFFFFFFFFFFFFFFFFFFFFFFFFFFFFFFFFFF MUL NOT AND SWAP1 DUP4 PUSH20 0xFFFFFFFFFFFFFFFFFFFFFFFFFFFFFFFFFFFFFFFF AND MUL OR SWAP1 SSTORE POP DUP5 PUSH1 0x0 DUP1 DUP9 DUP2 MSTORE PUSH1 0x20 ADD SWAP1 DUP2 MSTORE PUSH1 0x20 ADD PUSH1 0x0 KECCAK256 PUSH1 0x5 ADD PUSH1 0x4 ADD SWAP1 DUP2 PUSH2 0x1F46 SWAP2 SWAP1 PUSH2 0x2DBD JUMP JUMPDEST POP PUSH1 0x5 PUSH1 0x0 DUP1 DUP9 DUP2 MSTORE PUSH1 0x20 ADD SWAP1 DUP2 MSTORE PUSH1 0x20 ADD PUSH1 0x0 KECCAK256 PUSH1 0x4 ADD PUSH1 0x14 PUSH2 0x100 EXP DUP2 SLOAD DUP2 PUSH1 0xFF MUL NOT AND SWAP1 DUP4 PUSH1 0x5 DUP2 GT ISZERO PUSH2 0x1F80 JUMPI PUSH2 0x1F7F PUSH2 0x2517 JUMP JUMPDEST JUMPDEST MUL OR SWAP1 SSTORE POP PUSH32 0x2DA7B23CA63C1EB969EEE5FAE4ACB98186ABECF5358B0354A82A5183EBCA6B2A DUP7 PUSH1 0x5 PUSH1 0x40 MLOAD PUSH2 0x1FB7 SWAP3 SWAP2 SWAP1 PUSH2 0x2E8F JUMP JUMPDEST PUSH1 0x40 MLOAD DUP1 SWAP2 SUB SWAP1 LOG1 POP POP POP POP POP POP JUMP JUMPDEST PUSH1 0x40 MLOAD DUP1 PUSH2 0x120 ADD PUSH1 0x40 MSTORE DUP1 PUSH1 0x60 DUP2 MSTORE PUSH1 0x20 ADD PUSH1 0x0 DUP2 MSTORE PUSH1 0x20 ADD PUSH1 0x0 PUSH20 0xFFFFFFFFFFFFFFFFFFFFFFFFFFFFFFFFFFFFFFFF AND DUP2 MSTORE PUSH1 0x20 ADD PUSH1 0x0 PUSH20 0xFFFFFFFFFFFFFFFFFFFFFFFFFFFFFFFFFFFFFFFF AND DUP2 MSTORE PUSH1 0x20 ADD PUSH1 0x0 PUSH20 0xFFFFFFFFFFFFFFFFFFFFFFFFFFFFFFFFFFFFFFFF AND DUP2 MSTORE PUSH1 0x20 ADD PUSH1 0x0 PUSH1 0x5 DUP2 GT ISZERO PUSH2 0x204C JUMPI PUSH2 0x204B PUSH2 0x2517 JUMP JUMPDEST JUMPDEST DUP2 MSTORE PUSH1 0x20 ADD PUSH1 0x0 DUP1 SIGNEXTEND DUP2 MSTORE PUSH1 0x20 ADD PUSH2 0x2062 PUSH2 0x2075 JUMP JUMPDEST DUP2 MSTORE PUSH1 0x20 ADD PUSH2 0x206F PUSH2 0x20AB JUMP JUMPDEST DUP2 MSTORE POP SWAP1 JUMP JUMPDEST PUSH1 0x40 MLOAD DUP1 PUSH1 0xC0 ADD PUSH1 0x40 MSTORE DUP1 PUSH1 0x60 DUP2 MSTORE PUSH1 0x20 ADD PUSH1 0x60 DUP2 MSTORE PUSH1 0x20 ADD PUSH1 0x60 DUP2 MSTORE PUSH1 0x20 ADD PUSH1 0x60 DUP2 MSTORE PUSH1 0x20 ADD PUSH1 0x60 DUP2 MSTORE PUSH1 0x20 ADD PUSH1 0x60 DUP2 MSTORE POP SWAP1 JUMP JUMPDEST PUSH1 0x40 MLOAD DUP1 PUSH1 0x20 ADD PUSH1 0x40 MSTORE DUP1 PUSH1 0x60 DUP2 MSTORE POP SWAP1 JUMP JUMPDEST PUSH1 0x0 PUSH1 0x40 MLOAD SWAP1 POP SWAP1 JUMP JUMPDEST PUSH1 0x0 DUP1 REVERT JUMPDEST PUSH1 0x0 DUP1 REVERT JUMPDEST PUSH1 0x0 DUP2 SWAP1 POP SWAP2 SWAP1 POP JUMP JUMPDEST PUSH2 0x20E5 DUP2 PUSH2 0x20D2 JUMP JUMPDEST DUP2 EQ PUSH2 0x20F0 JUMPI PUSH1 0x0 DUP1 REVERT JUMPDEST POP JUMP JUMPDEST PUSH1 0x0 DUP2 CALLDATALOAD SWAP1 POP PUSH2 0x2102 DUP2 PUSH2 0x20DC JUMP JUMPDEST SWAP3 SWAP2 POP POP JUMP JUMPDEST PUSH1 0x0 DUP1 REVERT JUMPDEST PUSH1 0x0 DUP1 REVERT JUMPDEST PUSH1 0x0 PUSH1 0x1F NOT PUSH1 0x1F DUP4 ADD AND SWAP1 POP SWAP2 SWAP1 POP JUMP JUMPDEST PUSH32 0x4E487B7100000000000000000000000000000000000000000000000000000000 PUSH1 0x0 MSTORE PUSH1 0x41 PUSH1 0x4 MSTORE PUSH1 0x24 PUSH1 0x0 REVERT JUMPDEST PUSH2 0x215B DUP3 PUSH2 0x2112 JUMP JUMPDEST DUP2 ADD DUP2 DUP2 LT PUSH8 0xFFFFFFFFFFFFFFFF DUP3 GT OR ISZERO PUSH2 0x217A JUMPI PUSH2 0x2179 PUSH2 0x2123 JUMP JUMPDEST JUMPDEST DUP1 PUSH1 0x40 MSTORE POP POP POP JUMP JUMPDEST PUSH1 0x0 PUSH2 0x218D PUSH2 0x20BE JUMP JUMPDEST SWAP1 POP PUSH2 0x2199 DUP3 DUP3 PUSH2 0x2152 JUMP JUMPDEST SWAP2 SWAP1 POP JUMP JUMPDEST PUSH1 0x0 PUSH8 0xFFFFFFFFFFFFFFFF DUP3 GT ISZERO PUSH2 0x21B9 JUMPI PUSH2 0x21B8 PUSH2 0x2123 JUMP JUMPDEST JUMPDEST PUSH2 0x21C2 DUP3 PUSH2 0x2112 JUMP JUMPDEST SWAP1 POP PUSH1 0x20 DUP2 ADD SWAP1 POP SWAP2 SWAP1 POP JUMP JUMPDEST DUP3 DUP2 DUP4 CALLDATACOPY PUSH1 0x0 DUP4 DUP4 ADD MSTORE POP POP POP JUMP JUMPDEST PUSH1 0x0 PUSH2 0x21F1 PUSH2 0x21EC DUP5 PUSH2 0x219E JUMP JUMPDEST PUSH2 0x2183 JUMP JUMPDEST SWAP1 POP DUP3 DUP2 MSTORE PUSH1 0x20 DUP2 ADD DUP5 DUP5 DUP5 ADD GT ISZERO PUSH2 0x220D JUMPI PUSH2 0x220C PUSH2 0x210D JUMP JUMPDEST JUMPDEST PUSH2 0x2218 DUP5 DUP3 DUP6 PUSH2 0x21CF JUMP JUMPDEST POP SWAP4 SWAP3 POP POP POP JUMP JUMPDEST PUSH1 0x0 DUP3 PUSH1 0x1F DUP4 ADD SLT PUSH2 0x2235 JUMPI PUSH2 0x2234 PUSH2 0x2108 JUMP JUMPDEST JUMPDEST DUP2 CALLDATALOAD PUSH2 0x2245 DUP5 DUP3 PUSH1 0x20 DUP7 ADD PUSH2 0x21DE JUMP JUMPDEST SWAP2 POP POP SWAP3 SWAP2 POP POP JUMP JUMPDEST PUSH1 0x0 DUP2 PUSH1 0x0 SIGNEXTEND SWAP1 POP SWAP2 SWAP1 POP JUMP JUMPDEST PUSH2 0x2264 DUP2 PUSH2 0x224E JUMP JUMPDEST DUP2 EQ PUSH2 0x226F JUMPI PUSH1 0x0 DUP1 REVERT JUMPDEST POP JUMP JUMPDEST PUSH1 0x0 DUP2 CALLDATALOAD SWAP1 POP PUSH2 0x2281 DUP2 PUSH2 0x225B JUMP JUMPDEST SWAP3 SWAP2 POP POP JUMP JUMPDEST PUSH1 0x0 DUP1 PUSH1 0x0 DUP1 PUSH1 0x0 PUSH1 0xA0 DUP7 DUP9 SUB SLT ISZERO PUSH2 0x22A3 JUMPI PUSH2 0x22A2 PUSH2 0x20C8 JUMP JUMPDEST JUMPDEST PUSH1 0x0 PUSH2 0x22B1 DUP9 DUP3 DUP10 ADD PUSH2 0x20F3 JUMP JUMPDEST SWAP6 POP POP PUSH1 0x20 DUP7 ADD CALLDATALOAD PUSH8 0xFFFFFFFFFFFFFFFF DUP2 GT ISZERO PUSH2 0x22D2 JUMPI PUSH2 0x22D1 PUSH2 0x20CD JUMP JUMPDEST JUMPDEST PUSH2 0x22DE DUP9 DUP3 DUP10 ADD PUSH2 0x2220 JUMP JUMPDEST SWAP5 POP POP PUSH1 0x40 PUSH2 0x22EF DUP9 DUP3 DUP10 ADD PUSH2 0x20F3 JUMP JUMPDEST SWAP4 POP POP PUSH1 0x60 DUP7 ADD CALLDATALOAD PUSH8 0xFFFFFFFFFFFFFFFF DUP2 GT ISZERO PUSH2 0x2310 JUMPI PUSH2 0x230F PUSH2 0x20CD JUMP JUMPDEST JUMPDEST PUSH2 0x231C DUP9 DUP3 DUP10 ADD PUSH2 0x2220 JUMP JUMPDEST SWAP3 POP POP PUSH1 0x80 PUSH2 0x232D DUP9 DUP3 DUP10 ADD PUSH2 0x2272 JUMP JUMPDEST SWAP2 POP POP SWAP3 SWAP6 POP SWAP3 SWAP6 SWAP1 SWAP4 POP JUMP JUMPDEST PUSH1 0x0 PUSH20 0xFFFFFFFFFFFFFFFFFFFFFFFFFFFFFFFFFFFFFFFF DUP3 AND SWAP1 POP SWAP2 SWAP1 POP JUMP JUMPDEST PUSH1 0x0 PUSH2 0x2365 DUP3 PUSH2 0x233A JUMP JUMPDEST SWAP1 POP SWAP2 SWAP1 POP JUMP JUMPDEST PUSH2 0x2375 DUP2 PUSH2 0x235A JUMP JUMPDEST DUP2 EQ PUSH2 0x2380 JUMPI PUSH1 0x0 DUP1 REVERT JUMPDEST POP JUMP JUMPDEST PUSH1 0x0 DUP2 CALLDATALOAD SWAP1 POP PUSH2 0x2392 DUP2 PUSH2 0x236C JUMP JUMPDEST SWAP3 SWAP2 POP POP JUMP JUMPDEST PUSH1 0x0 DUP1 PUSH1 0x0 PUSH1 0x60 DUP5 DUP7 SUB SLT ISZERO PUSH2 0x23B1 JUMPI PUSH2 0x23B0 PUSH2 0x20C8 JUMP JUMPDEST JUMPDEST PUSH1 0x0 PUSH2 0x23BF DUP7 DUP3 DUP8 ADD PUSH2 0x20F3 JUMP JUMPDEST SWAP4 POP POP PUSH1 0x20 DUP5 ADD CALLDATALOAD PUSH8 0xFFFFFFFFFFFFFFFF DUP2 GT ISZERO PUSH2 0x23E0 JUMPI PUSH2 0x23DF PUSH2 0x20CD JUMP JUMPDEST JUMPDEST PUSH2 0x23EC DUP7 DUP3 DUP8 ADD PUSH2 0x2220 JUMP JUMPDEST SWAP3 POP POP PUSH1 0x40 PUSH2 0x23FD DUP7 DUP3 DUP8 ADD PUSH2 0x2383 JUMP JUMPDEST SWAP2 POP POP SWAP3 POP SWAP3 POP SWAP3 JUMP JUMPDEST PUSH1 0x0 PUSH1 0x20 DUP3 DUP5 SUB SLT ISZERO PUSH2 0x241D JUMPI PUSH2 0x241C PUSH2 0x20C8 JUMP JUMPDEST JUMPDEST PUSH1 0x0 DUP3 ADD CALLDATALOAD PUSH8 0xFFFFFFFFFFFFFFFF DUP2 GT ISZERO PUSH2 0x243B JUMPI PUSH2 0x243A PUSH2 0x20CD JUMP JUMPDEST JUMPDEST PUSH2 0x2447 DUP5 DUP3 DUP6 ADD PUSH2 0x2220 JUMP JUMPDEST SWAP2 POP POP SWAP3 SWAP2 POP POP JUMP JUMPDEST PUSH2 0x2459 DUP2 PUSH2 0x20D2 JUMP JUMPDEST DUP3 MSTORE POP POP JUMP JUMPDEST PUSH1 0x0 PUSH1 0x20 DUP3 ADD SWAP1 POP PUSH2 0x2474 PUSH1 0x0 DUP4 ADD DUP5 PUSH2 0x2450 JUMP JUMPDEST SWAP3 SWAP2 POP POP JUMP JUMPDEST PUSH1 0x0 DUP2 MLOAD SWAP1 POP SWAP2 SWAP1 POP JUMP JUMPDEST PUSH1 0x0 DUP3 DUP3 MSTORE PUSH1 0x20 DUP3 ADD SWAP1 POP SWAP3 SWAP2 POP POP JUMP JUMPDEST PUSH1 0x0 JUMPDEST DUP4 DUP2 LT ISZERO PUSH2 0x24B4 JUMPI DUP1 DUP3 ADD MLOAD DUP2 DUP5 ADD MSTORE PUSH1 0x20 DUP2 ADD SWAP1 POP PUSH2 0x2499 JUMP JUMPDEST PUSH1 0x0 DUP5 DUP5 ADD MSTORE POP POP POP POP JUMP JUMPDEST PUSH1 0x0 PUSH2 0x24CB DUP3 PUSH2 0x247A JUMP JUMPDEST PUSH2 0x24D5 DUP2 DUP6 PUSH2 0x2485 JUMP JUMPDEST SWAP4 POP PUSH2 0x24E5 DUP2 DUP6 PUSH1 0x20 DUP7 ADD PUSH2 0x2496 JUMP JUMPDEST PUSH2 0x24EE DUP2 PUSH2 0x2112 JUMP JUMPDEST DUP5 ADD SWAP2 POP POP SWAP3 SWAP2 POP POP JUMP JUMPDEST PUSH2 0x2502 DUP2 PUSH2 0x20D2 JUMP JUMPDEST DUP3 MSTORE POP POP JUMP JUMPDEST PUSH2 0x2511 DUP2 PUSH2 0x235A JUMP JUMPDEST DUP3 MSTORE POP POP JUMP JUMPDEST PUSH32 0x4E487B7100000000000000000000000000000000000000000000000000000000 PUSH1 0x0 MSTORE PUSH1 0x21 PUSH1 0x4 MSTORE PUSH1 0x24 PUSH1 0x0 REVERT JUMPDEST PUSH1 0x6 DUP2 LT PUSH2 0x2557 JUMPI PUSH2 0x2556 PUSH2 0x2517 JUMP JUMPDEST JUMPDEST POP JUMP JUMPDEST PUSH1 0x0 DUP2 SWAP1 POP PUSH2 0x2568 DUP3 PUSH2 0x2546 JUMP JUMPDEST SWAP2 SWAP1 POP JUMP JUMPDEST PUSH1 0x0 PUSH2 0x2578 DUP3 PUSH2 0x255A JUMP JUMPDEST SWAP1 POP SWAP2 SWAP1 POP JUMP JUMPDEST PUSH2 0x2588 DUP2 PUSH2 0x256D JUMP JUMPDEST DUP3 MSTORE POP POP JUMP JUMPDEST PUSH2 0x2597 DUP2 PUSH2 0x224E JUMP JUMPDEST DUP3 MSTORE POP POP JUMP JUMPDEST PUSH1 0x0 PUSH1 0xC0 DUP4 ADD PUSH1 0x0 DUP4 ADD MLOAD DUP5 DUP3 SUB PUSH1 0x0 DUP7 ADD MSTORE PUSH2 0x25BA DUP3 DUP3 PUSH2 0x24C0 JUMP JUMPDEST SWAP2 POP POP PUSH1 0x20 DUP4 ADD MLOAD DUP5 DUP3 SUB PUSH1 0x20 DUP7 ADD MSTORE PUSH2 0x25D4 DUP3 DUP3 PUSH2 0x24C0 JUMP JUMPDEST SWAP2 POP POP PUSH1 0x40 DUP4 ADD MLOAD DUP5 DUP3 SUB PUSH1 0x40 DUP7 ADD MSTORE PUSH2 0x25EE DUP3 DUP3 PUSH2 0x24C0 JUMP JUMPDEST SWAP2 POP POP PUSH1 0x60 DUP4 ADD MLOAD DUP5 DUP3 SUB PUSH1 0x60 DUP7 ADD MSTORE PUSH2 0x2608 DUP3 DUP3 PUSH2 0x24C0 JUMP JUMPDEST SWAP2 POP POP PUSH1 0x80 DUP4 ADD MLOAD DUP5 DUP3 SUB PUSH1 0x80 DUP7 ADD MSTORE PUSH2 0x2622 DUP3 DUP3 PUSH2 0x24C0 JUMP JUMPDEST SWAP2 POP POP PUSH1 0xA0 DUP4 ADD MLOAD DUP5 DUP3 SUB PUSH1 0xA0 DUP7 ADD MSTORE PUSH2 0x263C DUP3 DUP3 PUSH2 0x24C0 JUMP JUMPDEST SWAP2 POP POP DUP1 SWAP2 POP POP SWAP3 SWAP2 POP POP JUMP JUMPDEST PUSH1 0x0 PUSH1 0x20 DUP4 ADD PUSH1 0x0 DUP4 ADD MLOAD DUP5 DUP3 SUB PUSH1 0x0 DUP7 ADD MSTORE PUSH2 0x2666 DUP3 DUP3 PUSH2 0x24C0 JUMP JUMPDEST SWAP2 POP POP DUP1 SWAP2 POP POP SWAP3 SWAP2 POP POP JUMP JUMPDEST PUSH1 0x0 PUSH2 0x120 DUP4 ADD PUSH1 0x0 DUP4 ADD MLOAD DUP5 DUP3 SUB PUSH1 0x0 DUP7 ADD MSTORE PUSH2 0x2691 DUP3 DUP3 PUSH2 0x24C0 JUMP JUMPDEST SWAP2 POP POP PUSH1 0x20 DUP4 ADD MLOAD PUSH2 0x26A6 PUSH1 0x20 DUP7 ADD DUP3 PUSH2 0x24F9 JUMP JUMPDEST POP PUSH1 0x40 DUP4 ADD MLOAD PUSH2 0x26B9 PUSH1 0x40 DUP7 ADD DUP3 PUSH2 0x2508 JUMP JUMPDEST POP PUSH1 0x60 DUP4 ADD MLOAD PUSH2 0x26CC PUSH1 0x60 DUP7 ADD DUP3 PUSH2 0x2508 JUMP JUMPDEST POP PUSH1 0x80 DUP4 ADD MLOAD PUSH2 0x26DF PUSH1 0x80 DUP7 ADD DUP3 PUSH2 0x2508 JUMP JUMPDEST POP PUSH1 0xA0 DUP4 ADD MLOAD PUSH2 0x26F2 PUSH1 0xA0 DUP7 ADD DUP3 PUSH2 0x257F JUMP JUMPDEST POP PUSH1 0xC0 DUP4 ADD MLOAD PUSH2 0x2705 PUSH1 0xC0 DUP7 ADD DUP3 PUSH2 0x258E JUMP JUMPDEST POP PUSH1 0xE0 DUP4 ADD MLOAD DUP5 DUP3 SUB PUSH1 0xE0 DUP7 ADD MSTORE PUSH2 0x271D DUP3 DUP3 PUSH2 0x259D JUMP JUMPDEST SWAP2 POP POP PUSH2 0x100 DUP4 ADD MLOAD DUP5 DUP3 SUB PUSH2 0x100 DUP7 ADD MSTORE PUSH2 0x2739 DUP3 DUP3 PUSH2 0x2649 JUMP JUMPDEST SWAP2 POP POP DUP1 SWAP2 POP POP SWAP3 SWAP2 POP POP JUMP JUMPDEST PUSH1 0x0 PUSH1 0x20 DUP3 ADD SWAP1 POP DUP2 DUP2 SUB PUSH1 0x0 DUP4 ADD MSTORE PUSH2 0x2760 DUP2 DUP5 PUSH2 0x2673 JUMP JUMPDEST SWAP1 POP SWAP3 SWAP2 POP POP JUMP JUMPDEST PUSH1 0x0 DUP1 PUSH1 0x40 DUP4 DUP6 SUB SLT ISZERO PUSH2 0x277F JUMPI PUSH2 0x277E PUSH2 0x20C8 JUMP JUMPDEST JUMPDEST PUSH1 0x0 PUSH2 0x278D DUP6 DUP3 DUP7 ADD PUSH2 0x20F3 JUMP JUMPDEST SWAP3 POP POP PUSH1 0x20 DUP4 ADD CALLDATALOAD PUSH8 0xFFFFFFFFFFFFFFFF DUP2 GT ISZERO PUSH2 0x27AE JUMPI PUSH2 0x27AD PUSH2 0x20CD JUMP JUMPDEST JUMPDEST PUSH2 0x27BA DUP6 DUP3 DUP7 ADD PUSH2 0x2220 JUMP JUMPDEST SWAP2 POP POP SWAP3 POP SWAP3 SWAP1 POP JUMP JUMPDEST PUSH2 0x27CD DUP2 PUSH2 0x235A JUMP JUMPDEST DUP3 MSTORE POP POP JUMP JUMPDEST PUSH1 0x0 PUSH1 0x20 DUP3 ADD SWAP1 POP PUSH2 0x27E8 PUSH1 0x0 DUP4 ADD DUP5 PUSH2 0x27C4 JUMP JUMPDEST SWAP3 SWAP2 POP POP JUMP JUMPDEST PUSH1 0x0 DUP1 PUSH1 0x0 PUSH1 0x60 DUP5 DUP7 SUB SLT ISZERO PUSH2 0x2807 JUMPI PUSH2 0x2806 PUSH2 0x20C8 JUMP JUMPDEST JUMPDEST PUSH1 0x0 PUSH2 0x2815 DUP7 DUP3 DUP8 ADD PUSH2 0x20F3 JUMP JUMPDEST SWAP4 POP POP PUSH1 0x20 DUP5 ADD CALLDATALOAD PUSH8 0xFFFFFFFFFFFFFFFF DUP2 GT ISZERO PUSH2 0x2836 JUMPI PUSH2 0x2835 PUSH2 0x20CD JUMP JUMPDEST JUMPDEST PUSH2 0x2842 DUP7 DUP3 DUP8 ADD PUSH2 0x2220 JUMP JUMPDEST SWAP3 POP POP PUSH1 0x40 DUP5 ADD CALLDATALOAD PUSH8 0xFFFFFFFFFFFFFFFF DUP2 GT ISZERO PUSH2 0x2863 JUMPI PUSH2 0x2862 PUSH2 0x20CD JUMP JUMPDEST JUMPDEST PUSH2 0x286F DUP7 DUP3 DUP8 ADD PUSH2 0x2220 JUMP JUMPDEST SWAP2 POP POP SWAP3 POP SWAP3 POP SWAP3 JUMP JUMPDEST PUSH1 0x0 PUSH1 0x20 DUP3 DUP5 SUB SLT ISZERO PUSH2 0x288F JUMPI PUSH2 0x288E PUSH2 0x20C8 JUMP JUMPDEST JUMPDEST PUSH1 0x0 PUSH2 0x289D DUP5 DUP3 DUP6 ADD PUSH2 0x20F3 JUMP JUMPDEST SWAP2 POP POP SWAP3 SWAP2 POP POP JUMP JUMPDEST PUSH1 0x0 DUP3 DUP3 MSTORE PUSH1 0x20 DUP3 ADD SWAP1 POP SWAP3 SWAP2 POP POP JUMP JUMPDEST PUSH1 0x0 PUSH2 0x28C2 DUP3 PUSH2 0x247A JUMP JUMPDEST PUSH2 0x28CC DUP2 DUP6 PUSH2 0x28A6 JUMP JUMPDEST SWAP4 POP PUSH2 0x28DC DUP2 DUP6 PUSH1 0x20 DUP7 ADD PUSH2 0x2496 JUMP JUMPDEST PUSH2 0x28E5 DUP2 PUSH2 0x2112 JUMP JUMPDEST DUP5 ADD SWAP2 POP POP SWAP3 SWAP2 POP POP JUMP JUMPDEST PUSH2 0x28F9 DUP2 PUSH2 0x256D JUMP JUMPDEST DUP3 MSTORE POP POP JUMP JUMPDEST PUSH2 0x2908 DUP2 PUSH2 0x224E JUMP JUMPDEST DUP3 MSTORE POP POP JUMP JUMPDEST PUSH1 0x0 PUSH1 0xC0 DUP4 ADD PUSH1 0x0 DUP4 ADD MLOAD DUP5 DUP3 SUB PUSH1 0x0 DUP7 ADD MSTORE PUSH2 0x292B DUP3 DUP3 PUSH2 0x24C0 JUMP JUMPDEST SWAP2 POP POP PUSH1 0x20 DUP4 ADD MLOAD DUP5 DUP3 SUB PUSH1 0x20 DUP7 ADD MSTORE PUSH2 0x2945 DUP3 DUP3 PUSH2 0x24C0 JUMP JUMPDEST SWAP2 POP POP PUSH1 0x40 DUP4 ADD MLOAD DUP5 DUP3 SUB PUSH1 0x40 DUP7 ADD MSTORE PUSH2 0x295F DUP3 DUP3 PUSH2 0x24C0 JUMP JUMPDEST SWAP2 POP POP PUSH1 0x60 DUP4 ADD MLOAD DUP5 DUP3 SUB PUSH1 0x60 DUP7 ADD MSTORE PUSH2 0x2979 DUP3 DUP3 PUSH2 0x24C0 JUMP JUMPDEST SWAP2 POP POP PUSH1 0x80 DUP4 ADD MLOAD DUP5 DUP3 SUB PUSH1 0x80 DUP7 ADD MSTORE PUSH2 0x2993 DUP3 DUP3 PUSH2 0x24C0 JUMP JUMPDEST SWAP2 POP POP PUSH1 0xA0 DUP4 ADD MLOAD DUP5 DUP3 SUB PUSH1 0xA0 DUP7 ADD MSTORE PUSH2 0x29AD DUP3 DUP3 PUSH2 0x24C0 JUMP JUMPDEST SWAP2 POP POP DUP1 SWAP2 POP POP SWAP3 SWAP2 POP POP JUMP JUMPDEST PUSH1 0x0 PUSH1 0x20 DUP4 ADD PUSH1 0x0 DUP4 ADD MLOAD DUP5 DUP3 SUB PUSH1 0x0 DUP7 ADD MSTORE PUSH2 0x29D7 DUP3 DUP3 PUSH2 0x24C0 JUMP JUMPDEST SWAP2 POP POP DUP1 SWAP2 POP POP SWAP3 SWAP2 POP POP JUMP JUMPDEST PUSH1 0x0 PUSH2 0x120 DUP3 ADD SWAP1 POP DUP2 DUP2 SUB PUSH1 0x0 DUP4 ADD MSTORE PUSH2 0x29FF DUP2 DUP13 PUSH2 0x28B7 JUMP JUMPDEST SWAP1 POP PUSH2 0x2A0E PUSH1 0x20 DUP4 ADD DUP12 PUSH2 0x2450 JUMP JUMPDEST PUSH2 0x2A1B PUSH1 0x40 DUP4 ADD DUP11 PUSH2 0x27C4 JUMP JUMPDEST PUSH2 0x2A28 PUSH1 0x60 DUP4 ADD DUP10 PUSH2 0x27C4 JUMP JUMPDEST PUSH2 0x2A35 PUSH1 0x80 DUP4 ADD DUP9 PUSH2 0x27C4 JUMP JUMPDEST PUSH2 0x2A42 PUSH1 0xA0 DUP4 ADD DUP8 PUSH2 0x28F0 JUMP JUMPDEST PUSH2 0x2A4F PUSH1 0xC0 DUP4 ADD DUP7 PUSH2 0x28FF JUMP JUMPDEST DUP2 DUP2 SUB PUSH1 0xE0 DUP4 ADD MSTORE PUSH2 0x2A61 DUP2 DUP6 PUSH2 0x290E JUMP JUMPDEST SWAP1 POP DUP2 DUP2 SUB PUSH2 0x100 DUP4 ADD MSTORE PUSH2 0x2A76 DUP2 DUP5 PUSH2 0x29BA JUMP JUMPDEST SWAP1 POP SWAP11 SWAP10 POP POP POP POP POP POP POP POP POP POP JUMP JUMPDEST PUSH32 0x4E6F7420746865206D616E756661637475726572000000000000000000000000 PUSH1 0x0 DUP3 ADD MSTORE POP JUMP JUMPDEST PUSH1 0x0 PUSH2 0x2ABC PUSH1 0x14 DUP4 PUSH2 0x28A6 JUMP JUMPDEST SWAP2 POP PUSH2 0x2AC7 DUP3 PUSH2 0x2A86 JUMP JUMPDEST PUSH1 0x20 DUP3 ADD SWAP1 POP SWAP2 SWAP1 POP JUMP JUMPDEST PUSH1 0x0 PUSH1 0x20 DUP3 ADD SWAP1 POP DUP2 DUP2 SUB PUSH1 0x0 DUP4 ADD MSTORE PUSH2 0x2AEB DUP2 PUSH2 0x2AAF JUMP JUMPDEST SWAP1 POP SWAP2 SWAP1 POP JUMP JUMPDEST PUSH1 0x0 DUP2 SWAP1 POP SWAP3 SWAP2 POP POP JUMP JUMPDEST PUSH1 0x0 PUSH2 0x2B08 DUP3 PUSH2 0x247A JUMP JUMPDEST PUSH2 0x2B12 DUP2 DUP6 PUSH2 0x2AF2 JUMP JUMPDEST SWAP4 POP PUSH2 0x2B22 DUP2 DUP6 PUSH1 0x20 DUP7 ADD PUSH2 0x2496 JUMP JUMPDEST DUP1 DUP5 ADD SWAP2 POP POP SWAP3 SWAP2 POP POP JUMP JUMPDEST PUSH1 0x0 PUSH2 0x2B3A DUP3 DUP5 PUSH2 0x2AFD JUMP JUMPDEST SWAP2 POP DUP2 SWAP1 POP SWAP3 SWAP2 POP POP JUMP JUMPDEST PUSH32 0x4D65646963696E65206E616D6520616C72656164792065786973747300000000 PUSH1 0x0 DUP3 ADD MSTORE POP JUMP JUMPDEST PUSH1 0x0 PUSH2 0x2B7B PUSH1 0x1C DUP4 PUSH2 0x28A6 JUMP JUMPDEST SWAP2 POP PUSH2 0x2B86 DUP3 PUSH2 0x2B45 JUMP JUMPDEST PUSH1 0x20 DUP3 ADD SWAP1 POP SWAP2 SWAP1 POP JUMP JUMPDEST PUSH1 0x0 PUSH1 0x20 DUP3 ADD SWAP1 POP DUP2 DUP2 SUB PUSH1 0x0 DUP4 ADD MSTORE PUSH2 0x2BAA DUP2 PUSH2 0x2B6E JUMP JUMPDEST SWAP1 POP SWAP2 SWAP1 POP JUMP JUMPDEST PUSH32 0x4E487B7100000000000000000000000000000000000000000000000000000000 PUSH1 0x0 MSTORE PUSH1 0x22 PUSH1 0x4 MSTORE PUSH1 0x24 PUSH1 0x0 REVERT JUMPDEST PUSH1 0x0 PUSH1 0x2 DUP3 DIV SWAP1 POP PUSH1 0x1 DUP3 AND DUP1 PUSH2 0x2BF8 JUMPI PUSH1 0x7F DUP3 AND SWAP2 POP JUMPDEST PUSH1 0x20 DUP3 LT DUP2 SUB PUSH2 0x2C0B JUMPI PUSH2 0x2C0A PUSH2 0x2BB1 JUMP JUMPDEST JUMPDEST POP SWAP2 SWAP1 POP JUMP JUMPDEST PUSH1 0x0 DUP2 SWAP1 POP DUP2 PUSH1 0x0 MSTORE PUSH1 0x20 PUSH1 0x0 KECCAK256 SWAP1 POP SWAP2 SWAP1 POP JUMP JUMPDEST PUSH1 0x0 PUSH1 0x20 PUSH1 0x1F DUP4 ADD DIV SWAP1 POP SWAP2 SWAP1 POP JUMP JUMPDEST PUSH1 0x0 DUP3 DUP3 SHL SWAP1 POP SWAP3 SWAP2 POP POP JUMP JUMPDEST PUSH1 0x0 PUSH1 0x8 DUP4 MUL PUSH2 0x2C73 PUSH32 0xFFFFFFFFFFFFFFFFFFFFFFFFFFFFFFFFFFFFFFFFFFFFFFFFFFFFFFFFFFFFFFFF DUP3 PUSH2 0x2C36 JUMP JUMPDEST PUSH2 0x2C7D DUP7 DUP4 PUSH2 0x2C36 JUMP JUMPDEST SWAP6 POP DUP1 NOT DUP5 AND SWAP4 POP DUP1 DUP7 AND DUP5 OR SWAP3 POP POP POP SWAP4 SWAP3 POP POP POP JUMP JUMPDEST PUSH1 0x0 DUP2 SWAP1 POP SWAP2 SWAP1 POP JUMP JUMPDEST PUSH1 0x0 PUSH2 0x2CBA PUSH2 0x2CB5 PUSH2 0x2CB0 DUP5 PUSH2 0x20D2 JUMP JUMPDEST PUSH2 0x2C95 JUMP JUMPDEST PUSH2 0x20D2 JUMP JUMPDEST SWAP1 POP SWAP2 SWAP1 POP JUMP JUMPDEST PUSH1 0x0 DUP2 SWAP1 POP SWAP2 SWAP1 POP JUMP JUMPDEST PUSH2 0x2CD4 DUP4 PUSH2 0x2C9F JUMP JUMPDEST PUSH2 0x2CE8 PUSH2 0x2CE0 DUP3 PUSH2 0x2CC1 JUMP JUMPDEST DUP5 DUP5 SLOAD PUSH2 0x2C43 JUMP JUMPDEST DUP3 SSTORE POP POP POP POP JUMP JUMPDEST PUSH1 0x0 SWAP1 JUMP JUMPDEST PUSH2 0x2CFD PUSH2 0x2CF0 JUMP JUMPDEST PUSH2 0x2D08 DUP2 DUP5 DUP5 PUSH2 0x2CCB JUMP JUMPDEST POP POP POP JUMP JUMPDEST JUMPDEST DUP2 DUP2 LT ISZERO PUSH2 0x2D2C JUMPI PUSH2 0x2D21 PUSH1 0x0 DUP3 PUSH2 0x2CF5 JUMP JUMPDEST PUSH1 0x1 DUP2 ADD SWAP1 POP PUSH2 0x2D0E JUMP JUMPDEST POP POP JUMP JUMPDEST PUSH1 0x1F DUP3 GT ISZERO PUSH2 0x2D71 JUMPI PUSH2 0x2D42 DUP2 PUSH2 0x2C11 JUMP JUMPDEST PUSH2 0x2D4B DUP5 PUSH2 0x2C26 JUMP JUMPDEST DUP2 ADD PUSH1 0x20 DUP6 LT ISZERO PUSH2 0x2D5A JUMPI DUP2 SWAP1 POP JUMPDEST PUSH2 0x2D6E PUSH2 0x2D66 DUP6 PUSH2 0x2C26 JUMP JUMPDEST DUP4 ADD DUP3 PUSH2 0x2D0D JUMP JUMPDEST POP POP JUMPDEST POP POP POP JUMP JUMPDEST PUSH1 0x0 DUP3 DUP3 SHR SWAP1 POP SWAP3 SWAP2 POP POP JUMP JUMPDEST PUSH1 0x0 PUSH2 0x2D94 PUSH1 0x0 NOT DUP5 PUSH1 0x8 MUL PUSH2 0x2D76 JUMP JUMPDEST NOT DUP1 DUP4 AND SWAP2 POP POP SWAP3 SWAP2 POP POP JUMP JUMPDEST PUSH1 0x0 PUSH2 0x2DAD DUP4 DUP4 PUSH2 0x2D83 JUMP JUMPDEST SWAP2 POP DUP3 PUSH1 0x2 MUL DUP3 OR SWAP1 POP SWAP3 SWAP2 POP POP JUMP JUMPDEST PUSH2 0x2DC6 DUP3 PUSH2 0x247A JUMP JUMPDEST PUSH8 0xFFFFFFFFFFFFFFFF DUP2 GT ISZERO PUSH2 0x2DDF JUMPI PUSH2 0x2DDE PUSH2 0x2123 JUMP JUMPDEST JUMPDEST PUSH2 0x2DE9 DUP3 SLOAD PUSH2 0x2BE0 JUMP JUMPDEST PUSH2 0x2DF4 DUP3 DUP3 DUP6 PUSH2 0x2D30 JUMP JUMPDEST PUSH1 0x0 PUSH1 0x20 SWAP1 POP PUSH1 0x1F DUP4 GT PUSH1 0x1 DUP2 EQ PUSH2 0x2E27 JUMPI PUSH1 0x0 DUP5 ISZERO PUSH2 0x2E15 JUMPI DUP3 DUP8 ADD MLOAD SWAP1 POP JUMPDEST PUSH2 0x2E1F DUP6 DUP3 PUSH2 0x2DA1 JUMP JUMPDEST DUP7 SSTORE POP PUSH2 0x2E87 JUMP JUMPDEST PUSH1 0x1F NOT DUP5 AND PUSH2 0x2E35 DUP7 PUSH2 0x2C11 JUMP JUMPDEST PUSH1 0x0 JUMPDEST DUP3 DUP2 LT ISZERO PUSH2 0x2E5D JUMPI DUP5 DUP10 ADD MLOAD DUP3 SSTORE PUSH1 0x1 DUP3 ADD SWAP2 POP PUSH1 0x20 DUP6 ADD SWAP5 POP PUSH1 0x20 DUP2 ADD SWAP1 POP PUSH2 0x2E38 JUMP JUMPDEST DUP7 DUP4 LT ISZERO PUSH2 0x2E7A JUMPI DUP5 DUP10 ADD MLOAD PUSH2 0x2E76 PUSH1 0x1F DUP10 AND DUP3 PUSH2 0x2D83 JUMP JUMPDEST DUP4 SSTORE POP JUMPDEST PUSH1 0x1 PUSH1 0x2 DUP9 MUL ADD DUP9 SSTORE POP POP POP JUMPDEST POP POP POP POP POP POP JUMP JUMPDEST PUSH1 0x0 PUSH1 0x40 DUP3 ADD SWAP1 POP PUSH2 0x2EA4 PUSH1 0x0 DUP4 ADD DUP6 PUSH2 0x2450 JUMP JUMPDEST PUSH2 0x2EB1 PUSH1 0x20 DUP4 ADD DUP5 PUSH2 0x28F0 JUMP JUMPDEST SWAP4 SWAP3 POP POP POP JUMP JUMPDEST PUSH32 0x496E76616C6964207374617465207472616E736974696F6E0000000000000000 PUSH1 0x0 DUP3 ADD MSTORE POP JUMP JUMPDEST PUSH1 0x0 PUSH2 0x2EEE PUSH1 0x18 DUP4 PUSH2 0x28A6 JUMP JUMPDEST SWAP2 POP PUSH2 0x2EF9 DUP3 PUSH2 0x2EB8 JUMP JUMPDEST PUSH1 0x20 DUP3 ADD SWAP1 POP SWAP2 SWAP1 POP JUMP JUMPDEST PUSH1 0x0 PUSH1 0x20 DUP3 ADD SWAP1 POP DUP2 DUP2 SUB PUSH1 0x0 DUP4 ADD MSTORE PUSH2 0x2F1D DUP2 PUSH2 0x2EE1 JUMP JUMPDEST SWAP1 POP SWAP2 SWAP1 POP JUMP JUMPDEST PUSH32 0x426174636820494420646F6573206E6F74206578697374000000000000000000 PUSH1 0x0 DUP3 ADD MSTORE POP JUMP JUMPDEST PUSH1 0x0 PUSH2 0x2F5A PUSH1 0x17 DUP4 PUSH2 0x28A6 JUMP JUMPDEST SWAP2 POP PUSH2 0x2F65 DUP3 PUSH2 0x2F24 JUMP JUMPDEST PUSH1 0x20 DUP3 ADD SWAP1 POP SWAP2 SWAP1 POP JUMP JUMPDEST PUSH1 0x0 PUSH1 0x20 DUP3 ADD SWAP1 POP DUP2 DUP2 SUB PUSH1 0x0 DUP4 ADD MSTORE PUSH2 0x2F89 DUP2 PUSH2 0x2F4D JUMP JUMPDEST SWAP1 POP SWAP2 SWAP1 POP JUMP JUMPDEST PUSH32 0x4469737472696275746F7220616464726573732063616E6E6F74206265207A65 PUSH1 0x0 DUP3 ADD MSTORE PUSH32 0x726F000000000000000000000000000000000000000000000000000000000000 PUSH1 0x20 DUP3 ADD MSTORE POP JUMP JUMPDEST PUSH1 0x0 PUSH2 0x2FEC PUSH1 0x22 DUP4 PUSH2 0x28A6 JUMP JUMPDEST SWAP2 POP PUSH2 0x2FF7 DUP3 PUSH2 0x2F90 JUMP JUMPDEST PUSH1 0x40 DUP3 ADD SWAP1 POP SWAP2 SWAP1 POP JUMP JUMPDEST PUSH1 0x0 PUSH1 0x20 DUP3 ADD SWAP1 POP DUP2 DUP2 SUB PUSH1 0x0 DUP4 ADD MSTORE PUSH2 0x301B DUP2 PUSH2 0x2FDF JUMP JUMPDEST SWAP1 POP SWAP2 SWAP1 POP JUMP JUMPDEST PUSH32 0x4D65646963696E65206E6F7420666F756E640000000000000000000000000000 PUSH1 0x0 DUP3 ADD MSTORE POP JUMP JUMPDEST PUSH1 0x0 PUSH2 0x3058 PUSH1 0x12 DUP4 PUSH2 0x28A6 JUMP JUMPDEST SWAP2 POP PUSH2 0x3063 DUP3 PUSH2 0x3022 JUMP JUMPDEST PUSH1 0x20 DUP3 ADD SWAP1 POP SWAP2 SWAP1 POP JUMP JUMPDEST PUSH1 0x0 PUSH1 0x20 DUP3 ADD SWAP1 POP DUP2 DUP2 SUB PUSH1 0x0 DUP4 ADD MSTORE PUSH2 0x3087 DUP2 PUSH2 0x304B JUMP JUMPDEST SWAP1 POP SWAP2 SWAP1 POP JUMP JUMPDEST PUSH32 0x4E6F7420746865206469737472696275746F7200000000000000000000000000 PUSH1 0x0 DUP3 ADD MSTORE POP JUMP JUMPDEST PUSH1 0x0 PUSH2 0x30C4 PUSH1 0x13 DUP4 PUSH2 0x28A6 JUMP JUMPDEST SWAP2 POP PUSH2 0x30CF DUP3 PUSH2 0x308E JUMP JUMPDEST PUSH1 0x20 DUP3 ADD SWAP1 POP SWAP2 SWAP1 POP JUMP JUMPDEST PUSH1 0x0 PUSH1 0x20 DUP3 ADD SWAP1 POP DUP2 DUP2 SUB PUSH1 0x0 DUP4 ADD MSTORE PUSH2 0x30F3 DUP2 PUSH2 0x30B7 JUMP JUMPDEST SWAP1 POP SWAP2 SWAP1 POP JUMP JUMPDEST PUSH32 0x52657461696C657220616464726573732063616E6E6F74206265207A65726F00 PUSH1 0x0 DUP3 ADD MSTORE POP JUMP JUMPDEST PUSH1 0x0 PUSH2 0x3130 PUSH1 0x1F DUP4 PUSH2 0x28A6 JUMP JUMPDEST SWAP2 POP PUSH2 0x313B DUP3 PUSH2 0x30FA JUMP JUMPDEST PUSH1 0x20 DUP3 ADD SWAP1 POP SWAP2 SWAP1 POP JUMP JUMPDEST PUSH1 0x0 PUSH1 0x20 DUP3 ADD SWAP1 POP DUP2 DUP2 SUB PUSH1 0x0 DUP4 ADD MSTORE PUSH2 0x315F DUP2 PUSH2 0x3123 JUMP JUMPDEST SWAP1 POP SWAP2 SWAP1 POP JUMP INVALID LOG2 PUSH5 0x6970667358 0x22 SLT KECCAK256 DUP3 0xBB LOG0 SSTORE GAS 0x4B JUMPDEST CALLDATACOPY PUSH26 0xF18DE04ECC285AADC7021B691189CDEC6073B27F9C516164736F PUSH13 0x634300081C0033000000000000 "
        },
        "methodIdentifiers": {
          "deliverMedicine(uint256,string,address)": "d804ace8",
          "getMedicineDetailsByName(string)": "65de676b",
          "manufactureMedicine(uint256,string,uint256,string,int8)": "090e46e3",
          "manufacturer()": "74754282",
          "medicines(uint256)": "c85e766d",
          "nameToBatchId(string)": "12eb7ffd",
          "packMedicine(uint256,string)": "70b184da",
          "pickMedicine(uint256,string)": "7ead0dd7",
          "shipMedicine(uint256,string,address)": "1055f23c",
          "storeMedicine(uint256,string,string)": "8a381fd8"
        }
      }
    }
  }
}