{
  "contracts/Track.sol": {
    "TrackMedicine": {
      "abi": [
        {
          "inputs": [],
          "stateMutability": "nonpayable",
          "type": "constructor"
        },
        {
          "anonymous": false,
          "inputs": [
            {
              "indexed": false,
              "internalType": "uint256",
              "name": "batchId",
              "type": "uint256"
            },
            {
              "indexed": false,
              "internalType": "enum TrackMedicine.Status",
              "name": "status",
              "type": "uint8"
            }
          ],
          "name": "StatusUpdated",
          "type": "event"
        },
        {
          "inputs": [
            {
              "internalType": "uint256",
              "name": "_batchId",
              "type": "uint256"
            },
            {
              "internalType": "string",
              "name": "_dDate",
              "type": "string"
            },
            {
              "internalType": "address",
              "name": "_retailer",
              "type": "address"
            }
          ],
          "name": "deliverMedicine",
          "outputs": [],
          "stateMutability": "nonpayable",
          "type": "function"
        },
        {
          "inputs": [
            {
              "internalType": "uint256",
              "name": "_batchId",
              "type": "uint256"
            },
            {
              "internalType": "string",
              "name": "_name",
              "type": "string"
            },
            {
              "internalType": "uint256",
              "name": "_quantity",
              "type": "uint256"
            },
            {
              "internalType": "string",
              "name": "_mDate",
              "type": "string"
            },
            {
              "internalType": "int8",
              "name": "_temp",
              "type": "int8"
            }
          ],
          "name": "manufactureMedicine",
          "outputs": [],
          "stateMutability": "nonpayable",
          "type": "function"
        },
        {
          "inputs": [],
          "name": "manufacturer",
          "outputs": [
            {
              "internalType": "address",
              "name": "",
              "type": "address"
            }
          ],
          "stateMutability": "view",
          "type": "function"
        },
        {
          "inputs": [
            {
              "internalType": "uint256",
              "name": "",
              "type": "uint256"
            }
          ],
          "name": "medicines",
          "outputs": [
            {
              "internalType": "string",
              "name": "name",
              "type": "string"
            },
            {
              "internalType": "uint256",
              "name": "quantity",
              "type": "uint256"
            },
            {
              "internalType": "address",
              "name": "manufacturer",
              "type": "address"
            },
            {
              "internalType": "address",
              "name": "distributor",
              "type": "address"
            },
            {
              "internalType": "address",
              "name": "retailer",
              "type": "address"
            },
            {
              "internalType": "enum TrackMedicine.Status",
              "name": "status",
              "type": "uint8"
            },
            {
              "internalType": "int8",
              "name": "temp",
              "type": "int8"
            },
            {
              "components": [
                {
                  "internalType": "string",
                  "name": "m_Date",
                  "type": "string"
                },
                {
                  "internalType": "string",
                  "name": "p_Date",
                  "type": "string"
                },
                {
                  "internalType": "string",
                  "name": "s_Date",
                  "type": "string"
                },
                {
                  "internalType": "string",
                  "name": "picDate",
                  "type": "string"
                },
                {
                  "internalType": "string",
                  "name": "d_Date",
                  "type": "string"
                },
                {
                  "internalType": "string",
                  "name": "storeDate",
                  "type": "string"
                }
              ],
              "internalType": "struct TrackMedicine.Dates",
              "name": "dates",
              "type": "tuple"
            },
            {
              "components": [
                {
                  "internalType": "string",
                  "name": "storageLocation",
                  "type": "string"
                }
              ],
              "internalType": "struct TrackMedicine.Location",
              "name": "location",
              "type": "tuple"
            }
          ],
          "stateMutability": "view",
          "type": "function"
        },
        {
          "inputs": [
            {
              "internalType": "uint256",
              "name": "_batchId",
              "type": "uint256"
            },
            {
              "internalType": "string",
              "name": "_pDate",
              "type": "string"
            }
          ],
          "name": "packMedicine",
          "outputs": [],
          "stateMutability": "nonpayable",
          "type": "function"
        },
        {
          "inputs": [
            {
              "internalType": "uint256",
              "name": "_batchId",
              "type": "uint256"
            },
            {
              "internalType": "string",
              "name": "_picDate",
              "type": "string"
            }
          ],
          "name": "pickMedicine",
          "outputs": [],
          "stateMutability": "nonpayable",
          "type": "function"
        },
        {
          "inputs": [
            {
              "internalType": "uint256",
              "name": "_batchId",
              "type": "uint256"
            },
            {
              "internalType": "string",
              "name": "_sDate",
              "type": "string"
            },
            {
              "internalType": "address",
              "name": "_distributor",
              "type": "address"
            }
          ],
          "name": "shipMedicine",
          "outputs": [],
          "stateMutability": "nonpayable",
          "type": "function"
        },
        {
          "inputs": [
            {
              "internalType": "uint256",
              "name": "_batchId",
              "type": "uint256"
            },
            {
              "internalType": "string",
              "name": "_storageLocation",
              "type": "string"
            },
            {
              "internalType": "string",
              "name": "_storeDate",
              "type": "string"
            }
          ],
          "name": "storeMedicine",
          "outputs": [],
          "stateMutability": "nonpayable",
          "type": "function"
        }
      ],
      "evm": {
        "bytecode": {
          "linkReferences": {},
          "object": "6080604052348015600f57600080fd5b5033600160006101000a81548173ffffffffffffffffffffffffffffffffffffffff021916908373ffffffffffffffffffffffffffffffffffffffff160217905550612537806100606000396000f3fe608060405234801561001057600080fd5b50600436106100885760003560e01c80637ead0dd71161005b5780637ead0dd7146100ff5780638a381fd81461011b578063c85e766d14610137578063d804ace81461016f57610088565b8063090e46e31461008d5780631055f23c146100a957806370b184da146100c557806374754282146100e1575b600080fd5b6100a760048036038101906100a291906119b8565b61018b565b005b6100c360048036038101906100be9190611ac9565b6105bb565b005b6100df60048036038101906100da9190611b38565b6108a5565b005b6100e9610acb565b6040516100f69190611ba3565b60405180910390f35b61011960048036038101906101149190611b38565b610af1565b005b61013560048036038101906101309190611bbe565b610d2c565b005b610151600480360381019061014c9190611c49565b610f8e565b60405161016699989796959493929190611eaa565b60405180910390f35b61018960048036038101906101849190611ac9565b6114f0565b005b600160009054906101000a900473ffffffffffffffffffffffffffffffffffffffff1673ffffffffffffffffffffffffffffffffffffffff163373ffffffffffffffffffffffffffffffffffffffff161461021b576040517f08c379a000000000000000000000000000000000000000000000000000000000815260040161021290611f98565b60405180910390fd5b604051806101200160405280858152602001848152602001600160009054906101000a900473ffffffffffffffffffffffffffffffffffffffff1673ffffffffffffffffffffffffffffffffffffffff168152602001600073ffffffffffffffffffffffffffffffffffffffff168152602001600073ffffffffffffffffffffffffffffffffffffffff168152602001600060058111156102bf576102be611d04565b5b81526020018260000b81526020016040518060c00160405280858152602001604051806020016040528060008152508152602001604051806020016040528060008152508152602001604051806020016040528060008152508152602001604051806020016040528060008152508152602001604051806020016040528060008152508152508152602001604051806020016040528060405180602001604052806000815250815250815250600080878152602001908152602001600020600082015181600001908161039291906121c4565b506020820151816001015560408201518160020160006101000a81548173ffffffffffffffffffffffffffffffffffffffff021916908373ffffffffffffffffffffffffffffffffffffffff16021790555060608201518160030160006101000a81548173ffffffffffffffffffffffffffffffffffffffff021916908373ffffffffffffffffffffffffffffffffffffffff16021790555060808201518160040160006101000a81548173ffffffffffffffffffffffffffffffffffffffff021916908373ffffffffffffffffffffffffffffffffffffffff16021790555060a08201518160040160146101000a81548160ff0219169083600581111561049d5761049c611d04565b5b021790555060c08201518160040160156101000a81548160ff021916908360000b60ff16021790555060e08201518160050160008201518160000190816104e491906121c4565b5060208201518160010190816104fa91906121c4565b50604082015181600201908161051091906121c4565b50606082015181600301908161052691906121c4565b50608082015181600401908161053c91906121c4565b5060a082015181600501908161055291906121c4565b50505061010082015181600b01600082015181600001908161057491906121c4565b5050509050507f2da7b23ca63c1eb969eee5fae4acb98186abecf5358b0354a82a5183ebca6b2a8560006040516105ac929190612296565b60405180910390a15050505050565b600160009054906101000a900473ffffffffffffffffffffffffffffffffffffffff1673ffffffffffffffffffffffffffffffffffffffff163373ffffffffffffffffffffffffffffffffffffffff161461064b576040517f08c379a000000000000000000000000000000000000000000000000000000000815260040161064290611f98565b60405180910390fd5b82600180600581111561066157610660611d04565b5b60008084815260200190815260200160002060040160149054906101000a900460ff16600581111561069657610695611d04565b5b146106d6576040517f08c379a00000000000000000000000000000000000000000000000000000000081526004016106cd9061230b565b60405180910390fd5b600080600087815260200190815260200160002060050160000180546106fb90611fe7565b90501161073d576040517f08c379a000000000000000000000000000000000000000000000000000000000815260040161073490612377565b60405180910390fd5b600073ffffffffffffffffffffffffffffffffffffffff168373ffffffffffffffffffffffffffffffffffffffff16036107ac576040517f08c379a00000000000000000000000000000000000000000000000000000000081526004016107a390612409565b60405180910390fd5b8260008087815260200190815260200160002060030160006101000a81548173ffffffffffffffffffffffffffffffffffffffff021916908373ffffffffffffffffffffffffffffffffffffffff16021790555083600080878152602001908152602001600020600501600201908161082591906121c4565b50600260008087815260200190815260200160002060040160146101000a81548160ff0219169083600581111561085f5761085e611d04565b5b02179055507f2da7b23ca63c1eb969eee5fae4acb98186abecf5358b0354a82a5183ebca6b2a856002604051610896929190612296565b60405180910390a15050505050565b600160009054906101000a900473ffffffffffffffffffffffffffffffffffffffff1673ffffffffffffffffffffffffffffffffffffffff163373ffffffffffffffffffffffffffffffffffffffff1614610935576040517f08c379a000000000000000000000000000000000000000000000000000000000815260040161092c90611f98565b60405180910390fd5b81600080600581111561094b5761094a611d04565b5b60008084815260200190815260200160002060040160149054906101000a900460ff1660058111156109805761097f611d04565b5b146109c0576040517f08c379a00000000000000000000000000000000000000000000000000000000081526004016109b79061230b565b60405180910390fd5b600080600086815260200190815260200160002060050160000180546109e590611fe7565b905011610a27576040517f08c379a0000000000000000000000000000000000000000000000000000000008152600401610a1e90612377565b60405180910390fd5b826000808681526020019081526020016000206005016001019081610a4c91906121c4565b50600160008086815260200190815260200160002060040160146101000a81548160ff02191690836005811115610a8657610a85611d04565b5b02179055507f2da7b23ca63c1eb969eee5fae4acb98186abecf5358b0354a82a5183ebca6b2a846001604051610abd929190612296565b60405180910390a150505050565b600160009054906101000a900473ffffffffffffffffffffffffffffffffffffffff1681565b8160008082815260200190815260200160002060030160009054906101000a900473ffffffffffffffffffffffffffffffffffffffff1673ffffffffffffffffffffffffffffffffffffffff163373ffffffffffffffffffffffffffffffffffffffff1614610b95576040517f08c379a0000000000000000000000000000000000000000000000000000000008152600401610b8c90612475565b60405180910390fd5b826002806005811115610bab57610baa611d04565b5b60008084815260200190815260200160002060040160149054906101000a900460ff166005811115610be057610bdf611d04565b5b14610c20576040517f08c379a0000000000000000000000000000000000000000000000000000000008152600401610c179061230b565b60405180910390fd5b60008060008781526020019081526020016000206005016000018054610c4590611fe7565b905011610c87576040517f08c379a0000000000000000000000000000000000000000000000000000000008152600401610c7e90612377565b60405180910390fd5b836000808781526020019081526020016000206005016003019081610cac91906121c4565b50600360008087815260200190815260200160002060040160146101000a81548160ff02191690836005811115610ce657610ce5611d04565b5b02179055507f2da7b23ca63c1eb969eee5fae4acb98186abecf5358b0354a82a5183ebca6b2a856003604051610d1d929190612296565b60405180910390a15050505050565b8260008082815260200190815260200160002060030160009054906101000a900473ffffffffffffffffffffffffffffffffffffffff1673ffffffffffffffffffffffffffffffffffffffff163373ffffffffffffffffffffffffffffffffffffffff1614610dd0576040517f08c379a0000000000000000000000000000000000000000000000000000000008152600401610dc790612475565b60405180910390fd5b836003806005811115610de657610de5611d04565b5b60008084815260200190815260200160002060040160149054906101000a900460ff166005811115610e1b57610e1a611d04565b5b14610e5b576040517f08c379a0000000000000000000000000000000000000000000000000000000008152600401610e529061230b565b60405180910390fd5b60008060008881526020019081526020016000206005016000018054610e8090611fe7565b905011610ec2576040517f08c379a0000000000000000000000000000000000000000000000000000000008152600401610eb990612377565b60405180910390fd5b84600080888152602001908152602001600020600b016000019081610ee791906121c4565b50836000808881526020019081526020016000206005016005019081610f0d91906121c4565b50600460008088815260200190815260200160002060040160146101000a81548160ff02191690836005811115610f4757610f46611d04565b5b02179055507f2da7b23ca63c1eb969eee5fae4acb98186abecf5358b0354a82a5183ebca6b2a866004604051610f7e929190612296565b60405180910390a1505050505050565b6000602052806000526040600020600091509050806000018054610fb190611fe7565b80601f0160208091040260200160405190810160405280929190818152602001828054610fdd90611fe7565b801561102a5780601f10610fff5761010080835404028352916020019161102a565b820191906000526020600020905b81548152906001019060200180831161100d57829003601f168201915b5050505050908060010154908060020160009054906101000a900473ffffffffffffffffffffffffffffffffffffffff16908060030160009054906101000a900473ffffffffffffffffffffffffffffffffffffffff16908060040160009054906101000a900473ffffffffffffffffffffffffffffffffffffffff16908060040160149054906101000a900460ff16908060040160159054906101000a900460000b90806005016040518060c00160405290816000820180546110ed90611fe7565b80601f016020809104026020016040519081016040528092919081815260200182805461111990611fe7565b80156111665780601f1061113b57610100808354040283529160200191611166565b820191906000526020600020905b81548152906001019060200180831161114957829003601f168201915b5050505050815260200160018201805461117f90611fe7565b80601f01602080910402602001604051908101604052809291908181526020018280546111ab90611fe7565b80156111f85780601f106111cd576101008083540402835291602001916111f8565b820191906000526020600020905b8154815290600101906020018083116111db57829003601f168201915b5050505050815260200160028201805461121190611fe7565b80601f016020809104026020016040519081016040528092919081815260200182805461123d90611fe7565b801561128a5780601f1061125f5761010080835404028352916020019161128a565b820191906000526020600020905b81548152906001019060200180831161126d57829003601f168201915b505050505081526020016003820180546112a390611fe7565b80601f01602080910402602001604051908101604052809291908181526020018280546112cf90611fe7565b801561131c5780601f106112f15761010080835404028352916020019161131c565b820191906000526020600020905b8154815290600101906020018083116112ff57829003601f168201915b5050505050815260200160048201805461133590611fe7565b80601f016020809104026020016040519081016040528092919081815260200182805461136190611fe7565b80156113ae5780601f10611383576101008083540402835291602001916113ae565b820191906000526020600020905b81548152906001019060200180831161139157829003601f168201915b505050505081526020016005820180546113c790611fe7565b80601f01602080910402602001604051908101604052809291908181526020018280546113f390611fe7565b80156114405780601f1061141557610100808354040283529160200191611440565b820191906000526020600020905b81548152906001019060200180831161142357829003601f168201915b5050505050815250509080600b0160405180602001604052908160008201805461146990611fe7565b80601f016020809104026020016040519081016040528092919081815260200182805461149590611fe7565b80156114e25780601f106114b7576101008083540402835291602001916114e2565b820191906000526020600020905b8154815290600101906020018083116114c557829003601f168201915b505050505081525050905089565b8260008082815260200190815260200160002060030160009054906101000a900473ffffffffffffffffffffffffffffffffffffffff1673ffffffffffffffffffffffffffffffffffffffff163373ffffffffffffffffffffffffffffffffffffffff1614611594576040517f08c379a000000000000000000000000000000000000000000000000000000000815260040161158b90612475565b60405180910390fd5b8360048060058111156115aa576115a9611d04565b5b60008084815260200190815260200160002060040160149054906101000a900460ff1660058111156115df576115de611d04565b5b1461161f576040517f08c379a00000000000000000000000000000000000000000000000000000000081526004016116169061230b565b60405180910390fd5b6000806000888152602001908152602001600020600501600001805461164490611fe7565b905011611686576040517f08c379a000000000000000000000000000000000000000000000000000000000815260040161167d90612377565b60405180910390fd5b600073ffffffffffffffffffffffffffffffffffffffff168473ffffffffffffffffffffffffffffffffffffffff16036116f5576040517f08c379a00000000000000000000000000000000000000000000000000000000081526004016116ec906124e1565b60405180910390fd5b8360008088815260200190815260200160002060040160006101000a81548173ffffffffffffffffffffffffffffffffffffffff021916908373ffffffffffffffffffffffffffffffffffffffff16021790555084600080888152602001908152602001600020600501600401908161176e91906121c4565b50600560008088815260200190815260200160002060040160146101000a81548160ff021916908360058111156117a8576117a7611d04565b5b02179055507f2da7b23ca63c1eb969eee5fae4acb98186abecf5358b0354a82a5183ebca6b2a8660056040516117df929190612296565b60405180910390a1505050505050565b6000604051905090565b600080fd5b600080fd5b6000819050919050565b61181681611803565b811461182157600080fd5b50565b6000813590506118338161180d565b92915050565b600080fd5b600080fd5b6000601f19601f8301169050919050565b7f4e487b7100000000000000000000000000000000000000000000000000000000600052604160045260246000fd5b61188c82611843565b810181811067ffffffffffffffff821117156118ab576118aa611854565b5b80604052505050565b60006118be6117ef565b90506118ca8282611883565b919050565b600067ffffffffffffffff8211156118ea576118e9611854565b5b6118f382611843565b9050602081019050919050565b82818337600083830152505050565b600061192261191d846118cf565b6118b4565b90508281526020810184848401111561193e5761193d61183e565b5b611949848285611900565b509392505050565b600082601f83011261196657611965611839565b5b813561197684826020860161190f565b91505092915050565b60008160000b9050919050565b6119958161197f565b81146119a057600080fd5b50565b6000813590506119b28161198c565b92915050565b600080600080600060a086880312156119d4576119d36117f9565b5b60006119e288828901611824565b955050602086013567ffffffffffffffff811115611a0357611a026117fe565b5b611a0f88828901611951565b9450506040611a2088828901611824565b935050606086013567ffffffffffffffff811115611a4157611a406117fe565b5b611a4d88828901611951565b9250506080611a5e888289016119a3565b9150509295509295909350565b600073ffffffffffffffffffffffffffffffffffffffff82169050919050565b6000611a9682611a6b565b9050919050565b611aa681611a8b565b8114611ab157600080fd5b50565b600081359050611ac381611a9d565b92915050565b600080600060608486031215611ae257611ae16117f9565b5b6000611af086828701611824565b935050602084013567ffffffffffffffff811115611b1157611b106117fe565b5b611b1d86828701611951565b9250506040611b2e86828701611ab4565b9150509250925092565b60008060408385031215611b4f57611b4e6117f9565b5b6000611b5d85828601611824565b925050602083013567ffffffffffffffff811115611b7e57611b7d6117fe565b5b611b8a85828601611951565b9150509250929050565b611b9d81611a8b565b82525050565b6000602082019050611bb86000830184611b94565b92915050565b600080600060608486031215611bd757611bd66117f9565b5b6000611be586828701611824565b935050602084013567ffffffffffffffff811115611c0657611c056117fe565b5b611c1286828701611951565b925050604084013567ffffffffffffffff811115611c3357611c326117fe565b5b611c3f86828701611951565b9150509250925092565b600060208284031215611c5f57611c5e6117f9565b5b6000611c6d84828501611824565b91505092915050565b600081519050919050565b600082825260208201905092915050565b60005b83811015611cb0578082015181840152602081019050611c95565b60008484015250505050565b6000611cc782611c76565b611cd18185611c81565b9350611ce1818560208601611c92565b611cea81611843565b840191505092915050565b611cfe81611803565b82525050565b7f4e487b7100000000000000000000000000000000000000000000000000000000600052602160045260246000fd5b60068110611d4457611d43611d04565b5b50565b6000819050611d5582611d33565b919050565b6000611d6582611d47565b9050919050565b611d7581611d5a565b82525050565b611d848161197f565b82525050565b600082825260208201905092915050565b6000611da682611c76565b611db08185611d8a565b9350611dc0818560208601611c92565b611dc981611843565b840191505092915050565b600060c0830160008301518482036000860152611df18282611d9b565b91505060208301518482036020860152611e0b8282611d9b565b91505060408301518482036040860152611e258282611d9b565b91505060608301518482036060860152611e3f8282611d9b565b91505060808301518482036080860152611e598282611d9b565b91505060a083015184820360a0860152611e738282611d9b565b9150508091505092915050565b60006020830160008301518482036000860152611e9d8282611d9b565b9150508091505092915050565b6000610120820190508181036000830152611ec5818c611cbc565b9050611ed4602083018b611cf5565b611ee1604083018a611b94565b611eee6060830189611b94565b611efb6080830188611b94565b611f0860a0830187611d6c565b611f1560c0830186611d7b565b81810360e0830152611f278185611dd4565b9050818103610100830152611f3c8184611e80565b90509a9950505050505050505050565b7f4e6f7420746865206d616e756661637475726572000000000000000000000000600082015250565b6000611f82601483611c81565b9150611f8d82611f4c565b602082019050919050565b60006020820190508181036000830152611fb181611f75565b9050919050565b7f4e487b7100000000000000000000000000000000000000000000000000000000600052602260045260246000fd5b60006002820490506001821680611fff57607f821691505b60208210810361201257612011611fb8565b5b50919050565b60008190508160005260206000209050919050565b60006020601f8301049050919050565b600082821b905092915050565b60006008830261207a7fffffffffffffffffffffffffffffffffffffffffffffffffffffffffffffffff8261203d565b612084868361203d565b95508019841693508086168417925050509392505050565b6000819050919050565b60006120c16120bc6120b784611803565b61209c565b611803565b9050919050565b6000819050919050565b6120db836120a6565b6120ef6120e7826120c8565b84845461204a565b825550505050565b600090565b6121046120f7565b61210f8184846120d2565b505050565b5b81811015612133576121286000826120fc565b600181019050612115565b5050565b601f8211156121785761214981612018565b6121528461202d565b81016020851015612161578190505b61217561216d8561202d565b830182612114565b50505b505050565b600082821c905092915050565b600061219b6000198460080261217d565b1980831691505092915050565b60006121b4838361218a565b9150826002028217905092915050565b6121cd82611c76565b67ffffffffffffffff8111156121e6576121e5611854565b5b6121f08254611fe7565b6121fb828285612137565b600060209050601f83116001811461222e576000841561221c578287015190505b61222685826121a8565b86555061228e565b601f19841661223c86612018565b60005b828110156122645784890151825560018201915060208501945060208101905061223f565b86831015612281578489015161227d601f89168261218a565b8355505b6001600288020188555050505b505050505050565b60006040820190506122ab6000830185611cf5565b6122b86020830184611d6c565b9392505050565b7f496e76616c6964207374617465207472616e736974696f6e0000000000000000600082015250565b60006122f5601883611c81565b9150612300826122bf565b602082019050919050565b60006020820190508181036000830152612324816122e8565b9050919050565b7f426174636820494420646f6573206e6f74206578697374000000000000000000600082015250565b6000612361601783611c81565b915061236c8261232b565b602082019050919050565b6000602082019050818103600083015261239081612354565b9050919050565b7f4469737472696275746f7220616464726573732063616e6e6f74206265207a6560008201527f726f000000000000000000000000000000000000000000000000000000000000602082015250565b60006123f3602283611c81565b91506123fe82612397565b604082019050919050565b60006020820190508181036000830152612422816123e6565b9050919050565b7f4e6f7420746865206469737472696275746f7200000000000000000000000000600082015250565b600061245f601383611c81565b915061246a82612429565b602082019050919050565b6000602082019050818103600083015261248e81612452565b9050919050565b7f52657461696c657220616464726573732063616e6e6f74206265207a65726f00600082015250565b60006124cb601f83611c81565b91506124d682612495565b602082019050919050565b600060208201905081810360008301526124fa816124be565b905091905056fea26469706673582212202bfd9778f68894e284f8bbda2675fbd5ef0d71be4060f15acbfbabd79d38f69564736f6c634300081c0033",
          "opcodes": "PUSH1 0x80 PUSH1 0x40 MSTORE CALLVALUE DUP1 ISZERO PUSH1 0xF JUMPI PUSH1 0x0 DUP1 REVERT JUMPDEST POP CALLER PUSH1 0x1 PUSH1 0x0 PUSH2 0x100 EXP DUP2 SLOAD DUP2 PUSH20 0xFFFFFFFFFFFFFFFFFFFFFFFFFFFFFFFFFFFFFFFF MUL NOT AND SWAP1 DUP4 PUSH20 0xFFFFFFFFFFFFFFFFFFFFFFFFFFFFFFFFFFFFFFFF AND MUL OR SWAP1 SSTORE POP PUSH2 0x2537 DUP1 PUSH2 0x60 PUSH1 0x0 CODECOPY PUSH1 0x0 RETURN INVALID PUSH1 0x80 PUSH1 0x40 MSTORE CALLVALUE DUP1 ISZERO PUSH2 0x10 JUMPI PUSH1 0x0 DUP1 REVERT JUMPDEST POP PUSH1 0x4 CALLDATASIZE LT PUSH2 0x88 JUMPI PUSH1 0x0 CALLDATALOAD PUSH1 0xE0 SHR DUP1 PUSH4 0x7EAD0DD7 GT PUSH2 0x5B JUMPI DUP1 PUSH4 0x7EAD0DD7 EQ PUSH2 0xFF JUMPI DUP1 PUSH4 0x8A381FD8 EQ PUSH2 0x11B JUMPI DUP1 PUSH4 0xC85E766D EQ PUSH2 0x137 JUMPI DUP1 PUSH4 0xD804ACE8 EQ PUSH2 0x16F JUMPI PUSH2 0x88 JUMP JUMPDEST DUP1 PUSH4 0x90E46E3 EQ PUSH2 0x8D JUMPI DUP1 PUSH4 0x1055F23C EQ PUSH2 0xA9 JUMPI DUP1 PUSH4 0x70B184DA EQ PUSH2 0xC5 JUMPI DUP1 PUSH4 0x74754282 EQ PUSH2 0xE1 JUMPI JUMPDEST PUSH1 0x0 DUP1 REVERT JUMPDEST PUSH2 0xA7 PUSH1 0x4 DUP1 CALLDATASIZE SUB DUP2 ADD SWAP1 PUSH2 0xA2 SWAP2 SWAP1 PUSH2 0x19B8 JUMP JUMPDEST PUSH2 0x18B JUMP JUMPDEST STOP JUMPDEST PUSH2 0xC3 PUSH1 0x4 DUP1 CALLDATASIZE SUB DUP2 ADD SWAP1 PUSH2 0xBE SWAP2 SWAP1 PUSH2 0x1AC9 JUMP JUMPDEST PUSH2 0x5BB JUMP JUMPDEST STOP JUMPDEST PUSH2 0xDF PUSH1 0x4 DUP1 CALLDATASIZE SUB DUP2 ADD SWAP1 PUSH2 0xDA SWAP2 SWAP1 PUSH2 0x1B38 JUMP JUMPDEST PUSH2 0x8A5 JUMP JUMPDEST STOP JUMPDEST PUSH2 0xE9 PUSH2 0xACB JUMP JUMPDEST PUSH1 0x40 MLOAD PUSH2 0xF6 SWAP2 SWAP1 PUSH2 0x1BA3 JUMP JUMPDEST PUSH1 0x40 MLOAD DUP1 SWAP2 SUB SWAP1 RETURN JUMPDEST PUSH2 0x119 PUSH1 0x4 DUP1 CALLDATASIZE SUB DUP2 ADD SWAP1 PUSH2 0x114 SWAP2 SWAP1 PUSH2 0x1B38 JUMP JUMPDEST PUSH2 0xAF1 JUMP JUMPDEST STOP JUMPDEST PUSH2 0x135 PUSH1 0x4 DUP1 CALLDATASIZE SUB DUP2 ADD SWAP1 PUSH2 0x130 SWAP2 SWAP1 PUSH2 0x1BBE JUMP JUMPDEST PUSH2 0xD2C JUMP JUMPDEST STOP JUMPDEST PUSH2 0x151 PUSH1 0x4 DUP1 CALLDATASIZE SUB DUP2 ADD SWAP1 PUSH2 0x14C SWAP2 SWAP1 PUSH2 0x1C49 JUMP JUMPDEST PUSH2 0xF8E JUMP JUMPDEST PUSH1 0x40 MLOAD PUSH2 0x166 SWAP10 SWAP9 SWAP8 SWAP7 SWAP6 SWAP5 SWAP4 SWAP3 SWAP2 SWAP1 PUSH2 0x1EAA JUMP JUMPDEST PUSH1 0x40 MLOAD DUP1 SWAP2 SUB SWAP1 RETURN JUMPDEST PUSH2 0x189 PUSH1 0x4 DUP1 CALLDATASIZE SUB DUP2 ADD SWAP1 PUSH2 0x184 SWAP2 SWAP1 PUSH2 0x1AC9 JUMP JUMPDEST PUSH2 0x14F0 JUMP JUMPDEST STOP JUMPDEST PUSH1 0x1 PUSH1 0x0 SWAP1 SLOAD SWAP1 PUSH2 0x100 EXP SWAP1 DIV PUSH20 0xFFFFFFFFFFFFFFFFFFFFFFFFFFFFFFFFFFFFFFFF AND PUSH20 0xFFFFFFFFFFFFFFFFFFFFFFFFFFFFFFFFFFFFFFFF AND CALLER PUSH20 0xFFFFFFFFFFFFFFFFFFFFFFFFFFFFFFFFFFFFFFFF AND EQ PUSH2 0x21B JUMPI PUSH1 0x40 MLOAD PUSH32 0x8C379A000000000000000000000000000000000000000000000000000000000 DUP2 MSTORE PUSH1 0x4 ADD PUSH2 0x212 SWAP1 PUSH2 0x1F98 JUMP JUMPDEST PUSH1 0x40 MLOAD DUP1 SWAP2 SUB SWAP1 REVERT JUMPDEST PUSH1 0x40 MLOAD DUP1 PUSH2 0x120 ADD PUSH1 0x40 MSTORE DUP1 DUP6 DUP2 MSTORE PUSH1 0x20 ADD DUP5 DUP2 MSTORE PUSH1 0x20 ADD PUSH1 0x1 PUSH1 0x0 SWAP1 SLOAD SWAP1 PUSH2 0x100 EXP SWAP1 DIV PUSH20 0xFFFFFFFFFFFFFFFFFFFFFFFFFFFFFFFFFFFFFFFF AND PUSH20 0xFFFFFFFFFFFFFFFFFFFFFFFFFFFFFFFFFFFFFFFF AND DUP2 MSTORE PUSH1 0x20 ADD PUSH1 0x0 PUSH20 0xFFFFFFFFFFFFFFFFFFFFFFFFFFFFFFFFFFFFFFFF AND DUP2 MSTORE PUSH1 0x20 ADD PUSH1 0x0 PUSH20 0xFFFFFFFFFFFFFFFFFFFFFFFFFFFFFFFFFFFFFFFF AND DUP2 MSTORE PUSH1 0x20 ADD PUSH1 0x0 PUSH1 0x5 DUP2 GT ISZERO PUSH2 0x2BF JUMPI PUSH2 0x2BE PUSH2 0x1D04 JUMP JUMPDEST JUMPDEST DUP2 MSTORE PUSH1 0x20 ADD DUP3 PUSH1 0x0 SIGNEXTEND DUP2 MSTORE PUSH1 0x20 ADD PUSH1 0x40 MLOAD DUP1 PUSH1 0xC0 ADD PUSH1 0x40 MSTORE DUP1 DUP6 DUP2 MSTORE PUSH1 0x20 ADD PUSH1 0x40 MLOAD DUP1 PUSH1 0x20 ADD PUSH1 0x40 MSTORE DUP1 PUSH1 0x0 DUP2 MSTORE POP DUP2 MSTORE PUSH1 0x20 ADD PUSH1 0x40 MLOAD DUP1 PUSH1 0x20 ADD PUSH1 0x40 MSTORE DUP1 PUSH1 0x0 DUP2 MSTORE POP DUP2 MSTORE PUSH1 0x20 ADD PUSH1 0x40 MLOAD DUP1 PUSH1 0x20 ADD PUSH1 0x40 MSTORE DUP1 PUSH1 0x0 DUP2 MSTORE POP DUP2 MSTORE PUSH1 0x20 ADD PUSH1 0x40 MLOAD DUP1 PUSH1 0x20 ADD PUSH1 0x40 MSTORE DUP1 PUSH1 0x0 DUP2 MSTORE POP DUP2 MSTORE PUSH1 0x20 ADD PUSH1 0x40 MLOAD DUP1 PUSH1 0x20 ADD PUSH1 0x40 MSTORE DUP1 PUSH1 0x0 DUP2 MSTORE POP DUP2 MSTORE POP DUP2 MSTORE PUSH1 0x20 ADD PUSH1 0x40 MLOAD DUP1 PUSH1 0x20 ADD PUSH1 0x40 MSTORE DUP1 PUSH1 0x40 MLOAD DUP1 PUSH1 0x20 ADD PUSH1 0x40 MSTORE DUP1 PUSH1 0x0 DUP2 MSTORE POP DUP2 MSTORE POP DUP2 MSTORE POP PUSH1 0x0 DUP1 DUP8 DUP2 MSTORE PUSH1 0x20 ADD SWAP1 DUP2 MSTORE PUSH1 0x20 ADD PUSH1 0x0 KECCAK256 PUSH1 0x0 DUP3 ADD MLOAD DUP2 PUSH1 0x0 ADD SWAP1 DUP2 PUSH2 0x392 SWAP2 SWAP1 PUSH2 0x21C4 JUMP JUMPDEST POP PUSH1 0x20 DUP3 ADD MLOAD DUP2 PUSH1 0x1 ADD SSTORE PUSH1 0x40 DUP3 ADD MLOAD DUP2 PUSH1 0x2 ADD PUSH1 0x0 PUSH2 0x100 EXP DUP2 SLOAD DUP2 PUSH20 0xFFFFFFFFFFFFFFFFFFFFFFFFFFFFFFFFFFFFFFFF MUL NOT AND SWAP1 DUP4 PUSH20 0xFFFFFFFFFFFFFFFFFFFFFFFFFFFFFFFFFFFFFFFF AND MUL OR SWAP1 SSTORE POP PUSH1 0x60 DUP3 ADD MLOAD DUP2 PUSH1 0x3 ADD PUSH1 0x0 PUSH2 0x100 EXP DUP2 SLOAD DUP2 PUSH20 0xFFFFFFFFFFFFFFFFFFFFFFFFFFFFFFFFFFFFFFFF MUL NOT AND SWAP1 DUP4 PUSH20 0xFFFFFFFFFFFFFFFFFFFFFFFFFFFFFFFFFFFFFFFF AND MUL OR SWAP1 SSTORE POP PUSH1 0x80 DUP3 ADD MLOAD DUP2 PUSH1 0x4 ADD PUSH1 0x0 PUSH2 0x100 EXP DUP2 SLOAD DUP2 PUSH20 0xFFFFFFFFFFFFFFFFFFFFFFFFFFFFFFFFFFFFFFFF MUL NOT AND SWAP1 DUP4 PUSH20 0xFFFFFFFFFFFFFFFFFFFFFFFFFFFFFFFFFFFFFFFF AND MUL OR SWAP1 SSTORE POP PUSH1 0xA0 DUP3 ADD MLOAD DUP2 PUSH1 0x4 ADD PUSH1 0x14 PUSH2 0x100 EXP DUP2 SLOAD DUP2 PUSH1 0xFF MUL NOT AND SWAP1 DUP4 PUSH1 0x5 DUP2 GT ISZERO PUSH2 0x49D JUMPI PUSH2 0x49C PUSH2 0x1D04 JUMP JUMPDEST JUMPDEST MUL OR SWAP1 SSTORE POP PUSH1 0xC0 DUP3 ADD MLOAD DUP2 PUSH1 0x4 ADD PUSH1 0x15 PUSH2 0x100 EXP DUP2 SLOAD DUP2 PUSH1 0xFF MUL NOT AND SWAP1 DUP4 PUSH1 0x0 SIGNEXTEND PUSH1 0xFF AND MUL OR SWAP1 SSTORE POP PUSH1 0xE0 DUP3 ADD MLOAD DUP2 PUSH1 0x5 ADD PUSH1 0x0 DUP3 ADD MLOAD DUP2 PUSH1 0x0 ADD SWAP1 DUP2 PUSH2 0x4E4 SWAP2 SWAP1 PUSH2 0x21C4 JUMP JUMPDEST POP PUSH1 0x20 DUP3 ADD MLOAD DUP2 PUSH1 0x1 ADD SWAP1 DUP2 PUSH2 0x4FA SWAP2 SWAP1 PUSH2 0x21C4 JUMP JUMPDEST POP PUSH1 0x40 DUP3 ADD MLOAD DUP2 PUSH1 0x2 ADD SWAP1 DUP2 PUSH2 0x510 SWAP2 SWAP1 PUSH2 0x21C4 JUMP JUMPDEST POP PUSH1 0x60 DUP3 ADD MLOAD DUP2 PUSH1 0x3 ADD SWAP1 DUP2 PUSH2 0x526 SWAP2 SWAP1 PUSH2 0x21C4 JUMP JUMPDEST POP PUSH1 0x80 DUP3 ADD MLOAD DUP2 PUSH1 0x4 ADD SWAP1 DUP2 PUSH2 0x53C SWAP2 SWAP1 PUSH2 0x21C4 JUMP JUMPDEST POP PUSH1 0xA0 DUP3 ADD MLOAD DUP2 PUSH1 0x5 ADD SWAP1 DUP2 PUSH2 0x552 SWAP2 SWAP1 PUSH2 0x21C4 JUMP JUMPDEST POP POP POP PUSH2 0x100 DUP3 ADD MLOAD DUP2 PUSH1 0xB ADD PUSH1 0x0 DUP3 ADD MLOAD DUP2 PUSH1 0x0 ADD SWAP1 DUP2 PUSH2 0x574 SWAP2 SWAP1 PUSH2 0x21C4 JUMP JUMPDEST POP POP POP SWAP1 POP POP PUSH32 0x2DA7B23CA63C1EB969EEE5FAE4ACB98186ABECF5358B0354A82A5183EBCA6B2A DUP6 PUSH1 0x0 PUSH1 0x40 MLOAD PUSH2 0x5AC SWAP3 SWAP2 SWAP1 PUSH2 0x2296 JUMP JUMPDEST PUSH1 0x40 MLOAD DUP1 SWAP2 SUB SWAP1 LOG1 POP POP POP POP POP JUMP JUMPDEST PUSH1 0x1 PUSH1 0x0 SWAP1 SLOAD SWAP1 PUSH2 0x100 EXP SWAP1 DIV PUSH20 0xFFFFFFFFFFFFFFFFFFFFFFFFFFFFFFFFFFFFFFFF AND PUSH20 0xFFFFFFFFFFFFFFFFFFFFFFFFFFFFFFFFFFFFFFFF AND CALLER PUSH20 0xFFFFFFFFFFFFFFFFFFFFFFFFFFFFFFFFFFFFFFFF AND EQ PUSH2 0x64B JUMPI PUSH1 0x40 MLOAD PUSH32 0x8C379A000000000000000000000000000000000000000000000000000000000 DUP2 MSTORE PUSH1 0x4 ADD PUSH2 0x642 SWAP1 PUSH2 0x1F98 JUMP JUMPDEST PUSH1 0x40 MLOAD DUP1 SWAP2 SUB SWAP1 REVERT JUMPDEST DUP3 PUSH1 0x1 DUP1 PUSH1 0x5 DUP2 GT ISZERO PUSH2 0x661 JUMPI PUSH2 0x660 PUSH2 0x1D04 JUMP JUMPDEST JUMPDEST PUSH1 0x0 DUP1 DUP5 DUP2 MSTORE PUSH1 0x20 ADD SWAP1 DUP2 MSTORE PUSH1 0x20 ADD PUSH1 0x0 KECCAK256 PUSH1 0x4 ADD PUSH1 0x14 SWAP1 SLOAD SWAP1 PUSH2 0x100 EXP SWAP1 DIV PUSH1 0xFF AND PUSH1 0x5 DUP2 GT ISZERO PUSH2 0x696 JUMPI PUSH2 0x695 PUSH2 0x1D04 JUMP JUMPDEST JUMPDEST EQ PUSH2 0x6D6 JUMPI PUSH1 0x40 MLOAD PUSH32 0x8C379A000000000000000000000000000000000000000000000000000000000 DUP2 MSTORE PUSH1 0x4 ADD PUSH2 0x6CD SWAP1 PUSH2 0x230B JUMP JUMPDEST PUSH1 0x40 MLOAD DUP1 SWAP2 SUB SWAP1 REVERT JUMPDEST PUSH1 0x0 DUP1 PUSH1 0x0 DUP8 DUP2 MSTORE PUSH1 0x20 ADD SWAP1 DUP2 MSTORE PUSH1 0x20 ADD PUSH1 0x0 KECCAK256 PUSH1 0x5 ADD PUSH1 0x0 ADD DUP1 SLOAD PUSH2 0x6FB SWAP1 PUSH2 0x1FE7 JUMP JUMPDEST SWAP1 POP GT PUSH2 0x73D JUMPI PUSH1 0x40 MLOAD PUSH32 0x8C379A000000000000000000000000000000000000000000000000000000000 DUP2 MSTORE PUSH1 0x4 ADD PUSH2 0x734 SWAP1 PUSH2 0x2377 JUMP JUMPDEST PUSH1 0x40 MLOAD DUP1 SWAP2 SUB SWAP1 REVERT JUMPDEST PUSH1 0x0 PUSH20 0xFFFFFFFFFFFFFFFFFFFFFFFFFFFFFFFFFFFFFFFF AND DUP4 PUSH20 0xFFFFFFFFFFFFFFFFFFFFFFFFFFFFFFFFFFFFFFFF AND SUB PUSH2 0x7AC JUMPI PUSH1 0x40 MLOAD PUSH32 0x8C379A000000000000000000000000000000000000000000000000000000000 DUP2 MSTORE PUSH1 0x4 ADD PUSH2 0x7A3 SWAP1 PUSH2 0x2409 JUMP JUMPDEST PUSH1 0x40 MLOAD DUP1 SWAP2 SUB SWAP1 REVERT JUMPDEST DUP3 PUSH1 0x0 DUP1 DUP8 DUP2 MSTORE PUSH1 0x20 ADD SWAP1 DUP2 MSTORE PUSH1 0x20 ADD PUSH1 0x0 KECCAK256 PUSH1 0x3 ADD PUSH1 0x0 PUSH2 0x100 EXP DUP2 SLOAD DUP2 PUSH20 0xFFFFFFFFFFFFFFFFFFFFFFFFFFFFFFFFFFFFFFFF MUL NOT AND SWAP1 DUP4 PUSH20 0xFFFFFFFFFFFFFFFFFFFFFFFFFFFFFFFFFFFFFFFF AND MUL OR SWAP1 SSTORE POP DUP4 PUSH1 0x0 DUP1 DUP8 DUP2 MSTORE PUSH1 0x20 ADD SWAP1 DUP2 MSTORE PUSH1 0x20 ADD PUSH1 0x0 KECCAK256 PUSH1 0x5 ADD PUSH1 0x2 ADD SWAP1 DUP2 PUSH2 0x825 SWAP2 SWAP1 PUSH2 0x21C4 JUMP JUMPDEST POP PUSH1 0x2 PUSH1 0x0 DUP1 DUP8 DUP2 MSTORE PUSH1 0x20 ADD SWAP1 DUP2 MSTORE PUSH1 0x20 ADD PUSH1 0x0 KECCAK256 PUSH1 0x4 ADD PUSH1 0x14 PUSH2 0x100 EXP DUP2 SLOAD DUP2 PUSH1 0xFF MUL NOT AND SWAP1 DUP4 PUSH1 0x5 DUP2 GT ISZERO PUSH2 0x85F JUMPI PUSH2 0x85E PUSH2 0x1D04 JUMP JUMPDEST JUMPDEST MUL OR SWAP1 SSTORE POP PUSH32 0x2DA7B23CA63C1EB969EEE5FAE4ACB98186ABECF5358B0354A82A5183EBCA6B2A DUP6 PUSH1 0x2 PUSH1 0x40 MLOAD PUSH2 0x896 SWAP3 SWAP2 SWAP1 PUSH2 0x2296 JUMP JUMPDEST PUSH1 0x40 MLOAD DUP1 SWAP2 SUB SWAP1 LOG1 POP POP POP POP POP JUMP JUMPDEST PUSH1 0x1 PUSH1 0x0 SWAP1 SLOAD SWAP1 PUSH2 0x100 EXP SWAP1 DIV PUSH20 0xFFFFFFFFFFFFFFFFFFFFFFFFFFFFFFFFFFFFFFFF AND PUSH20 0xFFFFFFFFFFFFFFFFFFFFFFFFFFFFFFFFFFFFFFFF AND CALLER PUSH20 0xFFFFFFFFFFFFFFFFFFFFFFFFFFFFFFFFFFFFFFFF AND EQ PUSH2 0x935 JUMPI PUSH1 0x40 MLOAD PUSH32 0x8C379A000000000000000000000000000000000000000000000000000000000 DUP2 MSTORE PUSH1 0x4 ADD PUSH2 0x92C SWAP1 PUSH2 0x1F98 JUMP JUMPDEST PUSH1 0x40 MLOAD DUP1 SWAP2 SUB SWAP1 REVERT JUMPDEST DUP2 PUSH1 0x0 DUP1 PUSH1 0x5 DUP2 GT ISZERO PUSH2 0x94B JUMPI PUSH2 0x94A PUSH2 0x1D04 JUMP JUMPDEST JUMPDEST PUSH1 0x0 DUP1 DUP5 DUP2 MSTORE PUSH1 0x20 ADD SWAP1 DUP2 MSTORE PUSH1 0x20 ADD PUSH1 0x0 KECCAK256 PUSH1 0x4 ADD PUSH1 0x14 SWAP1 SLOAD SWAP1 PUSH2 0x100 EXP SWAP1 DIV PUSH1 0xFF AND PUSH1 0x5 DUP2 GT ISZERO PUSH2 0x980 JUMPI PUSH2 0x97F PUSH2 0x1D04 JUMP JUMPDEST JUMPDEST EQ PUSH2 0x9C0 JUMPI PUSH1 0x40 MLOAD PUSH32 0x8C379A000000000000000000000000000000000000000000000000000000000 DUP2 MSTORE PUSH1 0x4 ADD PUSH2 0x9B7 SWAP1 PUSH2 0x230B JUMP JUMPDEST PUSH1 0x40 MLOAD DUP1 SWAP2 SUB SWAP1 REVERT JUMPDEST PUSH1 0x0 DUP1 PUSH1 0x0 DUP7 DUP2 MSTORE PUSH1 0x20 ADD SWAP1 DUP2 MSTORE PUSH1 0x20 ADD PUSH1 0x0 KECCAK256 PUSH1 0x5 ADD PUSH1 0x0 ADD DUP1 SLOAD PUSH2 0x9E5 SWAP1 PUSH2 0x1FE7 JUMP JUMPDEST SWAP1 POP GT PUSH2 0xA27 JUMPI PUSH1 0x40 MLOAD PUSH32 0x8C379A000000000000000000000000000000000000000000000000000000000 DUP2 MSTORE PUSH1 0x4 ADD PUSH2 0xA1E SWAP1 PUSH2 0x2377 JUMP JUMPDEST PUSH1 0x40 MLOAD DUP1 SWAP2 SUB SWAP1 REVERT JUMPDEST DUP3 PUSH1 0x0 DUP1 DUP7 DUP2 MSTORE PUSH1 0x20 ADD SWAP1 DUP2 MSTORE PUSH1 0x20 ADD PUSH1 0x0 KECCAK256 PUSH1 0x5 ADD PUSH1 0x1 ADD SWAP1 DUP2 PUSH2 0xA4C SWAP2 SWAP1 PUSH2 0x21C4 JUMP JUMPDEST POP PUSH1 0x1 PUSH1 0x0 DUP1 DUP7 DUP2 MSTORE PUSH1 0x20 ADD SWAP1 DUP2 MSTORE PUSH1 0x20 ADD PUSH1 0x0 KECCAK256 PUSH1 0x4 ADD PUSH1 0x14 PUSH2 0x100 EXP DUP2 SLOAD DUP2 PUSH1 0xFF MUL NOT AND SWAP1 DUP4 PUSH1 0x5 DUP2 GT ISZERO PUSH2 0xA86 JUMPI PUSH2 0xA85 PUSH2 0x1D04 JUMP JUMPDEST JUMPDEST MUL OR SWAP1 SSTORE POP PUSH32 0x2DA7B23CA63C1EB969EEE5FAE4ACB98186ABECF5358B0354A82A5183EBCA6B2A DUP5 PUSH1 0x1 PUSH1 0x40 MLOAD PUSH2 0xABD SWAP3 SWAP2 SWAP1 PUSH2 0x2296 JUMP JUMPDEST PUSH1 0x40 MLOAD DUP1 SWAP2 SUB SWAP1 LOG1 POP POP POP POP JUMP JUMPDEST PUSH1 0x1 PUSH1 0x0 SWAP1 SLOAD SWAP1 PUSH2 0x100 EXP SWAP1 DIV PUSH20 0xFFFFFFFFFFFFFFFFFFFFFFFFFFFFFFFFFFFFFFFF AND DUP2 JUMP JUMPDEST DUP2 PUSH1 0x0 DUP1 DUP3 DUP2 MSTORE PUSH1 0x20 ADD SWAP1 DUP2 MSTORE PUSH1 0x20 ADD PUSH1 0x0 KECCAK256 PUSH1 0x3 ADD PUSH1 0x0 SWAP1 SLOAD SWAP1 PUSH2 0x100 EXP SWAP1 DIV PUSH20 0xFFFFFFFFFFFFFFFFFFFFFFFFFFFFFFFFFFFFFFFF AND PUSH20 0xFFFFFFFFFFFFFFFFFFFFFFFFFFFFFFFFFFFFFFFF AND CALLER PUSH20 0xFFFFFFFFFFFFFFFFFFFFFFFFFFFFFFFFFFFFFFFF AND EQ PUSH2 0xB95 JUMPI PUSH1 0x40 MLOAD PUSH32 0x8C379A000000000000000000000000000000000000000000000000000000000 DUP2 MSTORE PUSH1 0x4 ADD PUSH2 0xB8C SWAP1 PUSH2 0x2475 JUMP JUMPDEST PUSH1 0x40 MLOAD DUP1 SWAP2 SUB SWAP1 REVERT JUMPDEST DUP3 PUSH1 0x2 DUP1 PUSH1 0x5 DUP2 GT ISZERO PUSH2 0xBAB JUMPI PUSH2 0xBAA PUSH2 0x1D04 JUMP JUMPDEST JUMPDEST PUSH1 0x0 DUP1 DUP5 DUP2 MSTORE PUSH1 0x20 ADD SWAP1 DUP2 MSTORE PUSH1 0x20 ADD PUSH1 0x0 KECCAK256 PUSH1 0x4 ADD PUSH1 0x14 SWAP1 SLOAD SWAP1 PUSH2 0x100 EXP SWAP1 DIV PUSH1 0xFF AND PUSH1 0x5 DUP2 GT ISZERO PUSH2 0xBE0 JUMPI PUSH2 0xBDF PUSH2 0x1D04 JUMP JUMPDEST JUMPDEST EQ PUSH2 0xC20 JUMPI PUSH1 0x40 MLOAD PUSH32 0x8C379A000000000000000000000000000000000000000000000000000000000 DUP2 MSTORE PUSH1 0x4 ADD PUSH2 0xC17 SWAP1 PUSH2 0x230B JUMP JUMPDEST PUSH1 0x40 MLOAD DUP1 SWAP2 SUB SWAP1 REVERT JUMPDEST PUSH1 0x0 DUP1 PUSH1 0x0 DUP8 DUP2 MSTORE PUSH1 0x20 ADD SWAP1 DUP2 MSTORE PUSH1 0x20 ADD PUSH1 0x0 KECCAK256 PUSH1 0x5 ADD PUSH1 0x0 ADD DUP1 SLOAD PUSH2 0xC45 SWAP1 PUSH2 0x1FE7 JUMP JUMPDEST SWAP1 POP GT PUSH2 0xC87 JUMPI PUSH1 0x40 MLOAD PUSH32 0x8C379A000000000000000000000000000000000000000000000000000000000 DUP2 MSTORE PUSH1 0x4 ADD PUSH2 0xC7E SWAP1 PUSH2 0x2377 JUMP JUMPDEST PUSH1 0x40 MLOAD DUP1 SWAP2 SUB SWAP1 REVERT JUMPDEST DUP4 PUSH1 0x0 DUP1 DUP8 DUP2 MSTORE PUSH1 0x20 ADD SWAP1 DUP2 MSTORE PUSH1 0x20 ADD PUSH1 0x0 KECCAK256 PUSH1 0x5 ADD PUSH1 0x3 ADD SWAP1 DUP2 PUSH2 0xCAC SWAP2 SWAP1 PUSH2 0x21C4 JUMP JUMPDEST POP PUSH1 0x3 PUSH1 0x0 DUP1 DUP8 DUP2 MSTORE PUSH1 0x20 ADD SWAP1 DUP2 MSTORE PUSH1 0x20 ADD PUSH1 0x0 KECCAK256 PUSH1 0x4 ADD PUSH1 0x14 PUSH2 0x100 EXP DUP2 SLOAD DUP2 PUSH1 0xFF MUL NOT AND SWAP1 DUP4 PUSH1 0x5 DUP2 GT ISZERO PUSH2 0xCE6 JUMPI PUSH2 0xCE5 PUSH2 0x1D04 JUMP JUMPDEST JUMPDEST MUL OR SWAP1 SSTORE POP PUSH32 0x2DA7B23CA63C1EB969EEE5FAE4ACB98186ABECF5358B0354A82A5183EBCA6B2A DUP6 PUSH1 0x3 PUSH1 0x40 MLOAD PUSH2 0xD1D SWAP3 SWAP2 SWAP1 PUSH2 0x2296 JUMP JUMPDEST PUSH1 0x40 MLOAD DUP1 SWAP2 SUB SWAP1 LOG1 POP POP POP POP POP JUMP JUMPDEST DUP3 PUSH1 0x0 DUP1 DUP3 DUP2 MSTORE PUSH1 0x20 ADD SWAP1 DUP2 MSTORE PUSH1 0x20 ADD PUSH1 0x0 KECCAK256 PUSH1 0x3 ADD PUSH1 0x0 SWAP1 SLOAD SWAP1 PUSH2 0x100 EXP SWAP1 DIV PUSH20 0xFFFFFFFFFFFFFFFFFFFFFFFFFFFFFFFFFFFFFFFF AND PUSH20 0xFFFFFFFFFFFFFFFFFFFFFFFFFFFFFFFFFFFFFFFF AND CALLER PUSH20 0xFFFFFFFFFFFFFFFFFFFFFFFFFFFFFFFFFFFFFFFF AND EQ PUSH2 0xDD0 JUMPI PUSH1 0x40 MLOAD PUSH32 0x8C379A000000000000000000000000000000000000000000000000000000000 DUP2 MSTORE PUSH1 0x4 ADD PUSH2 0xDC7 SWAP1 PUSH2 0x2475 JUMP JUMPDEST PUSH1 0x40 MLOAD DUP1 SWAP2 SUB SWAP1 REVERT JUMPDEST DUP4 PUSH1 0x3 DUP1 PUSH1 0x5 DUP2 GT ISZERO PUSH2 0xDE6 JUMPI PUSH2 0xDE5 PUSH2 0x1D04 JUMP JUMPDEST JUMPDEST PUSH1 0x0 DUP1 DUP5 DUP2 MSTORE PUSH1 0x20 ADD SWAP1 DUP2 MSTORE PUSH1 0x20 ADD PUSH1 0x0 KECCAK256 PUSH1 0x4 ADD PUSH1 0x14 SWAP1 SLOAD SWAP1 PUSH2 0x100 EXP SWAP1 DIV PUSH1 0xFF AND PUSH1 0x5 DUP2 GT ISZERO PUSH2 0xE1B JUMPI PUSH2 0xE1A PUSH2 0x1D04 JUMP JUMPDEST JUMPDEST EQ PUSH2 0xE5B JUMPI PUSH1 0x40 MLOAD PUSH32 0x8C379A000000000000000000000000000000000000000000000000000000000 DUP2 MSTORE PUSH1 0x4 ADD PUSH2 0xE52 SWAP1 PUSH2 0x230B JUMP JUMPDEST PUSH1 0x40 MLOAD DUP1 SWAP2 SUB SWAP1 REVERT JUMPDEST PUSH1 0x0 DUP1 PUSH1 0x0 DUP9 DUP2 MSTORE PUSH1 0x20 ADD SWAP1 DUP2 MSTORE PUSH1 0x20 ADD PUSH1 0x0 KECCAK256 PUSH1 0x5 ADD PUSH1 0x0 ADD DUP1 SLOAD PUSH2 0xE80 SWAP1 PUSH2 0x1FE7 JUMP JUMPDEST SWAP1 POP GT PUSH2 0xEC2 JUMPI PUSH1 0x40 MLOAD PUSH32 0x8C379A000000000000000000000000000000000000000000000000000000000 DUP2 MSTORE PUSH1 0x4 ADD PUSH2 0xEB9 SWAP1 PUSH2 0x2377 JUMP JUMPDEST PUSH1 0x40 MLOAD DUP1 SWAP2 SUB SWAP1 REVERT JUMPDEST DUP5 PUSH1 0x0 DUP1 DUP9 DUP2 MSTORE PUSH1 0x20 ADD SWAP1 DUP2 MSTORE PUSH1 0x20 ADD PUSH1 0x0 KECCAK256 PUSH1 0xB ADD PUSH1 0x0 ADD SWAP1 DUP2 PUSH2 0xEE7 SWAP2 SWAP1 PUSH2 0x21C4 JUMP JUMPDEST POP DUP4 PUSH1 0x0 DUP1 DUP9 DUP2 MSTORE PUSH1 0x20 ADD SWAP1 DUP2 MSTORE PUSH1 0x20 ADD PUSH1 0x0 KECCAK256 PUSH1 0x5 ADD PUSH1 0x5 ADD SWAP1 DUP2 PUSH2 0xF0D SWAP2 SWAP1 PUSH2 0x21C4 JUMP JUMPDEST POP PUSH1 0x4 PUSH1 0x0 DUP1 DUP9 DUP2 MSTORE PUSH1 0x20 ADD SWAP1 DUP2 MSTORE PUSH1 0x20 ADD PUSH1 0x0 KECCAK256 PUSH1 0x4 ADD PUSH1 0x14 PUSH2 0x100 EXP DUP2 SLOAD DUP2 PUSH1 0xFF MUL NOT AND SWAP1 DUP4 PUSH1 0x5 DUP2 GT ISZERO PUSH2 0xF47 JUMPI PUSH2 0xF46 PUSH2 0x1D04 JUMP JUMPDEST JUMPDEST MUL OR SWAP1 SSTORE POP PUSH32 0x2DA7B23CA63C1EB969EEE5FAE4ACB98186ABECF5358B0354A82A5183EBCA6B2A DUP7 PUSH1 0x4 PUSH1 0x40 MLOAD PUSH2 0xF7E SWAP3 SWAP2 SWAP1 PUSH2 0x2296 JUMP JUMPDEST PUSH1 0x40 MLOAD DUP1 SWAP2 SUB SWAP1 LOG1 POP POP POP POP POP POP JUMP JUMPDEST PUSH1 0x0 PUSH1 0x20 MSTORE DUP1 PUSH1 0x0 MSTORE PUSH1 0x40 PUSH1 0x0 KECCAK256 PUSH1 0x0 SWAP2 POP SWAP1 POP DUP1 PUSH1 0x0 ADD DUP1 SLOAD PUSH2 0xFB1 SWAP1 PUSH2 0x1FE7 JUMP JUMPDEST DUP1 PUSH1 0x1F ADD PUSH1 0x20 DUP1 SWAP2 DIV MUL PUSH1 0x20 ADD PUSH1 0x40 MLOAD SWAP1 DUP2 ADD PUSH1 0x40 MSTORE DUP1 SWAP3 SWAP2 SWAP1 DUP2 DUP2 MSTORE PUSH1 0x20 ADD DUP3 DUP1 SLOAD PUSH2 0xFDD SWAP1 PUSH2 0x1FE7 JUMP JUMPDEST DUP1 ISZERO PUSH2 0x102A JUMPI DUP1 PUSH1 0x1F LT PUSH2 0xFFF JUMPI PUSH2 0x100 DUP1 DUP4 SLOAD DIV MUL DUP4 MSTORE SWAP2 PUSH1 0x20 ADD SWAP2 PUSH2 0x102A JUMP JUMPDEST DUP3 ADD SWAP2 SWAP1 PUSH1 0x0 MSTORE PUSH1 0x20 PUSH1 0x0 KECCAK256 SWAP1 JUMPDEST DUP2 SLOAD DUP2 MSTORE SWAP1 PUSH1 0x1 ADD SWAP1 PUSH1 0x20 ADD DUP1 DUP4 GT PUSH2 0x100D JUMPI DUP3 SWAP1 SUB PUSH1 0x1F AND DUP3 ADD SWAP2 JUMPDEST POP POP POP POP POP SWAP1 DUP1 PUSH1 0x1 ADD SLOAD SWAP1 DUP1 PUSH1 0x2 ADD PUSH1 0x0 SWAP1 SLOAD SWAP1 PUSH2 0x100 EXP SWAP1 DIV PUSH20 0xFFFFFFFFFFFFFFFFFFFFFFFFFFFFFFFFFFFFFFFF AND SWAP1 DUP1 PUSH1 0x3 ADD PUSH1 0x0 SWAP1 SLOAD SWAP1 PUSH2 0x100 EXP SWAP1 DIV PUSH20 0xFFFFFFFFFFFFFFFFFFFFFFFFFFFFFFFFFFFFFFFF AND SWAP1 DUP1 PUSH1 0x4 ADD PUSH1 0x0 SWAP1 SLOAD SWAP1 PUSH2 0x100 EXP SWAP1 DIV PUSH20 0xFFFFFFFFFFFFFFFFFFFFFFFFFFFFFFFFFFFFFFFF AND SWAP1 DUP1 PUSH1 0x4 ADD PUSH1 0x14 SWAP1 SLOAD SWAP1 PUSH2 0x100 EXP SWAP1 DIV PUSH1 0xFF AND SWAP1 DUP1 PUSH1 0x4 ADD PUSH1 0x15 SWAP1 SLOAD SWAP1 PUSH2 0x100 EXP SWAP1 DIV PUSH1 0x0 SIGNEXTEND SWAP1 DUP1 PUSH1 0x5 ADD PUSH1 0x40 MLOAD DUP1 PUSH1 0xC0 ADD PUSH1 0x40 MSTORE SWAP1 DUP2 PUSH1 0x0 DUP3 ADD DUP1 SLOAD PUSH2 0x10ED SWAP1 PUSH2 0x1FE7 JUMP JUMPDEST DUP1 PUSH1 0x1F ADD PUSH1 0x20 DUP1 SWAP2 DIV MUL PUSH1 0x20 ADD PUSH1 0x40 MLOAD SWAP1 DUP2 ADD PUSH1 0x40 MSTORE DUP1 SWAP3 SWAP2 SWAP1 DUP2 DUP2 MSTORE PUSH1 0x20 ADD DUP3 DUP1 SLOAD PUSH2 0x1119 SWAP1 PUSH2 0x1FE7 JUMP JUMPDEST DUP1 ISZERO PUSH2 0x1166 JUMPI DUP1 PUSH1 0x1F LT PUSH2 0x113B JUMPI PUSH2 0x100 DUP1 DUP4 SLOAD DIV MUL DUP4 MSTORE SWAP2 PUSH1 0x20 ADD SWAP2 PUSH2 0x1166 JUMP JUMPDEST DUP3 ADD SWAP2 SWAP1 PUSH1 0x0 MSTORE PUSH1 0x20 PUSH1 0x0 KECCAK256 SWAP1 JUMPDEST DUP2 SLOAD DUP2 MSTORE SWAP1 PUSH1 0x1 ADD SWAP1 PUSH1 0x20 ADD DUP1 DUP4 GT PUSH2 0x1149 JUMPI DUP3 SWAP1 SUB PUSH1 0x1F AND DUP3 ADD SWAP2 JUMPDEST POP POP POP POP POP DUP2 MSTORE PUSH1 0x20 ADD PUSH1 0x1 DUP3 ADD DUP1 SLOAD PUSH2 0x117F SWAP1 PUSH2 0x1FE7 JUMP JUMPDEST DUP1 PUSH1 0x1F ADD PUSH1 0x20 DUP1 SWAP2 DIV MUL PUSH1 0x20 ADD PUSH1 0x40 MLOAD SWAP1 DUP2 ADD PUSH1 0x40 MSTORE DUP1 SWAP3 SWAP2 SWAP1 DUP2 DUP2 MSTORE PUSH1 0x20 ADD DUP3 DUP1 SLOAD PUSH2 0x11AB SWAP1 PUSH2 0x1FE7 JUMP JUMPDEST DUP1 ISZERO PUSH2 0x11F8 JUMPI DUP1 PUSH1 0x1F LT PUSH2 0x11CD JUMPI PUSH2 0x100 DUP1 DUP4 SLOAD DIV MUL DUP4 MSTORE SWAP2 PUSH1 0x20 ADD SWAP2 PUSH2 0x11F8 JUMP JUMPDEST DUP3 ADD SWAP2 SWAP1 PUSH1 0x0 MSTORE PUSH1 0x20 PUSH1 0x0 KECCAK256 SWAP1 JUMPDEST DUP2 SLOAD DUP2 MSTORE SWAP1 PUSH1 0x1 ADD SWAP1 PUSH1 0x20 ADD DUP1 DUP4 GT PUSH2 0x11DB JUMPI DUP3 SWAP1 SUB PUSH1 0x1F AND DUP3 ADD SWAP2 JUMPDEST POP POP POP POP POP DUP2 MSTORE PUSH1 0x20 ADD PUSH1 0x2 DUP3 ADD DUP1 SLOAD PUSH2 0x1211 SWAP1 PUSH2 0x1FE7 JUMP JUMPDEST DUP1 PUSH1 0x1F ADD PUSH1 0x20 DUP1 SWAP2 DIV MUL PUSH1 0x20 ADD PUSH1 0x40 MLOAD SWAP1 DUP2 ADD PUSH1 0x40 MSTORE DUP1 SWAP3 SWAP2 SWAP1 DUP2 DUP2 MSTORE PUSH1 0x20 ADD DUP3 DUP1 SLOAD PUSH2 0x123D SWAP1 PUSH2 0x1FE7 JUMP JUMPDEST DUP1 ISZERO PUSH2 0x128A JUMPI DUP1 PUSH1 0x1F LT PUSH2 0x125F JUMPI PUSH2 0x100 DUP1 DUP4 SLOAD DIV MUL DUP4 MSTORE SWAP2 PUSH1 0x20 ADD SWAP2 PUSH2 0x128A JUMP JUMPDEST DUP3 ADD SWAP2 SWAP1 PUSH1 0x0 MSTORE PUSH1 0x20 PUSH1 0x0 KECCAK256 SWAP1 JUMPDEST DUP2 SLOAD DUP2 MSTORE SWAP1 PUSH1 0x1 ADD SWAP1 PUSH1 0x20 ADD DUP1 DUP4 GT PUSH2 0x126D JUMPI DUP3 SWAP1 SUB PUSH1 0x1F AND DUP3 ADD SWAP2 JUMPDEST POP POP POP POP POP DUP2 MSTORE PUSH1 0x20 ADD PUSH1 0x3 DUP3 ADD DUP1 SLOAD PUSH2 0x12A3 SWAP1 PUSH2 0x1FE7 JUMP JUMPDEST DUP1 PUSH1 0x1F ADD PUSH1 0x20 DUP1 SWAP2 DIV MUL PUSH1 0x20 ADD PUSH1 0x40 MLOAD SWAP1 DUP2 ADD PUSH1 0x40 MSTORE DUP1 SWAP3 SWAP2 SWAP1 DUP2 DUP2 MSTORE PUSH1 0x20 ADD DUP3 DUP1 SLOAD PUSH2 0x12CF SWAP1 PUSH2 0x1FE7 JUMP JUMPDEST DUP1 ISZERO PUSH2 0x131C JUMPI DUP1 PUSH1 0x1F LT PUSH2 0x12F1 JUMPI PUSH2 0x100 DUP1 DUP4 SLOAD DIV MUL DUP4 MSTORE SWAP2 PUSH1 0x20 ADD SWAP2 PUSH2 0x131C JUMP JUMPDEST DUP3 ADD SWAP2 SWAP1 PUSH1 0x0 MSTORE PUSH1 0x20 PUSH1 0x0 KECCAK256 SWAP1 JUMPDEST DUP2 SLOAD DUP2 MSTORE SWAP1 PUSH1 0x1 ADD SWAP1 PUSH1 0x20 ADD DUP1 DUP4 GT PUSH2 0x12FF JUMPI DUP3 SWAP1 SUB PUSH1 0x1F AND DUP3 ADD SWAP2 JUMPDEST POP POP POP POP POP DUP2 MSTORE PUSH1 0x20 ADD PUSH1 0x4 DUP3 ADD DUP1 SLOAD PUSH2 0x1335 SWAP1 PUSH2 0x1FE7 JUMP JUMPDEST DUP1 PUSH1 0x1F ADD PUSH1 0x20 DUP1 SWAP2 DIV MUL PUSH1 0x20 ADD PUSH1 0x40 MLOAD SWAP1 DUP2 ADD PUSH1 0x40 MSTORE DUP1 SWAP3 SWAP2 SWAP1 DUP2 DUP2 MSTORE PUSH1 0x20 ADD DUP3 DUP1 SLOAD PUSH2 0x1361 SWAP1 PUSH2 0x1FE7 JUMP JUMPDEST DUP1 ISZERO PUSH2 0x13AE JUMPI DUP1 PUSH1 0x1F LT PUSH2 0x1383 JUMPI PUSH2 0x100 DUP1 DUP4 SLOAD DIV MUL DUP4 MSTORE SWAP2 PUSH1 0x20 ADD SWAP2 PUSH2 0x13AE JUMP JUMPDEST DUP3 ADD SWAP2 SWAP1 PUSH1 0x0 MSTORE PUSH1 0x20 PUSH1 0x0 KECCAK256 SWAP1 JUMPDEST DUP2 SLOAD DUP2 MSTORE SWAP1 PUSH1 0x1 ADD SWAP1 PUSH1 0x20 ADD DUP1 DUP4 GT PUSH2 0x1391 JUMPI DUP3 SWAP1 SUB PUSH1 0x1F AND DUP3 ADD SWAP2 JUMPDEST POP POP POP POP POP DUP2 MSTORE PUSH1 0x20 ADD PUSH1 0x5 DUP3 ADD DUP1 SLOAD PUSH2 0x13C7 SWAP1 PUSH2 0x1FE7 JUMP JUMPDEST DUP1 PUSH1 0x1F ADD PUSH1 0x20 DUP1 SWAP2 DIV MUL PUSH1 0x20 ADD PUSH1 0x40 MLOAD SWAP1 DUP2 ADD PUSH1 0x40 MSTORE DUP1 SWAP3 SWAP2 SWAP1 DUP2 DUP2 MSTORE PUSH1 0x20 ADD DUP3 DUP1 SLOAD PUSH2 0x13F3 SWAP1 PUSH2 0x1FE7 JUMP JUMPDEST DUP1 ISZERO PUSH2 0x1440 JUMPI DUP1 PUSH1 0x1F LT PUSH2 0x1415 JUMPI PUSH2 0x100 DUP1 DUP4 SLOAD DIV MUL DUP4 MSTORE SWAP2 PUSH1 0x20 ADD SWAP2 PUSH2 0x1440 JUMP JUMPDEST DUP3 ADD SWAP2 SWAP1 PUSH1 0x0 MSTORE PUSH1 0x20 PUSH1 0x0 KECCAK256 SWAP1 JUMPDEST DUP2 SLOAD DUP2 MSTORE SWAP1 PUSH1 0x1 ADD SWAP1 PUSH1 0x20 ADD DUP1 DUP4 GT PUSH2 0x1423 JUMPI DUP3 SWAP1 SUB PUSH1 0x1F AND DUP3 ADD SWAP2 JUMPDEST POP POP POP POP POP DUP2 MSTORE POP POP SWAP1 DUP1 PUSH1 0xB ADD PUSH1 0x40 MLOAD DUP1 PUSH1 0x20 ADD PUSH1 0x40 MSTORE SWAP1 DUP2 PUSH1 0x0 DUP3 ADD DUP1 SLOAD PUSH2 0x1469 SWAP1 PUSH2 0x1FE7 JUMP JUMPDEST DUP1 PUSH1 0x1F ADD PUSH1 0x20 DUP1 SWAP2 DIV MUL PUSH1 0x20 ADD PUSH1 0x40 MLOAD SWAP1 DUP2 ADD PUSH1 0x40 MSTORE DUP1 SWAP3 SWAP2 SWAP1 DUP2 DUP2 MSTORE PUSH1 0x20 ADD DUP3 DUP1 SLOAD PUSH2 0x1495 SWAP1 PUSH2 0x1FE7 JUMP JUMPDEST DUP1 ISZERO PUSH2 0x14E2 JUMPI DUP1 PUSH1 0x1F LT PUSH2 0x14B7 JUMPI PUSH2 0x100 DUP1 DUP4 SLOAD DIV MUL DUP4 MSTORE SWAP2 PUSH1 0x20 ADD SWAP2 PUSH2 0x14E2 JUMP JUMPDEST DUP3 ADD SWAP2 SWAP1 PUSH1 0x0 MSTORE PUSH1 0x20 PUSH1 0x0 KECCAK256 SWAP1 JUMPDEST DUP2 SLOAD DUP2 MSTORE SWAP1 PUSH1 0x1 ADD SWAP1 PUSH1 0x20 ADD DUP1 DUP4 GT PUSH2 0x14C5 JUMPI DUP3 SWAP1 SUB PUSH1 0x1F AND DUP3 ADD SWAP2 JUMPDEST POP POP POP POP POP DUP2 MSTORE POP POP SWAP1 POP DUP10 JUMP JUMPDEST DUP3 PUSH1 0x0 DUP1 DUP3 DUP2 MSTORE PUSH1 0x20 ADD SWAP1 DUP2 MSTORE PUSH1 0x20 ADD PUSH1 0x0 KECCAK256 PUSH1 0x3 ADD PUSH1 0x0 SWAP1 SLOAD SWAP1 PUSH2 0x100 EXP SWAP1 DIV PUSH20 0xFFFFFFFFFFFFFFFFFFFFFFFFFFFFFFFFFFFFFFFF AND PUSH20 0xFFFFFFFFFFFFFFFFFFFFFFFFFFFFFFFFFFFFFFFF AND CALLER PUSH20 0xFFFFFFFFFFFFFFFFFFFFFFFFFFFFFFFFFFFFFFFF AND EQ PUSH2 0x1594 JUMPI PUSH1 0x40 MLOAD PUSH32 0x8C379A000000000000000000000000000000000000000000000000000000000 DUP2 MSTORE PUSH1 0x4 ADD PUSH2 0x158B SWAP1 PUSH2 0x2475 JUMP JUMPDEST PUSH1 0x40 MLOAD DUP1 SWAP2 SUB SWAP1 REVERT JUMPDEST DUP4 PUSH1 0x4 DUP1 PUSH1 0x5 DUP2 GT ISZERO PUSH2 0x15AA JUMPI PUSH2 0x15A9 PUSH2 0x1D04 JUMP JUMPDEST JUMPDEST PUSH1 0x0 DUP1 DUP5 DUP2 MSTORE PUSH1 0x20 ADD SWAP1 DUP2 MSTORE PUSH1 0x20 ADD PUSH1 0x0 KECCAK256 PUSH1 0x4 ADD PUSH1 0x14 SWAP1 SLOAD SWAP1 PUSH2 0x100 EXP SWAP1 DIV PUSH1 0xFF AND PUSH1 0x5 DUP2 GT ISZERO PUSH2 0x15DF JUMPI PUSH2 0x15DE PUSH2 0x1D04 JUMP JUMPDEST JUMPDEST EQ PUSH2 0x161F JUMPI PUSH1 0x40 MLOAD PUSH32 0x8C379A000000000000000000000000000000000000000000000000000000000 DUP2 MSTORE PUSH1 0x4 ADD PUSH2 0x1616 SWAP1 PUSH2 0x230B JUMP JUMPDEST PUSH1 0x40 MLOAD DUP1 SWAP2 SUB SWAP1 REVERT JUMPDEST PUSH1 0x0 DUP1 PUSH1 0x0 DUP9 DUP2 MSTORE PUSH1 0x20 ADD SWAP1 DUP2 MSTORE PUSH1 0x20 ADD PUSH1 0x0 KECCAK256 PUSH1 0x5 ADD PUSH1 0x0 ADD DUP1 SLOAD PUSH2 0x1644 SWAP1 PUSH2 0x1FE7 JUMP JUMPDEST SWAP1 POP GT PUSH2 0x1686 JUMPI PUSH1 0x40 MLOAD PUSH32 0x8C379A000000000000000000000000000000000000000000000000000000000 DUP2 MSTORE PUSH1 0x4 ADD PUSH2 0x167D SWAP1 PUSH2 0x2377 JUMP JUMPDEST PUSH1 0x40 MLOAD DUP1 SWAP2 SUB SWAP1 REVERT JUMPDEST PUSH1 0x0 PUSH20 0xFFFFFFFFFFFFFFFFFFFFFFFFFFFFFFFFFFFFFFFF AND DUP5 PUSH20 0xFFFFFFFFFFFFFFFFFFFFFFFFFFFFFFFFFFFFFFFF AND SUB PUSH2 0x16F5 JUMPI PUSH1 0x40 MLOAD PUSH32 0x8C379A000000000000000000000000000000000000000000000000000000000 DUP2 MSTORE PUSH1 0x4 ADD PUSH2 0x16EC SWAP1 PUSH2 0x24E1 JUMP JUMPDEST PUSH1 0x40 MLOAD DUP1 SWAP2 SUB SWAP1 REVERT JUMPDEST DUP4 PUSH1 0x0 DUP1 DUP9 DUP2 MSTORE PUSH1 0x20 ADD SWAP1 DUP2 MSTORE PUSH1 0x20 ADD PUSH1 0x0 KECCAK256 PUSH1 0x4 ADD PUSH1 0x0 PUSH2 0x100 EXP DUP2 SLOAD DUP2 PUSH20 0xFFFFFFFFFFFFFFFFFFFFFFFFFFFFFFFFFFFFFFFF MUL NOT AND SWAP1 DUP4 PUSH20 0xFFFFFFFFFFFFFFFFFFFFFFFFFFFFFFFFFFFFFFFF AND MUL OR SWAP1 SSTORE POP DUP5 PUSH1 0x0 DUP1 DUP9 DUP2 MSTORE PUSH1 0x20 ADD SWAP1 DUP2 MSTORE PUSH1 0x20 ADD PUSH1 0x0 KECCAK256 PUSH1 0x5 ADD PUSH1 0x4 ADD SWAP1 DUP2 PUSH2 0x176E SWAP2 SWAP1 PUSH2 0x21C4 JUMP JUMPDEST POP PUSH1 0x5 PUSH1 0x0 DUP1 DUP9 DUP2 MSTORE PUSH1 0x20 ADD SWAP1 DUP2 MSTORE PUSH1 0x20 ADD PUSH1 0x0 KECCAK256 PUSH1 0x4 ADD PUSH1 0x14 PUSH2 0x100 EXP DUP2 SLOAD DUP2 PUSH1 0xFF MUL NOT AND SWAP1 DUP4 PUSH1 0x5 DUP2 GT ISZERO PUSH2 0x17A8 JUMPI PUSH2 0x17A7 PUSH2 0x1D04 JUMP JUMPDEST JUMPDEST MUL OR SWAP1 SSTORE POP PUSH32 0x2DA7B23CA63C1EB969EEE5FAE4ACB98186ABECF5358B0354A82A5183EBCA6B2A DUP7 PUSH1 0x5 PUSH1 0x40 MLOAD PUSH2 0x17DF SWAP3 SWAP2 SWAP1 PUSH2 0x2296 JUMP JUMPDEST PUSH1 0x40 MLOAD DUP1 SWAP2 SUB SWAP1 LOG1 POP POP POP POP POP POP JUMP JUMPDEST PUSH1 0x0 PUSH1 0x40 MLOAD SWAP1 POP SWAP1 JUMP JUMPDEST PUSH1 0x0 DUP1 REVERT JUMPDEST PUSH1 0x0 DUP1 REVERT JUMPDEST PUSH1 0x0 DUP2 SWAP1 POP SWAP2 SWAP1 POP JUMP JUMPDEST PUSH2 0x1816 DUP2 PUSH2 0x1803 JUMP JUMPDEST DUP2 EQ PUSH2 0x1821 JUMPI PUSH1 0x0 DUP1 REVERT JUMPDEST POP JUMP JUMPDEST PUSH1 0x0 DUP2 CALLDATALOAD SWAP1 POP PUSH2 0x1833 DUP2 PUSH2 0x180D JUMP JUMPDEST SWAP3 SWAP2 POP POP JUMP JUMPDEST PUSH1 0x0 DUP1 REVERT JUMPDEST PUSH1 0x0 DUP1 REVERT JUMPDEST PUSH1 0x0 PUSH1 0x1F NOT PUSH1 0x1F DUP4 ADD AND SWAP1 POP SWAP2 SWAP1 POP JUMP JUMPDEST PUSH32 0x4E487B7100000000000000000000000000000000000000000000000000000000 PUSH1 0x0 MSTORE PUSH1 0x41 PUSH1 0x4 MSTORE PUSH1 0x24 PUSH1 0x0 REVERT JUMPDEST PUSH2 0x188C DUP3 PUSH2 0x1843 JUMP JUMPDEST DUP2 ADD DUP2 DUP2 LT PUSH8 0xFFFFFFFFFFFFFFFF DUP3 GT OR ISZERO PUSH2 0x18AB JUMPI PUSH2 0x18AA PUSH2 0x1854 JUMP JUMPDEST JUMPDEST DUP1 PUSH1 0x40 MSTORE POP POP POP JUMP JUMPDEST PUSH1 0x0 PUSH2 0x18BE PUSH2 0x17EF JUMP JUMPDEST SWAP1 POP PUSH2 0x18CA DUP3 DUP3 PUSH2 0x1883 JUMP JUMPDEST SWAP2 SWAP1 POP JUMP JUMPDEST PUSH1 0x0 PUSH8 0xFFFFFFFFFFFFFFFF DUP3 GT ISZERO PUSH2 0x18EA JUMPI PUSH2 0x18E9 PUSH2 0x1854 JUMP JUMPDEST JUMPDEST PUSH2 0x18F3 DUP3 PUSH2 0x1843 JUMP JUMPDEST SWAP1 POP PUSH1 0x20 DUP2 ADD SWAP1 POP SWAP2 SWAP1 POP JUMP JUMPDEST DUP3 DUP2 DUP4 CALLDATACOPY PUSH1 0x0 DUP4 DUP4 ADD MSTORE POP POP POP JUMP JUMPDEST PUSH1 0x0 PUSH2 0x1922 PUSH2 0x191D DUP5 PUSH2 0x18CF JUMP JUMPDEST PUSH2 0x18B4 JUMP JUMPDEST SWAP1 POP DUP3 DUP2 MSTORE PUSH1 0x20 DUP2 ADD DUP5 DUP5 DUP5 ADD GT ISZERO PUSH2 0x193E JUMPI PUSH2 0x193D PUSH2 0x183E JUMP JUMPDEST JUMPDEST PUSH2 0x1949 DUP5 DUP3 DUP6 PUSH2 0x1900 JUMP JUMPDEST POP SWAP4 SWAP3 POP POP POP JUMP JUMPDEST PUSH1 0x0 DUP3 PUSH1 0x1F DUP4 ADD SLT PUSH2 0x1966 JUMPI PUSH2 0x1965 PUSH2 0x1839 JUMP JUMPDEST JUMPDEST DUP2 CALLDATALOAD PUSH2 0x1976 DUP5 DUP3 PUSH1 0x20 DUP7 ADD PUSH2 0x190F JUMP JUMPDEST SWAP2 POP POP SWAP3 SWAP2 POP POP JUMP JUMPDEST PUSH1 0x0 DUP2 PUSH1 0x0 SIGNEXTEND SWAP1 POP SWAP2 SWAP1 POP JUMP JUMPDEST PUSH2 0x1995 DUP2 PUSH2 0x197F JUMP JUMPDEST DUP2 EQ PUSH2 0x19A0 JUMPI PUSH1 0x0 DUP1 REVERT JUMPDEST POP JUMP JUMPDEST PUSH1 0x0 DUP2 CALLDATALOAD SWAP1 POP PUSH2 0x19B2 DUP2 PUSH2 0x198C JUMP JUMPDEST SWAP3 SWAP2 POP POP JUMP JUMPDEST PUSH1 0x0 DUP1 PUSH1 0x0 DUP1 PUSH1 0x0 PUSH1 0xA0 DUP7 DUP9 SUB SLT ISZERO PUSH2 0x19D4 JUMPI PUSH2 0x19D3 PUSH2 0x17F9 JUMP JUMPDEST JUMPDEST PUSH1 0x0 PUSH2 0x19E2 DUP9 DUP3 DUP10 ADD PUSH2 0x1824 JUMP JUMPDEST SWAP6 POP POP PUSH1 0x20 DUP7 ADD CALLDATALOAD PUSH8 0xFFFFFFFFFFFFFFFF DUP2 GT ISZERO PUSH2 0x1A03 JUMPI PUSH2 0x1A02 PUSH2 0x17FE JUMP JUMPDEST JUMPDEST PUSH2 0x1A0F DUP9 DUP3 DUP10 ADD PUSH2 0x1951 JUMP JUMPDEST SWAP5 POP POP PUSH1 0x40 PUSH2 0x1A20 DUP9 DUP3 DUP10 ADD PUSH2 0x1824 JUMP JUMPDEST SWAP4 POP POP PUSH1 0x60 DUP7 ADD CALLDATALOAD PUSH8 0xFFFFFFFFFFFFFFFF DUP2 GT ISZERO PUSH2 0x1A41 JUMPI PUSH2 0x1A40 PUSH2 0x17FE JUMP JUMPDEST JUMPDEST PUSH2 0x1A4D DUP9 DUP3 DUP10 ADD PUSH2 0x1951 JUMP JUMPDEST SWAP3 POP POP PUSH1 0x80 PUSH2 0x1A5E DUP9 DUP3 DUP10 ADD PUSH2 0x19A3 JUMP JUMPDEST SWAP2 POP POP SWAP3 SWAP6 POP SWAP3 SWAP6 SWAP1 SWAP4 POP JUMP JUMPDEST PUSH1 0x0 PUSH20 0xFFFFFFFFFFFFFFFFFFFFFFFFFFFFFFFFFFFFFFFF DUP3 AND SWAP1 POP SWAP2 SWAP1 POP JUMP JUMPDEST PUSH1 0x0 PUSH2 0x1A96 DUP3 PUSH2 0x1A6B JUMP JUMPDEST SWAP1 POP SWAP2 SWAP1 POP JUMP JUMPDEST PUSH2 0x1AA6 DUP2 PUSH2 0x1A8B JUMP JUMPDEST DUP2 EQ PUSH2 0x1AB1 JUMPI PUSH1 0x0 DUP1 REVERT JUMPDEST POP JUMP JUMPDEST PUSH1 0x0 DUP2 CALLDATALOAD SWAP1 POP PUSH2 0x1AC3 DUP2 PUSH2 0x1A9D JUMP JUMPDEST SWAP3 SWAP2 POP POP JUMP JUMPDEST PUSH1 0x0 DUP1 PUSH1 0x0 PUSH1 0x60 DUP5 DUP7 SUB SLT ISZERO PUSH2 0x1AE2 JUMPI PUSH2 0x1AE1 PUSH2 0x17F9 JUMP JUMPDEST JUMPDEST PUSH1 0x0 PUSH2 0x1AF0 DUP7 DUP3 DUP8 ADD PUSH2 0x1824 JUMP JUMPDEST SWAP4 POP POP PUSH1 0x20 DUP5 ADD CALLDATALOAD PUSH8 0xFFFFFFFFFFFFFFFF DUP2 GT ISZERO PUSH2 0x1B11 JUMPI PUSH2 0x1B10 PUSH2 0x17FE JUMP JUMPDEST JUMPDEST PUSH2 0x1B1D DUP7 DUP3 DUP8 ADD PUSH2 0x1951 JUMP JUMPDEST SWAP3 POP POP PUSH1 0x40 PUSH2 0x1B2E DUP7 DUP3 DUP8 ADD PUSH2 0x1AB4 JUMP JUMPDEST SWAP2 POP POP SWAP3 POP SWAP3 POP SWAP3 JUMP JUMPDEST PUSH1 0x0 DUP1 PUSH1 0x40 DUP4 DUP6 SUB SLT ISZERO PUSH2 0x1B4F JUMPI PUSH2 0x1B4E PUSH2 0x17F9 JUMP JUMPDEST JUMPDEST PUSH1 0x0 PUSH2 0x1B5D DUP6 DUP3 DUP7 ADD PUSH2 0x1824 JUMP JUMPDEST SWAP3 POP POP PUSH1 0x20 DUP4 ADD CALLDATALOAD PUSH8 0xFFFFFFFFFFFFFFFF DUP2 GT ISZERO PUSH2 0x1B7E JUMPI PUSH2 0x1B7D PUSH2 0x17FE JUMP JUMPDEST JUMPDEST PUSH2 0x1B8A DUP6 DUP3 DUP7 ADD PUSH2 0x1951 JUMP JUMPDEST SWAP2 POP POP SWAP3 POP SWAP3 SWAP1 POP JUMP JUMPDEST PUSH2 0x1B9D DUP2 PUSH2 0x1A8B JUMP JUMPDEST DUP3 MSTORE POP POP JUMP JUMPDEST PUSH1 0x0 PUSH1 0x20 DUP3 ADD SWAP1 POP PUSH2 0x1BB8 PUSH1 0x0 DUP4 ADD DUP5 PUSH2 0x1B94 JUMP JUMPDEST SWAP3 SWAP2 POP POP JUMP JUMPDEST PUSH1 0x0 DUP1 PUSH1 0x0 PUSH1 0x60 DUP5 DUP7 SUB SLT ISZERO PUSH2 0x1BD7 JUMPI PUSH2 0x1BD6 PUSH2 0x17F9 JUMP JUMPDEST JUMPDEST PUSH1 0x0 PUSH2 0x1BE5 DUP7 DUP3 DUP8 ADD PUSH2 0x1824 JUMP JUMPDEST SWAP4 POP POP PUSH1 0x20 DUP5 ADD CALLDATALOAD PUSH8 0xFFFFFFFFFFFFFFFF DUP2 GT ISZERO PUSH2 0x1C06 JUMPI PUSH2 0x1C05 PUSH2 0x17FE JUMP JUMPDEST JUMPDEST PUSH2 0x1C12 DUP7 DUP3 DUP8 ADD PUSH2 0x1951 JUMP JUMPDEST SWAP3 POP POP PUSH1 0x40 DUP5 ADD CALLDATALOAD PUSH8 0xFFFFFFFFFFFFFFFF DUP2 GT ISZERO PUSH2 0x1C33 JUMPI PUSH2 0x1C32 PUSH2 0x17FE JUMP JUMPDEST JUMPDEST PUSH2 0x1C3F DUP7 DUP3 DUP8 ADD PUSH2 0x1951 JUMP JUMPDEST SWAP2 POP POP SWAP3 POP SWAP3 POP SWAP3 JUMP JUMPDEST PUSH1 0x0 PUSH1 0x20 DUP3 DUP5 SUB SLT ISZERO PUSH2 0x1C5F JUMPI PUSH2 0x1C5E PUSH2 0x17F9 JUMP JUMPDEST JUMPDEST PUSH1 0x0 PUSH2 0x1C6D DUP5 DUP3 DUP6 ADD PUSH2 0x1824 JUMP JUMPDEST SWAP2 POP POP SWAP3 SWAP2 POP POP JUMP JUMPDEST PUSH1 0x0 DUP2 MLOAD SWAP1 POP SWAP2 SWAP1 POP JUMP JUMPDEST PUSH1 0x0 DUP3 DUP3 MSTORE PUSH1 0x20 DUP3 ADD SWAP1 POP SWAP3 SWAP2 POP POP JUMP JUMPDEST PUSH1 0x0 JUMPDEST DUP4 DUP2 LT ISZERO PUSH2 0x1CB0 JUMPI DUP1 DUP3 ADD MLOAD DUP2 DUP5 ADD MSTORE PUSH1 0x20 DUP2 ADD SWAP1 POP PUSH2 0x1C95 JUMP JUMPDEST PUSH1 0x0 DUP5 DUP5 ADD MSTORE POP POP POP POP JUMP JUMPDEST PUSH1 0x0 PUSH2 0x1CC7 DUP3 PUSH2 0x1C76 JUMP JUMPDEST PUSH2 0x1CD1 DUP2 DUP6 PUSH2 0x1C81 JUMP JUMPDEST SWAP4 POP PUSH2 0x1CE1 DUP2 DUP6 PUSH1 0x20 DUP7 ADD PUSH2 0x1C92 JUMP JUMPDEST PUSH2 0x1CEA DUP2 PUSH2 0x1843 JUMP JUMPDEST DUP5 ADD SWAP2 POP POP SWAP3 SWAP2 POP POP JUMP JUMPDEST PUSH2 0x1CFE DUP2 PUSH2 0x1803 JUMP JUMPDEST DUP3 MSTORE POP POP JUMP JUMPDEST PUSH32 0x4E487B7100000000000000000000000000000000000000000000000000000000 PUSH1 0x0 MSTORE PUSH1 0x21 PUSH1 0x4 MSTORE PUSH1 0x24 PUSH1 0x0 REVERT JUMPDEST PUSH1 0x6 DUP2 LT PUSH2 0x1D44 JUMPI PUSH2 0x1D43 PUSH2 0x1D04 JUMP JUMPDEST JUMPDEST POP JUMP JUMPDEST PUSH1 0x0 DUP2 SWAP1 POP PUSH2 0x1D55 DUP3 PUSH2 0x1D33 JUMP JUMPDEST SWAP2 SWAP1 POP JUMP JUMPDEST PUSH1 0x0 PUSH2 0x1D65 DUP3 PUSH2 0x1D47 JUMP JUMPDEST SWAP1 POP SWAP2 SWAP1 POP JUMP JUMPDEST PUSH2 0x1D75 DUP2 PUSH2 0x1D5A JUMP JUMPDEST DUP3 MSTORE POP POP JUMP JUMPDEST PUSH2 0x1D84 DUP2 PUSH2 0x197F JUMP JUMPDEST DUP3 MSTORE POP POP JUMP JUMPDEST PUSH1 0x0 DUP3 DUP3 MSTORE PUSH1 0x20 DUP3 ADD SWAP1 POP SWAP3 SWAP2 POP POP JUMP JUMPDEST PUSH1 0x0 PUSH2 0x1DA6 DUP3 PUSH2 0x1C76 JUMP JUMPDEST PUSH2 0x1DB0 DUP2 DUP6 PUSH2 0x1D8A JUMP JUMPDEST SWAP4 POP PUSH2 0x1DC0 DUP2 DUP6 PUSH1 0x20 DUP7 ADD PUSH2 0x1C92 JUMP JUMPDEST PUSH2 0x1DC9 DUP2 PUSH2 0x1843 JUMP JUMPDEST DUP5 ADD SWAP2 POP POP SWAP3 SWAP2 POP POP JUMP JUMPDEST PUSH1 0x0 PUSH1 0xC0 DUP4 ADD PUSH1 0x0 DUP4 ADD MLOAD DUP5 DUP3 SUB PUSH1 0x0 DUP7 ADD MSTORE PUSH2 0x1DF1 DUP3 DUP3 PUSH2 0x1D9B JUMP JUMPDEST SWAP2 POP POP PUSH1 0x20 DUP4 ADD MLOAD DUP5 DUP3 SUB PUSH1 0x20 DUP7 ADD MSTORE PUSH2 0x1E0B DUP3 DUP3 PUSH2 0x1D9B JUMP JUMPDEST SWAP2 POP POP PUSH1 0x40 DUP4 ADD MLOAD DUP5 DUP3 SUB PUSH1 0x40 DUP7 ADD MSTORE PUSH2 0x1E25 DUP3 DUP3 PUSH2 0x1D9B JUMP JUMPDEST SWAP2 POP POP PUSH1 0x60 DUP4 ADD MLOAD DUP5 DUP3 SUB PUSH1 0x60 DUP7 ADD MSTORE PUSH2 0x1E3F DUP3 DUP3 PUSH2 0x1D9B JUMP JUMPDEST SWAP2 POP POP PUSH1 0x80 DUP4 ADD MLOAD DUP5 DUP3 SUB PUSH1 0x80 DUP7 ADD MSTORE PUSH2 0x1E59 DUP3 DUP3 PUSH2 0x1D9B JUMP JUMPDEST SWAP2 POP POP PUSH1 0xA0 DUP4 ADD MLOAD DUP5 DUP3 SUB PUSH1 0xA0 DUP7 ADD MSTORE PUSH2 0x1E73 DUP3 DUP3 PUSH2 0x1D9B JUMP JUMPDEST SWAP2 POP POP DUP1 SWAP2 POP POP SWAP3 SWAP2 POP POP JUMP JUMPDEST PUSH1 0x0 PUSH1 0x20 DUP4 ADD PUSH1 0x0 DUP4 ADD MLOAD DUP5 DUP3 SUB PUSH1 0x0 DUP7 ADD MSTORE PUSH2 0x1E9D DUP3 DUP3 PUSH2 0x1D9B JUMP JUMPDEST SWAP2 POP POP DUP1 SWAP2 POP POP SWAP3 SWAP2 POP POP JUMP JUMPDEST PUSH1 0x0 PUSH2 0x120 DUP3 ADD SWAP1 POP DUP2 DUP2 SUB PUSH1 0x0 DUP4 ADD MSTORE PUSH2 0x1EC5 DUP2 DUP13 PUSH2 0x1CBC JUMP JUMPDEST SWAP1 POP PUSH2 0x1ED4 PUSH1 0x20 DUP4 ADD DUP12 PUSH2 0x1CF5 JUMP JUMPDEST PUSH2 0x1EE1 PUSH1 0x40 DUP4 ADD DUP11 PUSH2 0x1B94 JUMP JUMPDEST PUSH2 0x1EEE PUSH1 0x60 DUP4 ADD DUP10 PUSH2 0x1B94 JUMP JUMPDEST PUSH2 0x1EFB PUSH1 0x80 DUP4 ADD DUP9 PUSH2 0x1B94 JUMP JUMPDEST PUSH2 0x1F08 PUSH1 0xA0 DUP4 ADD DUP8 PUSH2 0x1D6C JUMP JUMPDEST PUSH2 0x1F15 PUSH1 0xC0 DUP4 ADD DUP7 PUSH2 0x1D7B JUMP JUMPDEST DUP2 DUP2 SUB PUSH1 0xE0 DUP4 ADD MSTORE PUSH2 0x1F27 DUP2 DUP6 PUSH2 0x1DD4 JUMP JUMPDEST SWAP1 POP DUP2 DUP2 SUB PUSH2 0x100 DUP4 ADD MSTORE PUSH2 0x1F3C DUP2 DUP5 PUSH2 0x1E80 JUMP JUMPDEST SWAP1 POP SWAP11 SWAP10 POP POP POP POP POP POP POP POP POP POP JUMP JUMPDEST PUSH32 0x4E6F7420746865206D616E756661637475726572000000000000000000000000 PUSH1 0x0 DUP3 ADD MSTORE POP JUMP JUMPDEST PUSH1 0x0 PUSH2 0x1F82 PUSH1 0x14 DUP4 PUSH2 0x1C81 JUMP JUMPDEST SWAP2 POP PUSH2 0x1F8D DUP3 PUSH2 0x1F4C JUMP JUMPDEST PUSH1 0x20 DUP3 ADD SWAP1 POP SWAP2 SWAP1 POP JUMP JUMPDEST PUSH1 0x0 PUSH1 0x20 DUP3 ADD SWAP1 POP DUP2 DUP2 SUB PUSH1 0x0 DUP4 ADD MSTORE PUSH2 0x1FB1 DUP2 PUSH2 0x1F75 JUMP JUMPDEST SWAP1 POP SWAP2 SWAP1 POP JUMP JUMPDEST PUSH32 0x4E487B7100000000000000000000000000000000000000000000000000000000 PUSH1 0x0 MSTORE PUSH1 0x22 PUSH1 0x4 MSTORE PUSH1 0x24 PUSH1 0x0 REVERT JUMPDEST PUSH1 0x0 PUSH1 0x2 DUP3 DIV SWAP1 POP PUSH1 0x1 DUP3 AND DUP1 PUSH2 0x1FFF JUMPI PUSH1 0x7F DUP3 AND SWAP2 POP JUMPDEST PUSH1 0x20 DUP3 LT DUP2 SUB PUSH2 0x2012 JUMPI PUSH2 0x2011 PUSH2 0x1FB8 JUMP JUMPDEST JUMPDEST POP SWAP2 SWAP1 POP JUMP JUMPDEST PUSH1 0x0 DUP2 SWAP1 POP DUP2 PUSH1 0x0 MSTORE PUSH1 0x20 PUSH1 0x0 KECCAK256 SWAP1 POP SWAP2 SWAP1 POP JUMP JUMPDEST PUSH1 0x0 PUSH1 0x20 PUSH1 0x1F DUP4 ADD DIV SWAP1 POP SWAP2 SWAP1 POP JUMP JUMPDEST PUSH1 0x0 DUP3 DUP3 SHL SWAP1 POP SWAP3 SWAP2 POP POP JUMP JUMPDEST PUSH1 0x0 PUSH1 0x8 DUP4 MUL PUSH2 0x207A PUSH32 0xFFFFFFFFFFFFFFFFFFFFFFFFFFFFFFFFFFFFFFFFFFFFFFFFFFFFFFFFFFFFFFFF DUP3 PUSH2 0x203D JUMP JUMPDEST PUSH2 0x2084 DUP7 DUP4 PUSH2 0x203D JUMP JUMPDEST SWAP6 POP DUP1 NOT DUP5 AND SWAP4 POP DUP1 DUP7 AND DUP5 OR SWAP3 POP POP POP SWAP4 SWAP3 POP POP POP JUMP JUMPDEST PUSH1 0x0 DUP2 SWAP1 POP SWAP2 SWAP1 POP JUMP JUMPDEST PUSH1 0x0 PUSH2 0x20C1 PUSH2 0x20BC PUSH2 0x20B7 DUP5 PUSH2 0x1803 JUMP JUMPDEST PUSH2 0x209C JUMP JUMPDEST PUSH2 0x1803 JUMP JUMPDEST SWAP1 POP SWAP2 SWAP1 POP JUMP JUMPDEST PUSH1 0x0 DUP2 SWAP1 POP SWAP2 SWAP1 POP JUMP JUMPDEST PUSH2 0x20DB DUP4 PUSH2 0x20A6 JUMP JUMPDEST PUSH2 0x20EF PUSH2 0x20E7 DUP3 PUSH2 0x20C8 JUMP JUMPDEST DUP5 DUP5 SLOAD PUSH2 0x204A JUMP JUMPDEST DUP3 SSTORE POP POP POP POP JUMP JUMPDEST PUSH1 0x0 SWAP1 JUMP JUMPDEST PUSH2 0x2104 PUSH2 0x20F7 JUMP JUMPDEST PUSH2 0x210F DUP2 DUP5 DUP5 PUSH2 0x20D2 JUMP JUMPDEST POP POP POP JUMP JUMPDEST JUMPDEST DUP2 DUP2 LT ISZERO PUSH2 0x2133 JUMPI PUSH2 0x2128 PUSH1 0x0 DUP3 PUSH2 0x20FC JUMP JUMPDEST PUSH1 0x1 DUP2 ADD SWAP1 POP PUSH2 0x2115 JUMP JUMPDEST POP POP JUMP JUMPDEST PUSH1 0x1F DUP3 GT ISZERO PUSH2 0x2178 JUMPI PUSH2 0x2149 DUP2 PUSH2 0x2018 JUMP JUMPDEST PUSH2 0x2152 DUP5 PUSH2 0x202D JUMP JUMPDEST DUP2 ADD PUSH1 0x20 DUP6 LT ISZERO PUSH2 0x2161 JUMPI DUP2 SWAP1 POP JUMPDEST PUSH2 0x2175 PUSH2 0x216D DUP6 PUSH2 0x202D JUMP JUMPDEST DUP4 ADD DUP3 PUSH2 0x2114 JUMP JUMPDEST POP POP JUMPDEST POP POP POP JUMP JUMPDEST PUSH1 0x0 DUP3 DUP3 SHR SWAP1 POP SWAP3 SWAP2 POP POP JUMP JUMPDEST PUSH1 0x0 PUSH2 0x219B PUSH1 0x0 NOT DUP5 PUSH1 0x8 MUL PUSH2 0x217D JUMP JUMPDEST NOT DUP1 DUP4 AND SWAP2 POP POP SWAP3 SWAP2 POP POP JUMP JUMPDEST PUSH1 0x0 PUSH2 0x21B4 DUP4 DUP4 PUSH2 0x218A JUMP JUMPDEST SWAP2 POP DUP3 PUSH1 0x2 MUL DUP3 OR SWAP1 POP SWAP3 SWAP2 POP POP JUMP JUMPDEST PUSH2 0x21CD DUP3 PUSH2 0x1C76 JUMP JUMPDEST PUSH8 0xFFFFFFFFFFFFFFFF DUP2 GT ISZERO PUSH2 0x21E6 JUMPI PUSH2 0x21E5 PUSH2 0x1854 JUMP JUMPDEST JUMPDEST PUSH2 0x21F0 DUP3 SLOAD PUSH2 0x1FE7 JUMP JUMPDEST PUSH2 0x21FB DUP3 DUP3 DUP6 PUSH2 0x2137 JUMP JUMPDEST PUSH1 0x0 PUSH1 0x20 SWAP1 POP PUSH1 0x1F DUP4 GT PUSH1 0x1 DUP2 EQ PUSH2 0x222E JUMPI PUSH1 0x0 DUP5 ISZERO PUSH2 0x221C JUMPI DUP3 DUP8 ADD MLOAD SWAP1 POP JUMPDEST PUSH2 0x2226 DUP6 DUP3 PUSH2 0x21A8 JUMP JUMPDEST DUP7 SSTORE POP PUSH2 0x228E JUMP JUMPDEST PUSH1 0x1F NOT DUP5 AND PUSH2 0x223C DUP7 PUSH2 0x2018 JUMP JUMPDEST PUSH1 0x0 JUMPDEST DUP3 DUP2 LT ISZERO PUSH2 0x2264 JUMPI DUP5 DUP10 ADD MLOAD DUP3 SSTORE PUSH1 0x1 DUP3 ADD SWAP2 POP PUSH1 0x20 DUP6 ADD SWAP5 POP PUSH1 0x20 DUP2 ADD SWAP1 POP PUSH2 0x223F JUMP JUMPDEST DUP7 DUP4 LT ISZERO PUSH2 0x2281 JUMPI DUP5 DUP10 ADD MLOAD PUSH2 0x227D PUSH1 0x1F DUP10 AND DUP3 PUSH2 0x218A JUMP JUMPDEST DUP4 SSTORE POP JUMPDEST PUSH1 0x1 PUSH1 0x2 DUP9 MUL ADD DUP9 SSTORE POP POP POP JUMPDEST POP POP POP POP POP POP JUMP JUMPDEST PUSH1 0x0 PUSH1 0x40 DUP3 ADD SWAP1 POP PUSH2 0x22AB PUSH1 0x0 DUP4 ADD DUP6 PUSH2 0x1CF5 JUMP JUMPDEST PUSH2 0x22B8 PUSH1 0x20 DUP4 ADD DUP5 PUSH2 0x1D6C JUMP JUMPDEST SWAP4 SWAP3 POP POP POP JUMP JUMPDEST PUSH32 0x496E76616C6964207374617465207472616E736974696F6E0000000000000000 PUSH1 0x0 DUP3 ADD MSTORE POP JUMP JUMPDEST PUSH1 0x0 PUSH2 0x22F5 PUSH1 0x18 DUP4 PUSH2 0x1C81 JUMP JUMPDEST SWAP2 POP PUSH2 0x2300 DUP3 PUSH2 0x22BF JUMP JUMPDEST PUSH1 0x20 DUP3 ADD SWAP1 POP SWAP2 SWAP1 POP JUMP JUMPDEST PUSH1 0x0 PUSH1 0x20 DUP3 ADD SWAP1 POP DUP2 DUP2 SUB PUSH1 0x0 DUP4 ADD MSTORE PUSH2 0x2324 DUP2 PUSH2 0x22E8 JUMP JUMPDEST SWAP1 POP SWAP2 SWAP1 POP JUMP JUMPDEST PUSH32 0x426174636820494420646F6573206E6F74206578697374000000000000000000 PUSH1 0x0 DUP3 ADD MSTORE POP JUMP JUMPDEST PUSH1 0x0 PUSH2 0x2361 PUSH1 0x17 DUP4 PUSH2 0x1C81 JUMP JUMPDEST SWAP2 POP PUSH2 0x236C DUP3 PUSH2 0x232B JUMP JUMPDEST PUSH1 0x20 DUP3 ADD SWAP1 POP SWAP2 SWAP1 POP JUMP JUMPDEST PUSH1 0x0 PUSH1 0x20 DUP3 ADD SWAP1 POP DUP2 DUP2 SUB PUSH1 0x0 DUP4 ADD MSTORE PUSH2 0x2390 DUP2 PUSH2 0x2354 JUMP JUMPDEST SWAP1 POP SWAP2 SWAP1 POP JUMP JUMPDEST PUSH32 0x4469737472696275746F7220616464726573732063616E6E6F74206265207A65 PUSH1 0x0 DUP3 ADD MSTORE PUSH32 0x726F000000000000000000000000000000000000000000000000000000000000 PUSH1 0x20 DUP3 ADD MSTORE POP JUMP JUMPDEST PUSH1 0x0 PUSH2 0x23F3 PUSH1 0x22 DUP4 PUSH2 0x1C81 JUMP JUMPDEST SWAP2 POP PUSH2 0x23FE DUP3 PUSH2 0x2397 JUMP JUMPDEST PUSH1 0x40 DUP3 ADD SWAP1 POP SWAP2 SWAP1 POP JUMP JUMPDEST PUSH1 0x0 PUSH1 0x20 DUP3 ADD SWAP1 POP DUP2 DUP2 SUB PUSH1 0x0 DUP4 ADD MSTORE PUSH2 0x2422 DUP2 PUSH2 0x23E6 JUMP JUMPDEST SWAP1 POP SWAP2 SWAP1 POP JUMP JUMPDEST PUSH32 0x4E6F7420746865206469737472696275746F7200000000000000000000000000 PUSH1 0x0 DUP3 ADD MSTORE POP JUMP JUMPDEST PUSH1 0x0 PUSH2 0x245F PUSH1 0x13 DUP4 PUSH2 0x1C81 JUMP JUMPDEST SWAP2 POP PUSH2 0x246A DUP3 PUSH2 0x2429 JUMP JUMPDEST PUSH1 0x20 DUP3 ADD SWAP1 POP SWAP2 SWAP1 POP JUMP JUMPDEST PUSH1 0x0 PUSH1 0x20 DUP3 ADD SWAP1 POP DUP2 DUP2 SUB PUSH1 0x0 DUP4 ADD MSTORE PUSH2 0x248E DUP2 PUSH2 0x2452 JUMP JUMPDEST SWAP1 POP SWAP2 SWAP1 POP JUMP JUMPDEST PUSH32 0x52657461696C657220616464726573732063616E6E6F74206265207A65726F00 PUSH1 0x0 DUP3 ADD MSTORE POP JUMP JUMPDEST PUSH1 0x0 PUSH2 0x24CB PUSH1 0x1F DUP4 PUSH2 0x1C81 JUMP JUMPDEST SWAP2 POP PUSH2 0x24D6 DUP3 PUSH2 0x2495 JUMP JUMPDEST PUSH1 0x20 DUP3 ADD SWAP1 POP SWAP2 SWAP1 POP JUMP JUMPDEST PUSH1 0x0 PUSH1 0x20 DUP3 ADD SWAP1 POP DUP2 DUP2 SUB PUSH1 0x0 DUP4 ADD MSTORE PUSH2 0x24FA DUP2 PUSH2 0x24BE JUMP JUMPDEST SWAP1 POP SWAP2 SWAP1 POP JUMP INVALID LOG2 PUSH5 0x6970667358 0x22 SLT KECCAK256 0x2B REVERT SWAP8 PUSH25 0xF68894E284F8BBDA2675FBD5EF0D71BE4060F15ACBFBABD79D CODESIZE 0xF6 SWAP6 PUSH5 0x736F6C6343 STOP ADDMOD SHR STOP CALLER "
        },
        "methodIdentifiers": {
          "deliverMedicine(uint256,string,address)": "d804ace8",
          "manufactureMedicine(uint256,string,uint256,string,int8)": "090e46e3",
          "manufacturer()": "74754282",
          "medicines(uint256)": "c85e766d",
          "packMedicine(uint256,string)": "70b184da",
          "pickMedicine(uint256,string)": "7ead0dd7",
          "shipMedicine(uint256,string,address)": "1055f23c",
          "storeMedicine(uint256,string,string)": "8a381fd8"
        }
      }
    }
  }
}